:020000040000FA
:1000000060080020D5000000EF000000F1000000B3
:1000100000000000000000000000000000000000E0
:10002000000000000000000000000000F3000000DD
:100030000000000000000000F5000000F7000000D4
:10004000F9000000F9000000F9000000F9000000CC
:10005000F90000000000000031010000F90000007C
:1000600081020000F9000000F9000000F900000022
:10007000F9000000F9000000F9000000F90000009C
:10008000F9000000F9000000F9000000F90000008C
:10009000F9000000F9000000F9000000F90000007C
:1000A000F9000000F900000000000000000000005E
:1000B0000000000000000000000000000000000040
:1000C0000348854600F022F800480047BD040000C0
:1000D000600800200321094802680A4302600848BA
:1000E00002680A4302600748804707480047FEE766
:1000F000FEE7FEE7FEE7FEE7FEE70000240500401E
:10010000540500402D020000C1000000064C0125EE
:10011000064E05E0E36807CC2B430C3C98471034AF
:10012000B442F7D3FFF7D0FFD0080000F00800007A
:10013000F8B50024FF2501350126274600942846FE
:1001400000F0B4FB002808D031484068304204D0A9
:10015000304800212818344301602D1D76007F1C93
:10016000ADB2042FEBD3FF207D3000F09FFB0028C1
:1001700007D029480021016040070443274800694F
:100180000090274E200712D00127002527420AD0D1
:100190002448AA00111808690969C004C00E89031F
:1001A000B258890F90477F006D1C042DEED3002CB0
:1001B0001DDA3046203014214156491C17D0077DE6
:1001C000BC06A40E204600F0D7F880003558002D5C
:1001D0000DD0BE090121A140134AA000801800687B
:1001E000009A8003800F114202D0022802D0F8BD8D
:1001F0000328FCD1032E05D1022807D00221204676
:1002000000F044FB31462046A847F8BD0321F6E73D
:1002100000630040006000407C6100400005005029
:1002200024000020006500400007005010B500F0D9
:10023000D1F8002805D00E490C484860C8130D4974
:1002400088610D48018CC9B201290ED1818C090742
:100250000BD1018D0906090F042906D1808D0006F6
:10026000000F02D105490120886010BDDFFF07C0E3
:1002700000050040006C0040C00F00F00006004088
:10028000F8B500260F4C35463746A800FF30413000
:1002900080B22158002910D001210904A94003226D
:1002A0001202A21852680A4207D02750B20006492B
:1002B000054B89581B1F9A5890476D1C042DE4D399
:1002C000F8BD0000008000401C00002002E008C8CB
:1002D000121F08C1002AFAD170477047002001E0C0
:1002E00001C1121F002AFBD170470000BFF34F8FDE
:1002F00004490348C860BFF34F8F00BFFDE700000B
:100300000400FA0500ED00E00003000F01D000201A
:1003100070470120704700000022D2438300044947
:100320000428CA5002D30818203002747047000015
:1003300024000020F0B50025ED430023002A01D061
:10034000042601E0042305260A4C04E09F00E75937
:100350007F1C04D05B1CB342F8D32846F0BD5DB2CD
:10036000261835759E00A151002AF6D1E1182031DA
:100370000874F2E7240000200249091814200856E6
:10038000704700002400002072B602480168491C32
:10039000016070472000002003490868401E086083
:1003A00000D162B67047000020000020012181408A
:1003B00003484068014201D0012070470020704787
:1003C0000C000020014610B501208840FFF79CFF7B
:1003D00010BD00001048018CC9B2012917D1818CD1
:1003E000090714D1018D09060A0F03D1828D120667
:1003F000120F0ED0090F012903D1828D1206120FA0
:1004000007D0032903D1808D0006000F01D0002002
:100410007047012070470000C00F00F001218140AB
:100420000804000C00D00120704700003EB52048B1
:1004300002A900680290152000F0C4F8002803D03B
:1004400000221146FFF752FF0020014600900123D1
:10045000184A194800F0B7F901A800F01FF9002860
:1004600003D000221146FFF741FFFF21413112481E
:1004700000F0A6F90446152000F0EEF802466846A2
:100480002146007900F034F9002803D000221146FB
:10049000FFF72CFF6846007900F04AF9002803D0E6
:1004A00000221146FFF722FF152000F0DFF83EBDC5
:1004B000C4080000400D03000000002000F054F9C3
:1004C000002803D000221146FFF710FF00F050F87B
:1004D000002803D000221146FFF708FF094A002137
:1004E000094800F087F9002803D000221146FFF7E1
:1004F000FDFE06490120C860FFF798FF024800F0A2
:1005000055F9FEE7C108000000000020008C004003
:100510008207D30EFF229A408907090E10B5994031
:1005200000280BDA03071B0F083B9C080C4BA400A8
:10053000E318DC6994430C43DC6107E08408094B51
:10054000A400E418236893430B432360C106C90E3B
:1005500001208840044908600449086010BD00007B
:1005600000ED00E000E400E080E200E000E100E0F7
:1005700070B5124D687D002801D0082070BD0F496C
:1005800000202039421E0B18401CC0B21A752028CA
:10059000F9D300242046FFF7BFFE641CE4B2052C0B
:1005A000F8D301210620FFF7B3FF01200449C0075B
:1005B000486001206875002070BD000044000020E4
:1005C00000630040F8B504461E480D46001914218A
:1005D00041560026491C01D008262FE0A9780029A1
:1005E0001DD0012200212046FFF7A4FE411C14D09B
:1005F000830015482A78181869780369134F3B401F
:1006000003610369E706FF0C9207920BC907C90A49
:100610003B430A431343036104E004260EE0012137
:10062000C94301750A4A0320A100891808606A7845
:100630000120A0400749012A02D0C8603046F8BD19
:100640008860FBE72400002000650040FFE0ECFF2D
:10065000000700500005005010B5FFF78DFE800622
:100660000149000E401810BD0060004009490918FA
:10067000142008568100084809180869032210430D
:100680001F22120202430A6100BF00BF00BF0861BF
:10069000704700002400002000650040F1B50427E9
:1006A000114E0024FFF770FE0125A540354204D00D
:1006B0002046FFF77BFE00280AD0FFF76DFE002FD3
:1006C00004D0641CAE43E4B2002EEBD13846F8BD32
:1006D000064901204A68A04010434860009800275E
:1006E0000470FFF759FEF1E7FFFF00000C00002047
:1006F00070B514460D00064611D0002C0FD0FFF740
:100700008DFE00280DD03046FFF750FE00280AD09D
:100710000648F100081805614461002070BD0E20F4
:1007200070BD072070BD082070BD000000F50140BD
:1007300010B50446FFF746FE00280FD02046FFF70D
:100740006DFE002804D02046FFF730FE002807D0B9
:1007500001200449A0404860002010BD072010BDC2
:10076000082010BD00F5014004480178002901D09F
:100770008520704701210170002070470C00002087
:1007800070B5012424048C40032605683602AD1997
:10079000002B01D06C6000E0AC6000688900081894
:1007A000052109024018026470BD000001680122A1
:1007B0000A604079014A0221115470471400002058
:1007C000006840187047F0B5FF25023504688D4079
:1007D000FF34FF340234059E2768AF432760046866
:1007E000FF34FF34023425681D4325603346FFF78C
:1007F000C7FFF0BDF8B504464079224F0D46395C7D
:100800001646002901D00820F8BD002D02D11E494E
:10081000C00045180420E9782056FFF779FE617979
:10082000184A8900083268685050002E28D0607934
:10083000111F80000E5005202168000209186A78F7
:100840004B68D2075B085B00D20F13434B602268F2
:10085000A9781218936889079B089B00890F0B439E
:10086000936021682A7808180169120709090901AB
:10087000120F114301616179012078540020F8BD05
:100880000720F8BD14000020C808000082000648B8
:100890001018026803231B049A43026002680904CB
:1008A0000A430260704700000007005003494018E7
:1008B0000068012800D00020704700000060004060
:1008C0007047000003000100040003030000000063
:1008D000F00800000000002024000000CC0200000E
:1008E00014090000240000203C080000DC02000085
:1008F00000800040080000000024F4000000000018
:1009000000000000000000000000000000000000E7
:0409100000000000E3
:04000005000000C136
:00000001FF
