:020000040000FA
:1000000098090020F50000000F0100001101000018
:1000100000000000000000000000000000000000E0
:1000200000000000000000000000000013010000BC
:100030000000000000000000150100001701000092
:100040001901000019010000090300001901000056
:1000500019010000000000007D01000019010000EE
:10006000D9020000E9020000F902000019010000B5
:100070001901000019010000190100001901000018
:100080001901000019010000190100001901000008
:1000900019010000190100001901000019010000F8
:1000A000190100001901000000000000000000001C
:1000B0000000000000000000000000000000000040
:1000C0000348854600F048F8004800473909000019
:1000D00098090020401E00BF00BF00BF00BF00BF46
:1000E00000BF00BF00BF00BF00BF00BF00BFF1D115
:1000F000704700000321094802680A43026008486B
:1001000002680A4302600748804707480047FEE745
:10011000FEE7FEE7FEE7FEE7FEE7000024050040FD
:100120005405004085020000C100000030B50B46B8
:10013000014600202022012409E00D46D5409D42C1
:1001400005D31D469540491B254695404019154647
:10015000521E002DF1DC30BD064C0125064E05E097
:10016000E36807CC2B430C3C98471034B442F7D3D8
:10017000FFF7AAFF80110000A0110000F8B50024CD
:10018000FF250135012627460094284600F000FF90
:10019000002808D034484068304204D03348002159
:1001A0002818344301602D1D76007F1CADB2042F4A
:1001B000EBD3FF207D3000F0EBFE002807D02C4869
:1001C00000210160400704432A48006900902A4F3B
:1001D000200712D00126002526420AD02748AA006F
:1001E000111808690969C004C00E8903BA58890F3B
:1001F000904776006D1C042DEED3002C30DA0024DD
:100200001D4E1821301920304156491C25D0077E3B
:10021000BD06AD0E284600F023FB80003658002EA8
:100220001BD0BF090121A940154AA8008018006809
:10023000009A8003800F114202D0022802D00CE005
:1002400003280AD1032F05D102280AD0022128460B
:1002500000F08EFE39462846B047641C022CCFD3EE
:10026000F8BD0321F3E70000006300400060004098
:100270007C61004000050050440100200065004002
:100280000007005010B500F02BFB002805D00E49E8
:100290000C484860C8130D4988610D48018CC9B2EB
:1002A00001290ED1818C09070BD1018D0906090F97
:1002B000042906D1808D0006000F02D105490120D6
:1002C000886010BDDFFF07C000050040006C0040E3
:1002D000C00F00F00006004010B50021014800F0FA
:1002E0001FFE10BD0080004010B50121014800F044
:1002F00017FE10BD0090004010B50221014800F02B
:100300000FFE10BD00A000407CB51B4CA0681B4E2A
:100310000025002818D0A56019488069C1B2194885
:1003200000F07DF9002805D001216A461170019086
:10033000684607E013488168C068401A012803D165
:100340006846057071688847E069002803D0E56158
:10035000032000F027FE606A00280BD06562084980
:1003600080390868086002216A461170019071683E
:10037000684688477CBD000000210040080000203E
:1003800000250040240100200FB410B503A9044B40
:10039000044A029800F024F810BC08BC04B01847C6
:1003A000950800002000002030B47446641E2578B3
:1003B000641CAB4200D21D46635D5B00E31830BC99
:1003C000184702E008C8121F08C1002AFAD1704776
:1003D0007047002001E001C1121F002AFBD17047C5
:1003E000FFB58DB00446002506E025280AD0109AF6
:1003F0000F999047641C6D1C20780028F5D1284681
:1004000011B0F0BD00270121484A009700E00743E2
:10041000641C23780846203B98401042F7D120788E
:100420002E2817D1042007436078641C2A280CD199
:100430000E98641C02C800910E900BE000990A22ED
:10044000514330394018641C0090207801463039FF
:100450000929F3D920780028D1D0642808D0692848
:1004600006D075281ED0109A0F9990476D1C5BE03E
:100470000A200E99019001C90E91002802DA40422B
:100480002D2102E0390504D52B216A461172012184
:1004900003E0F90704D02021F7E70BAE0B910DE044
:1004A0000021FAE70A200E99019001C90E91F7E7A1
:1004B0000199FFF73BFE3031761E31700028F7D1ED
:1004C00003A8801B20300190780701D5009801E037
:1004D000012000900199884201DD401A00E00020CF
:1004E0000027009006E002A8109AC05D0F9990477F
:1004F0006D1C7F1C0B988742F5DB04E0109A3020BE
:100500000F9990476D1C0099481E00900029F5DC5A
:1005100005E03078109A761C0F9990476D1C019970
:10052000481E01900029F4DC641C65E709280100DD
:1005300038B50D4C6078022802D00C490120886043
:1005400069460B4800F048F8002802D000F016F881
:1005500038BD0848802181606A46074B1278DA610D
:1005600002226270416038BD080000200020004077
:100570003401002000230040002500401CB506493E
:100580000120C8600549487003206A461070496818
:10059000684688471CBD000000200040080000207D
:1005A00004490020487004490122CA604A60034996
:1005B000086070470800002000200040002500402F
:1005C000BFF34F8F03490248C860BFF34F8FFEE768
:1005D0000400FA0500ED00E08268C36893420AD087
:1005E000826883881A4003689A5C0A708168491C93
:1005F00081600020704705207047002906D0002A3E
:1006000002D0531E134203D0092070470E207047BA
:100610000160838000218160C16008467047826864
:10062000C3689B1A8288934208D8C3681340026843
:10063000D154C168491CC160002070470420704734
:10064000FFB5584F83B000260D4604467E707A6091
:1006500000292AD0A888296882B25348FFF7CDFF25
:10066000002823D1A889A96882B24F481030FFF72B
:10067000C4FF00281AD160784C490322800040183A
:10068000026022783046920051180E60484D617821
:10069000E96021786961A1686962454E61794036F7
:1006A000002905D00E21F16203E0072007B0F0BD5C
:1006B000F0622379022B17D03E493F4A012B45D0E7
:1006C00004232B608860C861F06A40084000F06233
:1006D000581FA860286101209060106078700C9805
:1006E000008800283FD043E000F0BCFA002803D186
:1006F00000F08EFA0028D9D1304869460068009091
:10070000A07800F0B7FA0028D0D1401E2861A07868
:10071000A860F06A01210843F0622848284A40682E
:100720000190E07801A900F01FFA0028BED1E0781E
:10073000012100F0C9F9E07800F060FA002801D04A
:10074000002000E0012000F02DFCC8E704232B600E
:100750008860C861F16A01200143F162E178296192
:10076000A178A960B8E70C9938780880401C3870E7
:1007700000211448C9438160A121890041601249C8
:1007800004200860114B06991A68FF242404890785
:10079000090EA24309040A431A600D4908600020AB
:1007A00084E700000800002024010020000700501A
:1007B00000250040002100400020004060110000A2
:1007C000A30800000023004080E200E000E400E015
:1007D00000E100E010B501460448FFF720FF0446A1
:1007E000022000F0DFFB204610BD00003401002095
:1007F0000003000F01D00020704701207047000067
:100800000022D243830004490428CA5002D30818A6
:10081000203002757047000044010020F0B500252B
:10082000ED430023002A01D0042601E0042306261C
:100830000A4C04E09F00E7597F1C04D05B1CB342C4
:10084000F8D32846F0BD5DB2261835769E00A1513A
:10085000002AF6D1E11820310875F2E744010020A2
:10086000024909181820085670470000440100206A
:1008700072B602480168491C016070471C000020E4
:1008800003490868401E086000D162B67047000046
:100890001C00002010B50446C0B2FFF79BFF2046A5
:1008A00010BD10B500F0AAF9002801D0002000E02A
:1008B000012000F077FB10BD012181400348406812
:1008C000014201D001207047002070471000002035
:1008D000014610B501208840FFF78AFF10BD0000D7
:1008E0001048018CC9B2012917D1818C090714D194
:1008F000018D09060A0F03D1828D1206120F0ED048
:10090000090F012903D1828D1206120F07D0032986
:1009100003D1808D0006000F01D000207047012018
:1009200070470000C00F00F0012181400804000C56
:1009300000D00120704700008AB0374A00213748B4
:1009400000F0A0FA002803D000221146FFF738FE7D
:100950003248314A0021083000F094FA002803D0D0
:1009600000221146FFF72CFE00242C4801232C4ABC
:1009700021460830009400F06AFA2848264A0021EF
:10098000103000F07FFA002803D000221146FFF754
:1009900017FE22480123234A00211030009400F062
:1009A00056FA00F05BFB1D4A01AB183207CA07C3B9
:1009B000684604841C48012411C31C480690200288
:1009C000079008A800900323194A04A901A8FFF77B
:1009D00037FE002803D000221146FFF7F1FD15482D
:1009E00084630E4800F026FA0C48083000F022FA22
:1009F0000A48103000F01EFA0021084800F0F6F90D
:100A000001460DA0FFF7C0FC044800F037FA64204F
:100A100000F01CF8F0E70000211100003C1100007C
:100A2000FFFF0000FF7F00000000002024000020E6
:100A3000231100004000004043757272656E7420FF
:100A4000636F75743A2025640A0D000031B5054CBA
:100A500004E0401E00902046FFF73CFB0098002871
:100A6000F7D138BDE70300008207D30EFF229A407A
:100A70008907090E10B5994000280BDA03071B0FF0
:100A8000083B9C080C4BA400E318DC6994430C431E
:100A9000DC6107E08408094BA400E4182368934351
:100AA0000B432360C106C90E012088400449086039
:100AB0000449086010BD000000ED00E000E400E023
:100AC00080E200E000E100E0F3B581B00F4601985C
:100AD00000F0ACFA012400281E4E019817D0FFF751
:100AE000BFFE80192030007D8009032802D0012834
:100AF00006D007E01848006901998C40204201D1D6
:100B0000022100E00321019800F032FAFEBD00F05E
:100B100099FA0028FAD00198FFF7A2FE0546810055
:100B2000C81D0E4AF93089180A6980B222430A6149
:100B30000B49401800210160002FE7D00198FFF712
:100B40008FFE800030580028E0D00648AC4044605A
:100B5000FEBD00004401002000050050006500407B
:100B60000060004000630040F8B5204F0D46044689
:100B70003819182141560026C8171346401C01D0C9
:100B8000082630E0EA7819462046FFF747FE411C68
:100B900028D0174BAA78A100C918002A03D00A68E8
:100BA00002239A4301E06A7892000A60E9780029FA
:100BB00010D082000F482978101802690E4B1A4095
:100BC0000261E206D20C8907890B0A4301690A43D4
:100BD000026108E0381820302A78017D9201114323
:100BE000017500E004263046F8BD000044010020F5
:100BF0000007005000650040FFE0FCFF0349096961
:100C0000C140C807C00F00D0012070470005005048
:100C100070B5124DA87E002801D0082070BD0F4984
:100C200000202039421E0B18401CC0B21A76202822
:100C3000F9D300242046FFF7E3FD641CE4B2062C40
:100C4000F8D301210620FFF70FFF01200449C00758
:100C500048600120A876002070BD000064010020DB
:100C6000006300400248807E002800D001207047C9
:100C700064010020F8B504461E480D4600191821ED
:100C800041560026491C01D008262FE0A9780029EA
:100C90001DD0012200212046FFF7C0FD411C14D0C9
:100CA000830015482A78181869780369134F3B4068
:100CB00003610369E706FF0C9207920BC907C90A93
:100CC0003B430A431343036104E004260EE0012181
:100CD000C94301760A4A0320A100891808606A788E
:100CE0000120A0400749012A02D0C8603046F8BD63
:100CF0008860FBE74401002000650040FFE0ECFF56
:100D00000007005000050050F1B50427114E0024E3
:100D1000FFF7AEFD0125A540354204D02046FFF780
:100D2000CBFD00280AD0FFF7ABFD002F04D0641CD8
:100D3000AE43E4B2002EEBD13846F8BD064901209F
:100D40004A68A04010434860009800270470FFF7ED
:100D500097FDF1E7FFFF00001000002070B514467A
:100D60000D00064611D0002C0FD0FFF7DDFD002846
:100D70000DD03046FFF7A0FD00280AD00648F1004C
:100D8000081805614461002070BD0E2070BD072069
:100D900070BD082070BD000000F5014010B504468C
:100DA000FFF796FD00280FD02046FFF7BDFD002875
:100DB00004D02046FFF780FD002807D00120044919
:100DC000A0404860002010BD072010BD082010BDC5
:100DD00000F5014004480178002901D085207047C2
:100DE000012101700020704710000020890010B51B
:100DF0000A4640320368D2B201249C501522006892
:100E000092018918405810BD70B5012424048C400B
:100E1000032605683602AD19002B01D06C6000E096
:100E2000AC600068890008180521090240180264B6
:100E300070BD0000016801220A604079014A022168
:100E40001154704718000020006840187047F0B532
:100E5000FF25023504688D40FF34FF340234059EBF
:100E60002768AF4327600468FF34FF3402342568E5
:100E70001D4325603346FFF7C7FFF0BD0068012121
:100E800081607047F8B504464079224F0D46395CC1
:100E90001646002901D00820F8BD002D02D11E49B8
:100EA000C00045180420E9782056FFF7DDFD617980
:100EB0001A4A890068685050002E29D0607911467E
:100EC00080000C390E5005202168000209186A784C
:100ED0004B68D2075B085B00D20F13434B6022685C
:100EE000A9781218936889079B089B00890F0B4308
:100EF000936021682A780818016912070909090115
:100F0000120F114301616179012078540020F8BD6E
:100F10000720F8BD18000020681100008C01002097
:100F2000F8B500250E4604462F46A800FF30413094
:100F300080B22158002910D001210904A9400322C0
:100F40001202A21852680A4207D02750B20005497F
:100F5000044B89580C3B9A5890476D1C042DE4D3E0
:100F6000F8BD00008C0100200068401870470000A8
:100F7000820006481018026803231B049A4302608B
:100F8000026809040A43026070470000000700502D
:100F9000034940180068012800D000207047000075
:100FA0000060004010B51D4A1D490300FFF7FCF921
:100FB00005040B3120271200487801281FD0022891
:100FC00008D1032005E04878002804D0032801D187
:100FD0000220487010BD134B04201860124B0120F2
:100FE00018609368D2689A42F3D0FFF7A1FA10BD57
:100FF0004878012806D0022804D00328F7D1FFF74B
:10100000CFFA10BD9068D1688142EED1FFF7B6FAF1
:1010100010BD48780128E8D010BD00003401002040
:101020000800002000250040002000400449081866
:1010300018214156042901DB012070470020704728
:10104000440100200449081818214156042901D2FE
:1010500001207047002070474401002070B5FFF761
:10106000B9FE002803D000221146FFF7A9FA2A484A
:10107000FFF74AFE002803D000221146FFF7A0FA2E
:1010800004212648FFF770FF0446FF252348413519
:1010900029460830FFF7D8FE22461F4C0146641E41
:1010A0006078FFF75BFE002803D000221146FFF7AF
:1010B00087FA1948401CFFF727FE002803D00022BA
:1010C0001146FFF77DFA00211448FFF74DFF064651
:1010D000124829461030FFF7B7FE01463246A07885
:1010E000FFF73CFE002803D000221146FFF768FA04
:1010F0006078FFF753FE002803D000221146FFF767
:101100005FFAA078FFF74AFE002803D000221146BC
:10111000FFF756FA70BD0000010000203C110000EE
:10112000704710B50178022901D0012904D10022AD
:1011300040681146FFF744FA10BD000000800040EF
:1011400008000000009000400901000000A00040DD
:101150000A0200000B09080A0100000000509D006F
:101160000001000003000000000103030000000074
:101170000900000300000000090000030000000057
:10118000A01100000000002024000000C2030000A5
:10119000C41100002400002074090000D2030000E4
:1011A000000000000024F400010000000000000026
:1011B000000000000000000000000000000000002F
:0411C000000000002B
:04000005000000C136
:00000001FF
