:020000040000FA
:10000000900B0020D5000000EF000000F100000080
:1000100000000000000000000000000000000000E0
:10002000000000000000000000000000F3000000DD
:100030000000000000000000F5000000F7000000D4
:10004000F9000000F900000049090000F900000073
:10005000F900000000000000A9070000F9000000FE
:1000600005090000F9000000F9000000F900000097
:10007000F9000000F9000000F9000000F90000009C
:10008000F9000000F9000000F9000000F90000008C
:10009000F9000000F9000000F9000000F90000007C
:1000A000F9000000F900000000000000000000005E
:1000B0000000000000000000000000000000000040
:1000C0000348854600F07CF900480047051300000E
:1000D000900B00200321094802680A430260084887
:1000E00002680A4302600748804707480047FEE766
:1000F000FEE7FEE7FEE7FEE7FEE70000240500401E
:1001000054050040B1080000C10000000FB400B564
:1001100089B00BA800906A4603480A9900F044F998
:1001200009B008BC04B0184728000020FFB500271C
:10013000FF4383B000205C6801909E681D46A9695A
:100140007F1C049888470090296A88470028F6D1C8
:100150000098401C0CD0032040028443002E19DD7F
:10016000600614D500982B2809D02D280FD103E064
:100170000020C04307B0F0BD012080020443A969FC
:100180007F1C04988847761E0090002E02DD0098A0
:10019000302803D00598002825D035E00120400202
:1001A0000443A969761E7F1C049888470090002E9E
:1001B00003DD782805D0582803D00598002810D0F2
:1001C00022E00598002801D010281DD1012040020E
:1001D0008443A969761E7F1C0498884700901020EC
:1001E00002E0082000E00A2005900DE0012149020C
:1001F0000C43059A0199761E514308180190A9698C
:100200007F1C049888470090002E05DD0599009812
:1002100000F0BBF80028E9DAE96904988847A005EE
:1002200002D40120C043A5E7E00722D1600611D522
:100230006005019800D5404229680A1D2A600968B6
:10024000220501D5087014E0220701D5088010E0CE
:1002500008600EE02868011D29600068210502D5AC
:100260000199017005E02107019901D5018000E0A5
:10027000016038467EE7FFB5002083B000905068EB
:1002800001909169144600269768049888470546AE
:100290000C990698084305D009E0A169761C0498DA
:1002A00088470546216A284688470028F5D1681CFA
:1002B00003D00198C00704D017E00020C04307B066
:1002C000F0BD2068011D2160006800900DE00198DC
:1002D000C00704D1009805700098401C0090A169E7
:1002E000761C7F1E049888470546002F1CDD681C7D
:1002F0001AD0069800280FD0E817C00E40194111F7
:100300008A0006994009511840012A1A09680120FB
:1003100090400142DBD107E00C980028D7D1216A38
:10032000284688470028D2D0E169049888470C986D
:10033000002807D1002E05DD0198C00702D10098E2
:1003400000210170A068B84204DD0C98002804D098
:10035000002F02D00120C043B1E73046AFE730B5EF
:100360000B46014600202022012409E00D46D5401D
:100370009D4205D31D469540491B25469540401991
:100380001546521E002DF1DC30BD3A2800D230381F
:10039000202302469A43412A01D310463738884227
:1003A00001D30020C043704710B5034B9361034B4A
:1003B000D36100F033F810BD2D0F000003040000DE
:1003C000064C0125064E05E0E36807CC2B430C3CA8
:1003D00098471034B442F7D3FFF776FE881E00002A
:1003E000A81E000010B5094908784C1C002803D04D
:1003F000401E0870205C10BD00210720ABBE20709D
:1004000010BD02490878421C0A7070472C00002079
:1004100002681378511801601846704710B5D16012
:10042000044951610449116200211161114600F033
:100430000DF810BD110400003D04000010B50F219F
:10044000C0B2490200F09EF910BD0000F3B58DB0B6
:1004500000200A9001200B90002608460C300C4624
:1004600009906269012109989047051E2ED0252D1B
:100470002DD0216A8847002818D062690121099887
:100480009047216A88470028F7D1411E6269099880
:10049000904700E0761CA1690D988847216A88473B
:1004A0000028F7D1E1690D988847DAE7A1690D982E
:1004B00088470746A84201D1761CD2E7E1690D982A
:1004C00088477F1C02D10A98002877D049E100278D
:1004D00062693D463946099890472A280CD16269DD
:1004E000012109989047012506E00A214F433F1852
:1004F000303FEBD4102005436269012109989047F1
:10050000014630390A2903D29B498F42DEDCECE7F1
:10051000E90600D4994F6C280AD04C2810D06828DE
:1005200024D06A282ED074280CD07A280AD00DE066
:1005300062690121099890476C2823D004211CE0AE
:10054000202005436269012109989047A7606560F2
:1005500065284FD026DC582839D01ADC452849D0E8
:1005600012DC252834D04128B0D143E06269012152
:1005700009989047682802D008210D43E6E701203A
:10058000C002DEE70220DCE7462833D047282CD122
:1005900030E05B2870D061282CD063286CD06428B0
:1005A00023D161E06F284FD009DC662822D067286C
:1005B00020D0692826D06E2817D12EE0CDE07028F3
:1005C0004DD073286FD075284ED078280DD154E0C7
:1005D000A1690D9888470546252800D16CE7E16997
:1005E0000D9888476D1C00D16DE7BAE00A224CE0F7
:1005F0000A2252E0012023466A46C0430D99C046B4
:10060000C046A3E02846402108436060A80723466F
:1006100001D5002239E000223FE0E80700D020E7C2
:100620002068011D21600068290501D5067018E7C2
:10063000290701D5068014E7A90703D5F11706603D
:1006400041600EE706600CE72846402108436060E1
:10065000A807234601D5082217E008221DE04849D3
:1006600028460840606016E0284640210843606044
:10067000A8072346BCD5B9E715E028464021084322
:100680006060A80707D5234610220120C0430D99BA
:10069000C046C0465AE0234610220120C0430D99AF
:1006A000FFF744FD52E000210C910B4600916328B6
:1006B00002D05B2807D043E0E80601D40120A06007
:1006C000012000903CE062690121099890475E2872
:1006D00005D101200C900146626909989047216973
:1006E000002906D10B4601AA8F00491CD3510829C5
:1006F000FADB002835D0216900290ED1C117C90EB7
:1007000009184A11930001AA9A1849094901411A86
:10071000012013688840034313606269012109982E
:1007200090475D28E5D10C98002808D0002001AB47
:1007300081005A58401CD2435A500828F8DB01ABBC
:1007400001202246C0430D99FFF795FD00280ADAE3
:10075000401C06D10B98002803D00020C0430FB0E6
:10076000F0BD0A98FBE7E90702D10A99491C0A91F2
:10077000361800200B9074E6CCCCCC0CFFFFFF7F2A
:10078000F1F7FFFF7F2801D9002207E0054B42085F
:100790009A5CC00700D112091207120F0120904085
:1007A00008407047B41D0000F8B50024FF2501354E
:1007B000012627460094284601F094F8002808D026
:1007C00034484068304204D033480021281834436C
:1007D00001602D1D76007F1CADB2042FEBD3FF20EE
:1007E0007D3001F07FF8002807D02C4800210160FF
:1007F000400704432A48006900902A4F200712D07E
:100800000126002526420AD02748AA0011180869A7
:100810000969C004C00E8903BA58890F9047760051
:100820006D1C042DEED3002C30DA00241D4E18214F
:10083000301920304156491C25D0077EBD06AD0E2B
:10084000284600F06BFB80003658002E1BD0BF09F5
:100850000121A940154AA80080180068009A800369
:10086000800F114202D0022802D00CE003280AD1E6
:10087000032F05D102280AD00221284601F022F8D0
:1008800039462846B047641C022CCFD3F8BD03215B
:10089000F3E7000000630040006000407C6100401E
:1008A0000005005050030020006500400007005084
:1008B00010B500F003FD002805D00E490C48486033
:1008C000C8130D4988610D48018CC9B201290ED1A8
:1008D000818C09070BD1018D0906090F042906D166
:1008E000808D0006000F02D105490120886010BDEF
:1008F000DFFF07C000050040006C0040C00F00F0A3
:100900000006004010B50E4C20466279017900784F
:10091000002A05D00A460146607801F0DDF901E0C1
:1009200001F0AEF92079401CC0B22071E178884214
:1009300001D9A078207103490020086010BD000093
:1009400010000020408100407CB51B4CA0681B4E6D
:100950000025002818D0A56019488069C1B219483F
:1009600000F0BBF9002805D001216A461170019002
:10097000684607E013488168C068401A012803D11F
:100980006846057071688847E069002803D0E56112
:10099000032000F0B1FF606A00280BD065620849AF
:1009A00080390868086002216A46117001907168F8
:1009B000684688477CBD0000002100401C000020E4
:1009C00000250040300300200FB410B503A9044BEC
:1009D000044A029800F024F810BC08BC04B0184780
:1009E0003F0F00002400002030B47446641E2578B8
:1009F000641CAB4200D21D46635D5B00E31830BC53
:100A0000184702E008C8121F08C1002AFAD170472F
:100A10007047002001E001C1121F002AFBD170477E
:100A2000FFB58DB00F460546002606E025280AD002
:100A3000109A0F9990476D1C761C28780028F5D1E4
:100A4000304611B0F0BD00240121674A009400E057
:100A500004436D1C2B780846203B98401042F7D188
:100A600028782E2815D10420044368786D1C2A2884
:100A70000AD101CF6D1C00900BE000990A2251436E
:100A8000303940186D1C009028780146303909290A
:100A9000F3D92878692843D006DC0028D0D0632811
:100AA0000BD0642804D13BE073280FD075284CD0BC
:100AB000109A0F999047761C94E03878694608722E
:100AC0000020487202A80190012003E038680190DC
:100AD0000020C0433F1D61070CD5002400E0641CCA
:100AE00000998C420FDA8442F9DB0199095D0029F3
:100AF000F5D108E0002400E0641C8442FCDB01998D
:100B0000095D0029F8D1361907E0019801990078AC
:100B1000491C0191109A0F999047641EF5D261E02B
:100B20000A20019001CF002802DA40422D2102E084
:100B3000210504D52B216A461172012103E0E1074A
:100B400001D02021F7E70C9104E00A20019001CFA9
:100B500000210C910BA90B9108E00199FFF7FFFB15
:100B60000A460B993032491E0B910A700028F4D1C5
:100B70000B9803A9081A20300190600701D500984E
:100B800001E0012000900199884203DD01460198AF
:100B9000081A00E000200024009006E002A8109A45
:100BA000005D0F999047641C761C0C988442F5DB1D
:100BB00004E0109A30200F999047761C0099481E47
:100BC00000900029F5DC08E00B980B990078491C8F
:100BD0000B91109A0F999047761C0199481E01902D
:100BE0000029F1DC6D1C28E70928010038B50D4CFF
:100BF0006078022802D00C490120886069460B48C1
:100C000000F048F8002802D000F016F838BD084877
:100C1000802181606A46074B1278DA610222627095
:100C2000416038BD1C00002000200040400300202F
:100C300000230040002500401CB506490120C86083
:100C40000549487003206A4610704968684688471D
:100C50001CBD0000002000401C00002004490020B2
:100C6000487004490122CA604A600349086070471D
:100C70001C0000200020004000250040BFF34F8FE3
:100C800003490248C860BFF34F8FFEE70400FA052E
:100C900000ED00E08268C36893420AD082688388CE
:100CA0001A4003689A5C0A708168491C81600020C0
:100CB000704705207047002906D0002A02D0531E35
:100CC000134203D0092070470E20704701608380D3
:100CD00000218160C160084670478268C3689B1A22
:100CE0008288934208D8C36813400268D154C1680F
:100CF000491CC160002070470420704710B50146B0
:100D00000148FFF7C7FF10BD30030020FFB5584F63
:100D100083B000260D4604467E707A6000292AD0F2
:100D2000A888296882B25348FFF7C5FF002823D15D
:100D3000A889A96882B24F481030FFF7BCFF00288D
:100D40001AD160784C490322800040180260227852
:100D50003046920051180E60484D6178E960217864
:100D60006961A1686962454E61794036002905D004
:100D70000E21F16203E0072007B0F0BDF062237995
:100D8000022B17D03E493F4A012B45D004232B604C
:100D90008860C861F06A40084000F062581FA8608F
:100DA000286101209060106078700C9800880028FD
:100DB0003FD043E000F034FD002803D100F006FDF1
:100DC0000028D9D13048694600680090A07800F02A
:100DD0002FFD0028D0D1401E2861A078A860F06ABD
:100DE00001210843F0622848284A40680190E078D1
:100DF00001A900F097FC0028BED1E078012100F0A5
:100E000041FCE07800F0D8FC002801D0002000E090
:100E1000012000F071FDC8E704232B608860C861E1
:100E2000F16A01200143F162E1782961A178A960AA
:100E3000B8E70C9938780880401C387000211448B5
:100E4000C9438160A12189004160124904200860E2
:100E5000114B06991A68FF2424048907090EA2433E
:100E600009040A431A600D490860002084E7000065
:100E70001C00002030030020000700500025004027
:100E80000021004000200040AC1D0000C110000007
:100E90000023004080E200E000E400E000E100E028
:100EA00010B501460448FFF718FF0446022000F081
:100EB00023FD204610BD0000400300200022D24345
:100EC000830004490428CA5002D308182030027550
:100ED0007047000050030020F0B50025ED430023CB
:100EE000002A01D0042601E0042306260A4C04E06F
:100EF0009F00E7597F1C04D05B1CB342F8D32846FF
:100F0000F0BD5DB2261835769E00A151002AF6D1BB
:100F1000E11820310875F2E7500300200249091852
:100F200018200856704700005003002008B5684696
:100F3000FFF7E4FE0528FAD06846007808BD10B532
:100F40000446C0B2FFF7ACFF204610BD70B500F0FC
:100F5000EDFE104D686200200446060200F0E6FE39
:100F6000641C3043E4B2042CF7D3E86108206861C4
:100F70000948A86100206863084EFE2030700024F4
:100F800000F0D4FE3119641CE4B24870FE2CF7D393
:100F90006E6070BD00150040FF00040330020020A9
:100FA00008B51348FFF710FD694612A0FFF7AEF829
:100FB000684600783038022811D8684601780EA0BB
:100FC000FFF702FD684601780D4830290CD0312921
:100FD0000CD0012101700BA0FFF7F6FC08BD072122
:100FE00005A0FFF7F1FCDFE70221F3E70021F1E7BD
:100FF000441E00002563000025630D0A0000000068
:10100000000000200D0A000008B51AA0FFF7DCFC64
:10101000694628A0FFF77AF8684600783038072834
:101020000FD868460078FFF73BFF684601782248F2
:1010300030390B00FFF7D8FC07090B1113151719EE
:101040001B000720FFF72CFFE2E7042100E000214E
:1010500041701AA0FFF7B8FC08BDFC21F8E7F821A1
:10106000F6E7F421F4E7F021F2E7EC21F0E7D821EC
:10107000EEE70000456E746572206F7574707574CC
:1010800020706F77657220282730273D2B3420642D
:10109000426D2C202731273D302064426D2C2E2EAE
:1010A0002E2C2737273D2D33302064426D293A0DF1
:1010B0000A00000025630000000000200D0A000067
:1010C00010B500F079FB002801D0002000E00120DD
:1010D00000F012FC10BD000010B514A0FFF774FC66
:1010E00015A0FFF771FC24A0FFF76EFC2BA0FFF703
:1010F0006BFC30A0FFF768FC39A0FFF765FC3FA050
:10110000FFF762FC43A0FFF75FFC4AA0FFF75CFC1F
:101110004EA0FFF759FC59A0FFF756FC5CA0FFF763
:1011200053FC60A0FFF750FC10BD000055736167D1
:10113000653A0D0A00000000613A20456E74657240
:10114000207374617274206368616E6E656C2066D2
:101150006F722073776565702F6368616E6E656C62
:1011600020666F7220636F6E7374616E74206361AA
:1011700072726965720D0A00623A20456E7465727A
:1011800020656E64206368616E6E656C20666F72A8
:101190002073776565700D0A00000000633A2053E4
:1011A0007461727420545820636172726965720DA3
:1011B0000A000000643A20456E7465722074696DFF
:1011C00065206F6E2065616368206368616E6E657F
:1011D0006C2028316D732D39396D73290D0A00008B
:1011E000653A2043616E63656C2073776565702F87
:1011F000636172726965720D0A0000006D3A2045E4
:101200006E746572206461746120726174650D0A88
:10121000000000006F3A205374617274206D6F6497
:10122000756C6174656420545820636172726965DD
:10123000720D0A00703A20456E746572206F7574E5
:1012400070757420706F7765720D0A00733A2050C4
:1012500072696E742063757272656E742064656C59
:1012600061792C206368616E6E656C7320616E64B9
:1012700020736F206F6E0D0A00000000723A205339
:10128000746172742052582073776565700D0A007E
:10129000743A2053746172742054582073776565D2
:1012A000700D0A00783A20537461727420525820ED
:1012B000636172726965720D0A0000001048018C4A
:1012C000C9B2012917D1818C090714D1018D0906F2
:1012D0000A0F03D1828D1206120F0ED0090F0129B9
:1012E00003D1828D1206120F07D0032903D1808DFE
:1012F0000006000F01D00020704701207047000059
:10130000C00F00F08CB00024784801262546066006
:1013100077482746046081050E6001680029FCD0EB
:10132000744805AB07C807C3684687817248744A8A
:1013300041C372480A90012040020B9003A800901C
:10134000032308A905A8FFF7E1FC002803D0002229
:101350001146FFF793FC6BA0FFF736FBFF206C49AB
:101360000130086062B6644EF61E04A969A0FEF75B
:10137000CDFE6846007C6F285DD00EDC64283DD031
:1013800006DC612813D0622822D063286DD133E0B7
:10139000652849D06D2868D14AE070380300FFF70E
:1013A00023FB094F6452575A6464645F64005AA077
:1013B000FFF70AFB504966A0491CFEF7A7FE7068BC
:1013C000502801D8014626E062A0FFF7FDFAEEE7BB
:1013D0006948FFF7F9FA48495DA0491DFEF796FEF6
:1013E000B068502804DC7068002801DBB16812E0A6
:1013F00058A0FFF7E9FAEBE7012440E05FA0FFF710
:10140000E3FA3D4952A00931FEF780FEF068401E24
:10141000632805D2F16866A0FFF7D6FA2C4626E0CD
:1014200065A0FFF7D1FAE9E700F04CFC00251EE0CB
:10143000FFF7B6FDF2E7022468A0FFF7C5FA2AE03D
:10144000FFF7E2FDEAE705246AA0FFF7BDFA44E0F2
:1014500000F0AEFA0BE0032469A0FFF7B5FA26E02E
:1014600004246AA0FFF7B0FA2AE0FFF735FE230054
:10147000FFF7BAFA060405111D26330475E7B078A4
:10148000002802D000F01EFCB770327931787078F5
:1014900000F022FC1EE0B078002802D000F012FC20
:1014A000B77032793178707800F0D0FB12E0307B81
:1014B0000090337A32793178707800F027FC12E0AE
:1014C000B078002802D000F0FDFBB7703179307899
:1014D00000F0D6FB2546002447E7337B327A31798A
:1014E000307800F0DFFB0120B070F3E700D000405F
:1014F00000010040A01D000003000020300000207B
:10150000891D0000524620546573740D0A000000C6
:1015100000E100E025630000456E7465722073747D
:10152000617274206368616E6E656C202874776FD9
:1015300020646563696D616C206469676974732CEC
:1015400020303020746F203830293A0D0A00000016
:10155000256400004368616E6E656C206D75737460
:10156000206265206265747765656E203020616E4B
:10157000642038300D0A0000F41D0000456E7465CB
:10158000722064656C617920696E206D7320287407
:10159000776F20646563696D616C20646967697445
:1015A000732C20303120746F203939293A0D0A000C
:1015B00025640D0A0000000044656C6179206D759A
:1015C0007374206265206265747765656E203120D2
:1015D000616E642039390D0A000000005458206DF6
:1015E0006F64756C617465642063617272696572A1
:1015F0000D0A000052582053776565700D0A0000EF
:1016000054582053776565700D0A000052582063C6
:101610006F6E7374616E7420636172726965720DAE
:101620000A0000008207D30EFF229A408907090EA4
:1016300010B5994000280BDA03071B0F083B9C08E4
:101640000C4BA400E318DC6994430C43DC6107E015
:101650008408094BA400E418236893430B432360D8
:10166000C106C90E01208840044908600449086089
:1016700010BD000000ED00E000E400E080E200E0CA
:1016800000E100E0F3B581B00F46019800F078F971
:10169000012400281E4E019817D0FFF73FFC801947
:1016A0002030007D8009032802D0012806D007E001
:1016B0001848006901998C40204201D1022100E0C4
:1016C0000321019800F0FEF8FEBD00F065F9002846
:1016D000FAD00198FFF722FC05468100C81D0E4A8A
:1016E000F93089180A6980B222430A610B4940180F
:1016F00000210160002FE7D00198FFF70FFC800068
:1017000030580028E0D00648AC404460FEBD0000E0
:1017100050030020000500500065004000600040BC
:1017200000630040F8B5204F0D46044638191821D3
:1017300041560026C8171346401C01D0082630E049
:10174000EA7819462046FFF7C7FB411C28D0174B03
:10175000AA78A100C918002A03D00A6802239A4374
:1017600001E06A7892000A60E978002910D08200CE
:101770000F482978101802690E4B1A400261E206E0
:10178000D20C8907890B0A4301690A43026108E008
:10179000381820302A78017D92011143017500E04C
:1017A00004263046F8BD000050030020000700501A
:1017B00000650040FFE0FCFF03490969C140C8071C
:1017C000C00F00D0012070470005005070B5124DC9
:1017D000A87E002801D0082070BD0F4900202039C4
:1017E000421E0B18401CC0B21A762028F9D30024E0
:1017F0002046FFF763FB641CE4B2062CF8D30121FA
:101800000620FFF70FFF01200449C00748600120B0
:10181000A876002070BD0000700300200063004027
:101820000248807E002800D001207047700300200D
:10183000F8B504461E480D460019182141560026E9
:10184000491C01D008262FE0A97800291DD00122CB
:1018500000212046FFF740FB411C14D083001548AF
:101860002A78181869780369134F3B4003610369AC
:10187000E706FF0C9207920BC907C90A3B430A43CC
:101880001343036104E004260EE00121C9430176FD
:101890000A4A0320A100891808606A780120A04044
:1018A0000749012A02D0C8603046F8BD8860FBE7CE
:1018B0005003002000650040FFE0ECFF00070050EF
:1018C00000050050820006481018026803231B041C
:1018D0009A430260026809040A43026070470000EC
:1018E00000070050034940180068012800D000207C
:1018F000704700000060004010B51D4A1D490300FC
:10190000FFF772F805040B312027120048780128F0
:101910001FD0022808D1032005E04878002804D011
:10192000032801D10220487010BD134B0420186019
:10193000124B012018609368D2689A42F3D0FFF7E7
:1019400055F910BD4878012806D0022804D0032894
:10195000F7D1FFF783F910BD9068D1688142EED1CD
:10196000FFF76AF910BD48780128E8D010BD0000E3
:10197000400300201C000020002500400020004003
:101980000449081818214156042901DB0120704739
:1019900000207047500300200449081818214156C0
:1019A000042901D201207047002070475003002015
:1019B00010B523A0FFF708F8254C2078002805D0A3
:1019C000012813D0022804D122A000E02AA0FEF7AB
:1019D000FBFF6078F0282DD00ADC002811D0042805
:1019E0000DD0D8282AD0EC280ED125E02BA0EEE788
:1019F000F4281DD0F82819D0FC2805D114E030A017
:101A000000E037A0FEF7E0FF3DA06168FEF7DCFFD5
:101A100042A0A168FEF7D8FF47A0E168FEF7D4FF17
:101A20004CA0FEF7D1FF10BD4CA0EBE753A0E9E7B7
:101A30005AA0E7E761A0E5E768A0E3E76FA0E1E768
:101A4000506172616D65746572733A0D0A00000031
:101A5000000000204461746120726174652E2E2E96
:101A60002E2E2E2E2E2E2E2E3A20323530204B6248
:101A700069742F730D0A00004461746120726174EF
:101A8000652E2E2E2E2E2E2E2E2E2E2E3A2031204C
:101A90004D6269742F730D0A000000004461746187
:101AA00020726174652E2E2E2E2E2E2E2E2E2E2E70
:101AB0003A2032204D6269742F730D0A0000000035
:101AC000545820506F7765722E2E2E2E2E2E2E2ECD
:101AD0002E2E2E2E3A202B342064426D0D0A00004B
:101AE000545820506F7765722E2E2E2E2E2E2E2EAD
:101AF0002E2E2E2E3A20302064426D0D0A0000005A
:101B000028537461727429204368616E6E656C2E6F
:101B10002E2E2E2E3A2025640D0A0000456E6420DC
:101B20004368616E6E656C2E2E2E2E2E2E2E2E2E5E
:101B30003A2025640D0A000054696D65206F6E20FF
:101B400065616368206368616E6E656C3A20256428
:101B50000D0A0000206D730D0A000000545820503B
:101B60006F7765722E2E2E2E2E2E2E2E2E2E2E2E90
:101B70003A202D342064426D0D0A00005458205044
:101B80006F7765722E2E2E2E2E2E2E2E2E2E2E2E70
:101B90003A202D382064426D0D0A00005458205020
:101BA0006F7765722E2E2E2E2E2E2E2E2E2E2E2E50
:101BB0003A202D31322064426D0D0A0054582050D5
:101BC0006F7765722E2E2E2E2E2E2E2E2E2E2E2E30
:101BD0003A202D31362064426D0D0A0054582050B1
:101BE0006F7765722E2E2E2E2E2E2E2E2E2E2E2E10
:101BF0003A202D32302064426D0D0A005458205096
:101C00006F7765722E2E2E2E2E2E2E2E2E2E2E2EEF
:101C10003A202D33302064426D0D0A000748002120
:101C2000016007480161074A1160074B01221A61F0
:101C30000269002AFCD001617047000000120040D8
:101C400000110040401500400010004070B51446DF
:101C50000D460646FFF7E2FFFFF778F90549072032
:101C60000860054BDE601D619C600449012008602E
:101C700070BD000000120040001500400010004040
:101C800010B50C46FFF7CAFF03490120086003495D
:101C90008C600349486010BD0012004000150040F0
:101CA0000010004010B504460548047081700171B1
:101CB000C27000214171184600F046F810BD0000C6
:101CC0001000002010B5034901204860FFF7A6FF6F
:101CD00010BD00000080004070B514460D46064659
:101CE000FFF79CFF064901200860064BDE601D617E
:101CF0009C60044A0321403211600349086070BDB2
:101D000000120040001500400010004070B5064C65
:101D1000049D60702170A2702271E37001206071D7
:101D2000284600F011F870BD100000200448002182
:101D3000016001680029FCD00248806870470000FB
:101D400000D1004000D5004010B50B4B0121596077
:101D50000A4A11600A4A0024546002249460042450
:101D60001461084C0A0462607D22D2005043044A88
:101D700040321060196010BD0080004000820040B9
:101D8000008500400083004010B50178022901D091
:101D9000012904D1002240681146FEF76FFF10BDF3
:101DA0000B09080A0100000000509D00000100001E
:101DB00003000000DDDDDDDDDCBBBBDDDDDDDDDD09
:101DC000DDDDDDDD98888888888888887777777773
:101DD000778888888555555666666666666666663F
:101DE00066688888833333322222222222222222EA
:101DF0002228888D456E74657220656E6420636844
:101E0000616E6E656C202020202020202020202064
:101E100020202020202020202020202020202020C2
:101E200020202874776F20646563696D616C20647D
:101E300069676974732C20303020746F2038302922
:101E40003A0D0A00456E74657220646174612072F7
:101E500061746520282730273D323530204B626978
:101E6000742F732C202731273D31204D6269742F48
:101E70007320616E64202732273D32204D626974E1
:101E80002F73293A0D0A0000A81E00000000002050
:101E900030000000020A0000D81E000030000020C0
:101EA000600B0000120A00000100000000000000AA
:101EB000500000000A0000000000000000000000C8
:101EC0000024F400010000000000000000000000F9
:081ED00000000000000000000A
:04000005000000C136
:00000001FF
