:020000040000FA
:1000000070090020D5000000EF000000F1000000A2
:1000100000000000000000000000000000000000E0
:10002000000000000000000000000000F3000000DD
:100030000000000000000000F5000000F7000000D4
:10004000F9000000F9000000D9020000F9000000EA
:10005000F90000000000000031010000F90000007C
:10006000F9000000F9000000F9000000F9000000AC
:10007000F9000000F9000000F9000000F90000009C
:10008000F9000000F9000000F9000000F90000008C
:10009000F9000000F9000000F9000000F90000007C
:1000A000F9000000F900000000000000000000005E
:1000B0000000000000000000000000000000000040
:1000C0000348854600F022F8004800477507000005
:1000D000700900200321094802680A4302600848A9
:1000E00002680A4302600748804707480047FEE766
:1000F000FEE7FEE7FEE7FEE7FEE70000240500401E
:100100005405004039020000C1000000064C0125E2
:10011000064E05E0E36807CC2B430C3C98471034AF
:10012000B442F7D3FFF7D0FFFC0B00001C0C00001B
:10013000F8B50024FF2501350126274600942846FE
:1001400000F0E0FC002808D034484068304204D079
:10015000334800212818344301602D1D76007F1C90
:10016000ADB2042FEBD3FF207D3000F0CBFC002894
:1001700007D02C4800210160400704432A48006949
:1001800000902A4F200712D00126002526420AD0CF
:100190002748AA00111808690969C004C00E89031C
:1001A000BA58890F904776006D1C042DEED3002CB1
:1001B00030DA00241D4E1821301920304156491CD8
:1001C00025D0077EBD06AD0E284600F095FA8000CA
:1001D0003658002E1BD0BF090121A940154AA8009E
:1001E00080180068009A8003800F114202D0022814
:1001F00002D00CE003280AD1032F05D102280AD02F
:100200000221284600F06EFC39462846B047641C9F
:10021000022CCFD3F8BD0321F3E7000000630040B8
:10022000006000407C610040000500503401002067
:10023000006500400007005010B500F077FA002874
:1002400005D01F491D484860C8131E4988611E48D3
:10025000018CC9B201290BD1828C120708D1028D01
:100260001206120F042A03D1828D1206120F0AD031
:10027000012921D1818C09071ED1018D0906090FA1
:100280000A2904D007E0114A01219160F5E7828D27
:100290001206120F05D00D290ED1808D0006000F19
:1002A0000AD10B480168012904D00A49016001689C
:1002B0000129FCD1C021416110BD0000DFFF07C052
:1002C00000050040006C0040C00F00F00006004038
:1002D00000EC0640759300007CB51B4CA0681B4EDB
:1002E0000025002818D0A56019488069C1B21948B6
:1002F00000F0E1F8002805D001216A461170019054
:10030000684607E013488168C068401A012803D195
:100310006846057071688847E069002803D0E56188
:10032000032000F0F9FB606A00280BD065620849E1
:1003300080390868086002216A461170019071686E
:10034000684688477CBD0000002100400400002072
:10035000002500401401002010B5024A024900F0B7
:1003600021F810BD090700000C00002030B47446CD
:10037000641E2578641CAB4200D21D46635D5B00A1
:10038000E31830BC184702E008C8121F08C1002A51
:10039000FAD170477047002001E001C1121F002A06
:1003A000FBD17047F8B516460F460446002503E01A
:1003B0003946B047641C6D1C20780028F8D12846C7
:1003C000F8BD000038B50D4C6078022802D00C4909
:1003D0000120886069460B4800F04AF8002802D0E6
:1003E00000F016F838BD0848802181606A46074B46
:1003F0001278DA6102226270416038BD0400002088
:10040000002000402401002000230040002500407F
:100410001CB506490120C8600549487003206A469A
:1004200010704968684688471CBD000000200040E5
:100430000400002004490020487004490122CA60D9
:100440004A60034908607047040000200020004013
:1004500000250040BFF34F8F04490348C860BFF335
:100460004F8F00BFFDE700000400FA0500ED00E03B
:100470008268C36893420AD0826883881A400368FE
:100480009A5C0A708168491C8160002070470520D1
:100490007047002906D0002A02D0531E134203D011
:1004A000092070470E207047016083800021816021
:1004B000C160084670478268C3689B1A828893426D
:1004C00008D8C36813400268D154C168491CC16090
:1004D000002070470420704710B501460148FFF71F
:1004E000C7FF10BD14010020FFB5584F83B0002690
:1004F0000D4604467E707A6000292AD0A8882968B3
:1005000082B25348FFF7C5FF002823D1A889A96804
:1005100082B24F481030FFF7BCFF00281AD1607834
:100520004C49032280004018026022783046920035
:1005300051180E60484D6178E96021786961A168C1
:100540006962454E61794036002905D00E21F1627D
:1005500003E0072007B0F0BDF0622379022B17D02B
:100560003E493F4A012B45D004232B608860C86177
:10057000F06A40084000F062581FA860286101201E
:100580009060106078700C98008800283FD043E09D
:1005900000F056FA002803D100F028FA0028D9D13B
:1005A0003048694600680090A07800F051FA0028B1
:1005B000D0D1401E2861A078A860F06A01210843CC
:1005C000F0622848284A40680190E07801A900F0CC
:1005D000B9F90028BED1E078012100F063F9E07894
:1005E00000F0FAF9002801D0002000E0012000F01E
:1005F00093FAC8E704232B608860C861F16A012080
:100600000143F162E1782961A178A960B8E70C990A
:1006100038780880401C387000211448C943816034
:10062000A12189004160124904200860114B0699FC
:100630001A68FF2424048907090EA24309040A4307
:100640001A600D490860002084E7000004000020C3
:100650001401002000070050002500400021004048
:1006600000200040F40B00001707000000230040AA
:1006700080E200E000E400E000E100E010B50146A7
:100680000448FFF718FF0446022000F045FA204610
:1006900010BD0000240100200022D2438300044941
:1006A0000428CA5002D30818203002757047000091
:1006B00034010020F0B50025ED43002A02D00023CC
:1006C000042601E0042306260A4C04E09F00E759B3
:1006D0007F1C04D05B1CB342F8D32846F0BD5DB24A
:1006E000261835769E00A151002AF6D1E118203156
:1006F0000875F2E73401002002490918182008564D
:10070000704700003401002010B50446C0B2FFF766
:10071000B5FF204610BD10B500F05EF9002801D0ED
:10072000002000E0012000F0F7F910BD1048018C16
:10073000C9B2012917D1818C090714D1018D09068D
:100740000A0F03D1828D1206120F0ED0090F012954
:1007500003D1828D1206120F07D0032903D1808D99
:100760000006000F01D000207047012070470000F4
:10077000C00F00F000200121244B8AB003220C4658
:100780008440E401240F02D08400E4182260401C5D
:100790002028F4D30F221E48520582600022C26036
:1007A0001C4C19CC069305900794684602841A489D
:1007B00001901A480390FF200130049008A802918C
:1007C00000900323164A01A905A8FFF78DFE002813
:1007D00003D000221146FFF73DFE12A0FFF7BCFD3B
:1007E0006846FFF779FE0028FAD168460078FFF7DF
:1007F00045FF0028F9D168460078712801D05128BA
:10080000EED10BA0FFF7A8FDFEE7000000070050A7
:1008100000050050E80B000000000020140000203C
:10082000D10B00000A0D53746172743A200A0D0056
:10083000200A0D45786974210A0D00008207D30E45
:10084000FF229A408907090E10B59940002808DB5D
:100850008408104BA400E418236893430B432360DF
:100860000AE003071B0F083B9C080B4BA400E3188E
:10087000DC6994430C43DC61C206D20E0121914035
:10088000002801DB054A1160002801DB04480160F3
:1008900010BD000000E400E000ED00E080E200E0B8
:1008A00000E100E0F3B581B00F46019800F078F95F
:1008B000012400281E4E019817D0FFF71DFF801954
:1008C0002030007D8009032802D0012806D007E0EF
:1008D0001848006901998C40204201D1022100E0B2
:1008E0000321019800F0FEF8FEBD00F065F9002834
:1008F000FAD00198FFF700FF05468100C81D0E4A97
:10090000F93089180A6980B222430A610B494018FC
:1009100000210160002FE7D00198FFF7EDFE800075
:1009200030580028E0D00648AC404460FEBD0000CE
:1009300034010020000500500065004000600040C8
:1009400000630040F8B5204F0D46044638191821C1
:1009500041560026C8171346401C01D0082630E037
:10096000EA7819462046FFF7A5FE411C28D0174B10
:10097000AA78A100C918002A03D00A6802239A4362
:1009800001E06A7892000A60E978002910D08200BC
:100990000F482978101802690E4B1A400261E206CE
:1009A000D20C8907890B0A4301690A43026108E0F6
:1009B000381820302A78017D92011143017500E03A
:1009C00004263046F8BD0000340100200007005026
:1009D00000650040FFE0FCFF03490969C140C8070A
:1009E000C00F00D0012070470005005070B5124DB7
:1009F000A87E002801D0082070BD0F4900202039B2
:100A0000421E0B18401CC0B21A762028F9D30024CD
:100A10002046FFF741FE641CE4B2062CF8D3012106
:100A20000620FFF70BFF01200449C00748600120A2
:100A3000A876002070BD0000540100200063004033
:100A40000248807E002800D0012070475401002019
:100A5000F8B504461E480D460019182141560026D7
:100A6000491C01D008262FE0A97800291DD00122B9
:100A700000212046FFF71EFE411C14D083001548BC
:100A80002A78181869780369134F3B40036103699A
:100A9000E706FF0C9207920BC907C90A3B430A43BA
:100AA0001343036104E004260EE00121C9430176EB
:100AB0000A4A0320A100891808606A780120A04032
:100AC0000749012A02D0C8603046F8BD8860FBE7BC
:100AD0003401002000650040FFE0ECFF00070050FB
:100AE00000050050820006481018026803231B040A
:100AF0009A430260026809040A43026070470000DA
:100B000000070050034940180068012800D0002069
:100B1000704700000060004010B51D4A1D490300E9
:100B2000FFF724FC05040B31202712004878012828
:100B30001FD0022808D1032005E04878002804D0FF
:100B4000032801D10220487010BD134B0420186007
:100B5000124B012018609368D2689A42F3D0FFF7D5
:100B600031FC10BD4878012806D0022804D00328A3
:100B7000F7D1FFF75FFC10BD9068D1688142EED1DC
:100B8000FFF746FC10BD48780128E8D010BD0000F2
:100B90002401002004000020002500400020004027
:100BA0000449081818214156042901DB0120704727
:100BB00000207047340100200449081818214156CC
:100BC000042901D201207047002070473401002021
:100BD00010B50178022901D0012904D10022406812
:100BE0001146FFF737FC10BD0B09080A0100000091
:100BF00000509D0000010000030000001C0C0000DC
:100C0000000000201400000086030000300C0000EB
:100C1000140000205C0900009603000000000000A2
:100C20000100000000000000000000000024F400AB
:04000005000000C136
:00000001FF
