:020000040001F9
:1080000020300020F58001000F8101001181010066
:108010000000000000000000000000000000000060
:1080200000000000000000000000000013810100BB
:108030000000000000000000158101001781010010
:108040001981010019810100418401001981010099
:10805000198101000000000009820100198101005E
:1080600019810100198101001981010019810100A4
:108070001981010019810100198101001981010094
:108080001981010055830100198101001981010046
:108090007583010019810100C98301001981010064
:1080A000198101001981010000000000000000009A
:1080B00000000000000000000000000000000000C0
:1080C0000348854600F08EF800480047A1A901004A
:1080D00020300020401E00BF00BF00BF00BF00BF17
:1080E00000BF00BF00BF00BF00BF00BF00BFF1D195
:1080F000704700000321094802680A4302600848EB
:1081000002680A4302600748804707480047FEE7C5
:10811000FEE7FEE7FEE7FEE7FEE70000240500407D
:1081200054050040ED830100C180010030B50B46CD
:10813000014600202022012409E00D46D5409D4241
:1081400005D31D469540491B2546954040191546C7
:10815000521E002DF1DC30BD70B5002425460028EC
:1081600001DA01244042002901DA01254942FFF7E2
:10817000DDFFAC4200D04042002C00D0494270BD2F
:1081800003460B439B0703D009E008C9121F08C030
:10819000042AFAD203E00B780370401C491C521EDB
:1081A000F9D27047D2B201E00270401C491EFBD2E6
:1081B00070470022F6E710B513460A4604461946F2
:1081C000FFF7F0FF204610BD30B5044600200346FF
:1081D00000E05B1C934203D2E05CCD5C401BF8D016
:1081E00030BD0000064C0125064E05E0E36807CCD3
:1081F0002B430C3C98471034B442F7D3FFF764FF8D
:1082000094BB0100B4BB0100F8B50024FF25013583
:10821000012627460094284602F00CFE002808D0CC
:1082200034484068304204D0334800212818344391
:1082300001602D1D76007F1CADB2042FEBD3FF2013
:108240007D3002F0F7FD002807D02C4800210160A6
:10825000400704432A48006900902A4F200712D0A3
:108260000126002526420AD02748AA0011180869CD
:108270000969C004C00E8903BA58890F9047760077
:108280006D1C042DEED3002C30DA00241D4E042189
:10829000301940304156491C25D00779BD06AD0E36
:1082A000284601F067F980003658002E1BD0BF0920
:1082B0000121A940154AA80080180068009A80038F
:1082C000800F114202D0022802D00CE003280AD10C
:1082D000032F05D102280AD00221284602F09AFD78
:1082E00039462846B047641C052CCFD3F8BD03217E
:1082F000F3E7000000630040006000407C61004044
:1083000000050050F02600200065004000070050E6
:108310008307FF22DB0E9A408907090E9940002847
:108320000BDA0007000F0838830808489B0018186C
:10833000C36993430B43C3617047830804489B00A0
:108340001B181868904308431860704700ED00E060
:1083500000E400E010B5064900200860486088602D
:10836000C860034940390860486003F0A1FA10BDB5
:1083700040110140FEB50020C043124D02906869D3
:10838000019068462E6901F0C3FF074602F046FAE5
:108390000446002F08D002AA0199009801F0D8FFE6
:1083A000029802F085FA06E0029802F081FA0028AD
:1083B00001D1002C02D0304601F0E8F900206871AC
:1083C000FEBD0000CC20002010B507484068002802
:1083D00007D08047002803D00022114600F0C8F9DA
:1083E00010BD02F075F910BDF020002010B502F0AC
:1083F000BDF9002805D00E490C484860C8130D4946
:1084000088610D48018CC9B201290ED1818C090700
:108410000BD1018D0906090F042906D1808D0006B4
:10842000000F02D105490120886010BDDFFF07C0A1
:1084300000050040006C0040C00F00F00006004046
:10844000FEB5194CA068194D194E002700280ED012
:10845000706840070BD5A760164880690422C0B237
:10846000A88069460A700871A96868468847E0696B
:10847000002806D07068000603D5E761032002F0EB
:1084800007FD606A00280ED0706880050BD5676212
:10849000084980390868086002216A461170019015
:1084A000A96868468847FEBD00210040842000205E
:1084B000002300400025004030B47446641E257837
:1084C000641CAB4200D21D46635D5B00E31830BC08
:1084D000184702E008C8121F08C1002AFAD17047E5
:1084E0007047002001E001C1121F002AFBD1704734
:1084F0001CB506490120C8600549487003206A463A
:1085000010708968684688471CBD00000020004044
:108510008420002004490020487004490122CA60D8
:108520004A60034908607047842000200020004012
:1085300000250040F7B582B0002605461670007889
:108540001446002805D02846039902F021FB0600B6
:1085500008D1A87800281ED02078039F001D1F286E
:1085600002D90C2005B0F0BD684679DF0028F9D1AA
:1085700021780322481C20707A5421781922481C43
:1085800020707A542078C1196846008803F0D0F929
:10859000217840182070E8780223002810D0207835
:1085A000039A411C2170135420780399471C01221F
:1085B00027700A542078EA78471C039927700A54D8
:1085C0006868002815D00021415620788C46024664
:1085D000C01C03991F28C4D8501C20708B542278CB
:1085E0000A23501C20708B5420786246431C237051
:1085F0000A542889002809D028460094062202211E
:108600000830039B03F012FA0600ABD1288A002839
:1086100009D028460094072203211030039B03F061
:1086200005FA06009ED1288B002809D02846009420
:10863000152214211830039B03F0F8F9060091D19C
:10864000286A002805D02246039901F0F1F80600B7
:1086500088D1686A002805D02246039902F066FA9C
:10866000060084D12C20405D002806D022462846F2
:10867000039902F0F7FE0600C7D1304672E710B545
:1086800001220221002000F0A5FD002801D00728CA
:1086900012D107220221012000F09CFD002801D008
:1086A000072809D100210A22084600F093FD00287E
:1086B00001D0072800D1002010BD00000448426806
:1086C0000121C9050B46934383600A40C26070478D
:1086D0000005005070B50024064D06E06968E00012
:1086E000085C012102F0C0FA641C28788442F5D3AA
:1086F000002070BDB4200020F8B515460C46064693
:10870000052A01D20720F8BD02F07CFB002803D126
:1087100002F04EFB0028F6D1114900204E600C708B
:1087200008618D6048610F4D0DE0E00029688019F7
:10873000009181786A46517000780B4A694602F0D0
:10874000E3FA0028DFD12046641EE4B20028ECD111
:108750000348064A00210C3000F042F8F8BD000042
:10876000B420002090BB01000DA60100F599010086
:10877000BFF34F8F03490248C860BFF34F8FFEE736
:108780000400FA0500ED00E0014B1B6818470000EB
:10879000CC26002038B50C46A2680C235A43064B61
:1087A00009789D58054A126A009202462046083010
:1087B0002369A84738BD0000082800209020002029
:1087C00010B5064914230A785A435118091DFFF7BA
:1087D000E1FF042002F09EFE10BD00003C270020B7
:1087E00070B5114CA568002D06D0002A06D00028CF
:1087F00004D00023247809E0082070BD072070BD54
:1088000024265E43AE5D002E04D05B1CA342F7DB42
:10881000042070BD242401265C432E556419617028
:10882000A2610360002070BDCC200020FFB5980736
:10883000002481B01E4615460F4600280BD1002E9D
:1088400009D002F0EDFD22490A9888610F70324686
:1088500000208E6008E0072005B0F0BD24234343CC
:10886000D4549B181C75401CB842F7DB24204743A6
:10887000BB19032048700F461846CB6019461830C4
:10888000002218232E465E43D3005B181C705C70D8
:108890009D7058603018521C032AF5DB0020C0433D
:1088A0003861BC70FC7001240A482405046003216F
:1088B0001420FFF72DFD08480460084C0198A060C3
:1088C00003211120FFF724FD606878610020C3E7D1
:1088D000CC20002080E200E000E100E00015014033
:1088E000FEB504461D48174682680D46002A0CD086
:1088F00001788C4201D2052D01D20720FEBD214610
:1089000024235943535C012B01D00820FEBD881855
:10891000407801281DD0002603F04CF8C0000F4914
:108920000190C9684018694603F06EF8002812D01B
:10893000012101700A49446049680830E2C00749D2
:108940000198C96841180098487002F03FFF002064
:10895000FEBD2E46E0E70420FEBD0000CC20002036
:1089600000150140F8B5144D0446A868002809D048
:1089700029788C4201D30720F8BD24216143405C53
:10898000012801D00820F8BD03F014F8C600E868FB
:108990006946301803F038F800280AD00221017027
:1089A0004460E86831180098487002F00FFF00201A
:1089B000F8BD0420F8BD0000CC20002070B50C46A6
:1089C00092B000216A46117007251171002809D064
:1089D000C17849070CD502A9FFF7ACFD002808D1E2
:1089E00002AE00E00026002C0ED0E078002802D075
:1089F000284612B070BD01AA0AA92046FFF79AFDC9
:108A00000028F6D10AAA00E000226846037901781E
:108A1000304672DFEDE7000070B50D46049916464A
:108A2000040042D0002E40D0424800224271C36070
:108A30000161242231464048FFF7A2FB00F0D0F844
:108A40003D493431084610380160203181603021C1
:108A50005438FFF7AEFB3848217830380170A178E0
:108A60008170E178C1706178417062692169426109
:108A70000161E268A168C26081600146E369A269A0
:108A8000CB618A61616A002919D00146A43102468E
:108A9000B03241628A60636A1B880B80616A436AF4
:108AA000898899800021436A06E00E2070BD666ABD
:108AB000B668765C5654491C9E888E42F7D8A16AE7
:108AC00000291CD01C4AAC3211460C398A608162E4
:108AD000A36A9B888B80A16A836A09881980002118
:108AE000836A04E0A66AB668765C5654491C9E8880
:108AF0008E42F7D82C210A5D0F4910390A73216A7A
:108B0000002909D00B4914310162226A52884A8037
:108B1000216A026A098811806168002904D0054928
:108B2000891D416061684160034829463038FFF77C
:108B300045FF70BD34200020B824002010B5028805
:108B40001A4C102A17D00021112A17D0192A11D136
:108B5000807900280ED1607901281BD002281FD00F
:108B600003281FD0042805D12171E2680846002A95
:108B700000D0904710BD8088208110BD6170808832
:108B800021898842F9D1012005E021690029F4D02A
:108B9000884710BD022000F04BF80028F5D110BD29
:108BA0000320F8E7032020710420F4E7342000209C
:108BB00010B5022801D003280ED1084C20780028D7
:108BC0000AD000202070607900F032F8002803D02D
:108BD0002169002900D0884710BD00003420002002
:108BE00010B507210148FFF7E4FA10BD4C20002022
:108BF00010B50D480078012814D10C4C607800287D
:108C000010D16079002802D074DF00280BD1012038
:108C10006070607900F00CF8002803D02169002909
:108C200000D08847002010BDB82400203420002048
:108C3000F0B5754C87B06071002606A8069602F064
:108C4000ABF90127082806D000286FD10698002824
:108C500002D02770D4E00696FFF7C2FF6B4D68780C
:108C6000002802D06079012805D0A87800280AD011
:108C70006079022807D1E168002903D0E770082055
:108C8000884700E0E6706079012808D168780028FC
:108C900009D05D48193002F03BF9002803D0607913
:108CA000022802D00CE002206071A878002805D0CC
:108CB0005548193002F02CF9002801D103206071C9
:108CC000287B002804D16079032801D10420607139
:108CD000287E002804D16079042801D166712671AC
:108CE000E16800290AD06079032801D0042805D161
:108CF0002878002802D06078002818D0A6701821A3
:108D00006846FFF756FA68460670019606720396A3
:108D1000607901280FD0022816D03C4E2436374601
:108D2000543F03281CD004285ED13BE069E0A770C3
:108D300007208847E3E734481830019068460770F9
:108D400046820682277152E02F481830019068460B
:108D5000077029894182A98801820220207146E09A
:108D6000A88A69464882288A08822848243002F066
:108D7000C1FE002805D02878002802D0607800289D
:108D800001D003202FE002206946087204200396D8
:108D9000F8701E4800213038FFF710FE002830D14F
:108DA000052020E0A88B69460882288C4882174855
:108DB000243002F09FFE002805D02878002802D039
:108DC0006078002801D004200DE002206946087276
:108DD00004200396F8700D4800213038FFF7EEFDAF
:108DE00000280ED1062020716079002803D0684643
:108DF00073DF002805D1E168002901D02079884778
:108E0000002007B0F0BD000034200020B82400206E
:108E100070B5054601461C220F48FFF7B1F90F4C0B
:108E2000002626702968002907D00822A018FFF71D
:108E3000A7F9204608307ADF02E0084808307BDFD7
:108E4000002808D1401E608004486670044A002152
:108E5000001DFFF7C5FC70BD8425002054200020B4
:108E600051B90100F8B5224C028800271F4DE68950
:108E7000102A16D029464968112A21D0122A2DD04D
:108E8000502A1CD1C288801DB24218D1028B022AFE
:108E900015D1C27E837E10021843C007C00F0CD1CB
:108EA00012E081886980014610480822163110308E
:108EB000FFF766F96F70002E01D100F001FDF8BDDB
:108EC0000020C04368806F700846FFF74BFD002804
:108ED000F5D0A1690029F2D08847F8BD811D03486B
:108EE00008221030FFF74CF9E7E70000542000207B
:108EF0008425002070B5044600F0AEFE2046FFF742
:108F0000B1FF204600F09EF820880C4D102802D0BA
:108F100011280ED10AE0072000F080F9002803D0C4
:108F200000221146FFF724FCA08801E00020C04386
:108F300068802046FFF702FE70BD00000020002080
:108F40001CB5002348221549082002F017FB002811
:108F500003D000221146FFF70BFC00200090019087
:108F6000012069460870684660DF002803D00022AF
:108F70001146FFF7FDFB0A4802F0F6FA002803D07D
:108F800000221146FFF7F4FB064802F00FFB002811
:108F900003D000221146FFF7EBFB1CBD3424002058
:108FA000F58E0100A1B701001CB5044681786A4620
:108FB0000C4802F005F8002812D160781C214843C3
:108FC00009491C2340181A46694602F0BFF80648B2
:108FD00006494C30807A80000A58214668469047FE
:108FE0001CBD00007C2000208026002048BB010022
:108FF0007CB5134E00250C463060002918D0694618
:10900000002000F0B3F8002819D101A9012000F0D8
:10901000ADF8002813D1684601790020002901D05D
:10902000022004E069460978002900D00B20207056
:109030007068002802D1FFF722FB054628467CBD58
:109040002820002010B51C4C0188606810290DD024
:1090500011290AD1401E606007D1FFF710FB0028DC
:1090600003D02168002900D0884710BD00281ED1F8
:1090700000210122084600F0ADF8002801D00728A1
:1090800011D107220221012000F0A4F8002801D00C
:10909000072808D104220221002000F09BF80028B4
:1090A00005D0072803D02168002900D088476068D0
:1090B000401C606010BD00002820002010B5032077
:1090C00000F002FA002801D0062800D1002010BDCF
:1090D000F8B507460024224802E0641C042C19D28B
:1090E000A2008258BA42F8D1042C13D21D4E1E4D54
:1090F000F069002928D001290DD002290AD1600089
:10910000201840194578002D04D0F168002901D0BD
:1091100028468847F8BD610062182946AD5C5118A1
:1091200000914978002909D071680A2251430D4AFB
:10913000521CFFF7D5FB002800D17770009881788A
:10914000084810300155DEE7FFF70CFC05486100C8
:10915000611810304919005D8D78A842D3D0F8BD50
:1091600004BB0100082000207C24002004280CD22D
:10917000074A1269074B80001B5C0120984090430E
:1091800000D001200870002070470020FAE700009E
:109190000005005004BB010010B5042806D00728C4
:1091A00010D00A2801D102F09BF910BD0848132104
:1091B000408876DF08E00028F7D000221146FFF74C
:1091C000D7FA10BDFFF714FD0828F4D110BD000038
:1091D0000020002070B50023042811D24400041997
:1091E0000D4D012A02D101290DD00022460080191F
:1091F000094E801900290CD0012906D0022906D079
:109200000723184670BD0D30C2B22A55F9E74270E7
:10921000F7E78270F5E700007C24002010B5054ACE
:109220000146127A0020D20702D0084600F054F816
:1092300010BD00000820002070B50E4620490546EC
:109240004E608D600020CA60A9071ED5002401224F
:1092500011462046FFF7BEFF641C042C02D20028F2
:10926000F5D012E0002810D1720804211548FFF74C
:1092700043FA002809D1FFF72DFA002805D110483C
:10928000114A00211C30FFF7ABFAE90706D00F2284
:109290000E4952058A600023CB608A6100280DD1F7
:1092A00007480B4A00211430FFF79AFA002805D12D
:1092B0000348084A01211830FFF792FA70BD0000F8
:1092C0000820002014BB0100059501000005005096
:1092D00005A80100BD860100FEB5784906464F6825
:1092E0004B690093BB00FB1800200122019352053B
:1092F0000546734C3300FFF7DFF8180D1313374999
:10930000596C828E858E97A1A5A5A5A5A5C3C8CDAC
:10931000D4DADA120B225205A260E5600D70FEBDB0
:1093200005208005A060E56060680F235B0558405C
:10933000800209D5A260E560022E02D1E120C000C2
:109340000AE07D20400107E0E260A560022E01D125
:10935000C82001E0FF2091300E706421FEF7E6FE88
:1093600078430022014646E005208005A060E560C4
:1093700060680F235B055840800204D5A260E56059
:1093800019204001E8E7E260A560E1E705208005DB
:10939000A060E56060680F235B055840800202D53D
:1093A000A260E560CDE7E260A560D3E70520800517
:1093B000A060E56060680F235B055840800202D51D
:1093C000A260E56001E0E260A5600E707900002215
:1093D00011E005208005A060E56060680F235B0553
:1093E0005840800202D5A260E56001E0E260A5601D
:1093F0000E70002239460098FFF772FAFEBD052371
:109400009B0544E06068012189050A468243A26009
:109410000840E06010E061680120800502468A4350
:10942000A2600140E160E4E7616801208005024636
:109430008A43A2600140E1600199C8E70F21490514
:10944000E1601BE00F468869FFF78CFA11218A1B47
:109450001C4E01D0002802D0A660E560FEBD012AA6
:109460000BD91046C82148436421FEF75FFE796896
:1094700000224143B869FFF733FAE660A560FEBDFC
:109480000F225205A260E56015E007239B05A3604B
:10949000E5600EE00D225205A260E5600122920512
:1094A00007E00322D205A260E560921001E00F22DE
:1094B0005205E260A5600E70FEBD0000082000208D
:1094C0000005005000008000F0B500210B4C0C4D51
:1094D00003273F048A00A2589200561932680123DC
:1094E0008B40034000D00323BA431B041343336073
:1094F000491C0429EED30020F0BD000004BB01008C
:109500000007005010B500780221FFF7E1FD10BD03
:109510000022D243830004490428CA5002D3081809
:109520004030027070470000F0260020F0B50025A2
:10953000ED430023002A01D0042601E0042309267C
:109540000B4C04E09F00E7597F1C04D05B1CB34226
:10955000F8D32846F0BD26185DB2203635719E003E
:10956000A151002AF5D1E11840310870F1E700005F
:10957000F0260020024909182420085670470000F0
:10958000F0260020F8B53E481422017851430C180B
:10959000E0680C2148433A492769CC3140180589D5
:1095A00041890091241D466801F09CFD0146384622
:1095B000FEF7BCFD002932D000200099A2884D435F
:1095C0006188AE198918CD1900222E4900280A6138
:1095D00009D001F087FD6188884222D0B54202D1CE
:1095E000A08800281DD0A06803281AD001F07AFDB9
:1095F000A188CA1901461046FEF798FD214C88083B
:10960000E06001F06FFD01462846FEF78FFD00295E
:1096100011D00020B5422FD000280ED02CE0012020
:10962000CBE701F05FFD01463846FEF77FFD1549A7
:109630004861032021E00120ECE7ADB2B7B201F0B0
:1096400051FD01463846FEF771FD064601F04AFD20
:1096500001462846FEF76AFD864201D1781B09E0E3
:1096600001F040FD064601F03DFD01462846FEF7AB
:109670005DFD701A80082061022001F04BFFF8BDEB
:109680003C2700209020002010B5074814220178C4
:10969000514308180079042802D000F059F810BD91
:1096A000012001F037FF10BD3C27002010B50B480A
:1096B0001422017851430818094AC18811620079BF
:1096C000012806D0032801D0042801D1FFF75AFF52
:1096D00010BD012001F01EFF10BD00003C2700203E
:1096E0009020002014225043054A00218018017167
:1096F000C18002220161C2604161018170470000A6
:109700003C270020F8B5104C069E65780A2D19D02C
:1097100027787D190A2D00D30A3D14277D432D1982
:1097200028716A6103C92961E860EB802E81607845
:10973000401C607005480078002801D1FFF7B6FF93
:109740000020F8BD0420F8BD3C2700209020002018
:1097500010B50D4C14212078484301190020091D33
:10976000FFF718F82078FFF7BDFF6078401E6070A3
:109770002078401CC0B220700A2801D1002020703F
:10978000002001F0C7FE10BD3C270020F8B522489C
:1097900001694A1C3DD024225143826889184E68D1
:1097A0001E494C6847690079E11B0D022D0AED1C2A
:1097B000002814D101201A4A00045060184A403A87
:1097C0005060184940000860174908601749012097
:1097D00008602F20FEF77EFC0F4901200871B5427A
:1097E00000D23546E81900020C49000A40310860F1
:1097F0000A494968001B091B0902090A0002000AFC
:10980000C91C814204D901200649400480390860FE
:10981000F8BD01F005FEF8BDCC2000200015014088
:109820004013014080E200E000E100E00010014050
:10983000F8B50D4611780646881D14461F2801D933
:109840000C20F8BD33880720062BFAD31927FF0117
:10985000BB4202D9164A9342F3D17288062AF0D34A
:10986000BA4202D9124FBA42EBD1114FBB4203D0D8
:10987000BA4201D09342E4D8481C052220706A54B1
:1098800020781222411C21702A54207841193088F6
:1098900002F04EF821784018C0B22070411970884B
:1098A00002F046F82178401820700020F8BD000032
:1098B000FFFF000010B500221146FEF759FF10BD52
:1098C000F8B5164800F044FF144D0026103D144C26
:1098D000002807D0616900291BD001206A4610705A
:1098E000684615E02878002805D06169002910D065
:1098F000684606700CE0687800280CD0A168002249
:109900006868FEF7EDFF002803D0A169002900D0A8
:1099100088472E70F8BD6168F1E7000064200020E0
:109920008425002070B5094B04469E7A0820002546
:109930000E4207D00648844202D01889A04202D1C4
:109940000020156070BD052070BD0000C0260020FD
:10995000FFFF00000C214843064910B501224018C2
:109960008272911E0181FF21C1720721FEF721FC45
:1099700010BD0000C026002010B5134C2079000750
:109980001FD46069401C6061E068002801D0042099
:1099900004E000F00FFF002803D0022001F0F6FEE3
:1099A00010BD2069002809D06068C10701D00320DC
:1099B000F4E70121084360600020EFE7FFF764FE51
:1099C00010BD01F0D7FE10BD9020002010B5084852
:1099D00041680A0708D48A0702D501221143416071
:1099E000022001F0D3FE10BD01F0C4FE10BD000046
:1099F00090200020F8B500260124154D23E0696869
:109A0000F0004718387821466A698140114218D021
:109A10008A436A6101F0C2F93A7821462B69914084
:109A200019400346934099420BD17978012901D01E
:109A3000012100E000217B684140002B01D010464D
:109A40009847761CF6B228788642D8D3F8BD000035
:109A5000B4200020FEB50E46044681786A462348AD
:109A600001F0AEFA002826D160780C21204F48433F
:109A7000C019807A40061FD4022E1DD0012E1DD0A1
:109A80001C4DA0781C2148431B49002341181C226F
:109A90006846A847002813D0022E0CD020780C214D
:109AA000484313490C314018807A144980000A5801
:109AB000214668469047FEBD114DE2E7114DE0E7B3
:109AC000022EF8D060780C214843C019817ABF2259
:109AD0001140817260781C21484305494039411882
:109AE0001C231A466846A847D8E700007C200020BF
:109AF000C0260020F9B60100BC25002038BB0100BB
:109B00008DB30100ADB2010070B50546114A12488F
:109B100000241C2363431B189B7EFF2B04D0641C72
:109B2000072CF6D3104670BD0A78022A09D01C22F1
:109B300062431018FD22827607221030FEF720FBC8
:109B400004E01C2161430818FE2181762C7000225C
:109B5000E8E7000043800000BC250020F7B505259C
:109B60000F4F06460024002E0AD01C206043C01967
:109B7000072231461030FEF727FB002807D00AE005
:109B80001C206043C019018B0298814203D10198C7
:109B90000025046002E0641C072CE4D32846FEBDC7
:109BA000BC2500207CB5054681B26A46074801F015
:109BB00007FA040008D17421684601F02DFA040068
:109BC00002D1284601F0B0F920467CBD7C2000205F
:109BD00010B5100003D000221146FEF7C9FD002089
:109BE00010BD00001FB56946087301F081FA002816
:109BF00003D000221146FEF7BBFD03A800F026FAB1
:109C0000002803D000221146FEF7B2FD01A805216D
:109C10000130FEF7CEFA6946487901221043E1216E
:109C20000840DF210C3008406946487107208871E0
:109C30001020C871064800900A71064800F02EFBFB
:109C4000002803D000221146FEF792FD1FBD000040
:109C5000D19B010000200020F0B5054693B0002004
:109C60000290FF24ED480E94007800284BD0EC4F72
:109C70003868002847D001A800F0DAF9002803D09E
:109C800000221146FEF774FD281D05902A20694622
:109C90000883FF20002688710E710396E04C288807
:109CA0000C3C10280ED0A88803AA0221FFF73AFE28
:109CB000002807D103980C2141430919CA7A694643
:109CC0008A7148712888132217287CD00FDC10284D
:109CD0001BD0112853D0132876D0142813D1039801
:109CE0000C2148430019C07AFF2871D08DE0CD497E
:109CF00018286BD01C286AD0522804D1B87A80006A
:109D0000095801A8884713B0F0BDC74F03AA012125
:109D10003846FFF707FE0028F5D103990C20484389
:109D200002220019827211236A4613745171A988A4
:109D300001810722A91DFEF723FA287DC10707D05C
:109D40004108B6480830405CFF2808D00E9006E075
:109D50003A460EA9A81DFFF701FF00280ED103996E
:109D60000C22514309190E98C8728A7A08231A43A3
:109D70008A726946887101A8FFF716F939E10398DC
:109D80000C2148430119887AFD221040887201078E
:109D900006D5C0090DD0002101A8FFF75BFE08E041
:109DA00068468079FF2804D001F0BEF8FF2069469C
:109DB000887103980C2250431021001981721220DF
:109DC0006946087415E17FE030E001E0D5E00EE17E
:109DD000EA890EA90020FFF7C1FE00280ED10398E2
:109DE0000C22504300190E99C172837A0822134342
:109DF00083726846817101A8FFF7D6F803980C2199
:109E000048430019C07AFF2806D003981C21484314
:109E100083494C394018029003981C2148438349D8
:109E20004218A8880023029982DF6CE76846027412
:109E3000039B0C2058430119887A0422104388722E
:109E4000C87AFF2830D0162069460874242043437E
:109E500073481A21303818180830FEF7AAF9039809
:109E60000C2148430019817A4022114381720399E1
:109E70000C2200204A430A901219D27A1C235A431A
:109E80006A4B0C90D2180B921C2251431A46C432D2
:109E900089180791089009903A1DA88807AB0021FE
:109EA0007FDF0028C1D1A4E00EA8FFF72DFE002817
:109EB00001D00646DBE769460E98887103990C22AB
:109EC00051430919C872D2E7787A40084000787285
:109ED000039A0C209446424311198B7AFB200340CD
:109EE0008B7214206F463874A879002804D0C87A81
:109EF000FFF758FEAE797CE0E879400779D5B8796C
:109F0000FF2876D008273B438B72EB7A9B0708D556
:109F10001C2503466B43454D5B199D7E6D086D0006
:109F20009D76CB7AFF2B64D0A25C022A10D01C2233
:109F300050433E4D072240191030FEF721F9684684
:109F400080791C2148434019817EFD2211400EE09A
:109F500061461C225143324A4C3A89184A8A1C21D4
:109F60004843324940180283817E4908490081767E
:109F7000012101A8FFF76EFD3BE0A8790209012A43
:109F800023D10007000F01281FD103980C22424360
:109F90001219927A120718D52421484320493039E2
:109FA00040181A210830FEF704F916206946087493
:109FB00003980C2148430119887A60221043887263
:109FC000787A0221084378720FE003980C225043FC
:109FD0000019827A80231A43827215206A4610740F
:109FE000B87A8000095801A88847002601E0684631
:109FF0000274324604A901A8FEF7C6FB6846007C3D
:10A00000122800D07FE603980C2141430919897A70
:10A010000129F7D0FFF79EFC75E600006C200020B8
:10A02000CC26002058BB0100FFFF0000BC2500200B
:10A03000002806D0FF21017041708170C17000209E
:10A0400070470148704700000E800000F0B585B0F1
:10A05000040036D0294800250560457285722846DF
:10A06000FFF778FC254824213038FEF7A2F80026B7
:10A07000FF27304600F058FF21488755761C072EF1
:10A08000F7D37421684681800721C1801D481C498F
:10A0900000900831684601F0AFF800280FD1184E43
:10A0A0000120083E3070207800280CD0694688884E
:10A0B000C988484381B23046103000F0ADFF05B08A
:10A0C000F0BD1148FBE7114F00240D48A1B202AAD0
:10A0D000083000F075FF002809D11C206043C0192A
:10A0E00000231C2202A901F031F8002801D03570AC
:10A0F000E5E7641C072CE8D3E1E70000CC2600204C
:10A100007420002011A101000E800000BC25002059
:10A11000FFB55D488FB00068189F1E46002875D0B7
:10A12000742F73D86846FFF783FF002803D00022FE
:10A130001146FEF71DFB0024684604700471254695
:10A1400005970696A9B20DAA504800F039FF0028DD
:10A1500006D108220DA90F98FEF736F8002817D06F
:10A160006D1C072DEED368468578FF2D4ED01098D4
:10A17000032810D046481C21301AFDF7D7FF0127CD
:10A1800007281ED204A80290119800280BD011E0D5
:10A1900068468570E7E7742F03D040206946087150
:10A1A0006CE02020FAE738463849A8401039496861
:10A1B000084261D0284601F0C1FB202069460871A1
:10A1C0004AE031481C214C38301AFDF7AFFF002817
:10A1D0001DD02D4824213038301AFDF7A7FF01008B
:10A1E0002C482CD040216A4611712B498E4245D013
:10A1F000274AA9001C3A5158B1423DD104A9029105
:10A20000C07A854228D16846447025E034E004A82D
:10A21000029020216846017144701B480A940C305A
:10A220000B9058380790684680781C21484318499D
:10A230004018089007A80690182005900CE03022DE
:10A2400069460A714C70CF70807A800704D4114837
:10A2500024212438FDF7ADFF1098694602280879BB
:10A2600010D0022108436946087104A8029001A990
:10A270006846119AFEF788FA13B0F0BD694608796E
:10A280000321EFE73843EFE7CC2600207C200020B5
:10A29000BC250020C026002034BB010070B5064656
:10A2A00018480D46007800280ED01749002E0ED011
:10A2B000002D0CD02868002809D0144C21680029F2
:10A2C00007D011480A3870BD0F48801F70BD08467E
:10A2D00070BD20600522691D201DFDF751FF287902
:10A2E000A072207A0221400840000843FB2210405F
:10A2F0002072E0790123184308431040E0710020E8
:10A30000307070BD6C2000200E800000CC26002034
:10A3100010B50E4900238A78CC78A24212D0521C84
:10A32000D2B28A70022A00D18B708A78074B9200D1
:10A330001C339A580260486910180002000A4861EC
:10A34000012010BD0360002010BD0000CC200020C3
:10A35000F7B5144C0025A76823691EE02421594352
:10A36000C9194E68864202D9301A486017E0801B2E
:10A37000751900264E600E750E699C460B6AB6462E
:10A38000002E0AD0019E76193602360A8E60764675
:10A39000CE6016680E6261461160591CDED12361E1
:10A3A000FEBD0000CC20002010B5002803D01128ED
:10A3B00002D0FEF705FA10BD024808224168114399
:10A3C000416010BD9020002010B51C4C2178204623
:10A3D0004068012906D0022929D0032912D100079B
:10A3E00017D513E0000711D4154814220178514302
:10A3F0000818C188A28B891A0904090CC18002D0EF
:10A4000001F07CF910BDFFF7A3F910BD00F082FB4D
:10A4100010BD6069401C606100F0CCF9002803D0D9
:10A42000207801F077F810BDFFF72EF910BD6078A5
:10A43000044980000858804710BD0000902000208B
:10A440003C2700207CBB010010B528DFFFF7ACFFE4
:10A4500010BD10B529DFFFF7A7FF10BD0020704722
:10A460000020704700207047F8B506464078242148
:10A4700004464C4324490C2250436118224A0025CB
:10A480004B6824328018AE462F469C46002B0CD0D9
:10A49000827A1346D20908D05A0606D40D461A4AC3
:10A4A000614689B2175908358E46174C0089243405
:10A4B0003B4672462946A9DF0B2819D0002800D058
:10A4C0001248012F13D170780C21484300190089DC
:10A4D0000F4AA7DF00280AD00E49884212D0082868
:10A4E00010D0891C88420DD011280BD00020F8BD57
:10A4F00070780C21484301230019008972462946CF
:10A50000A9DFE0E70148F8BD9C260020418000005B
:10A51000FFFF00000230000070B50C460146607875
:10A520002422084D50434019382300F00FFE002824
:10A5300007D161782422514349194A68521C00D13D
:10A540004A6070BD9C260020F3B589B00D461A20E4
:10A550006946888368780C2103274843224E3B468E
:10A560008019008907AA6946AADF002838D16878CF
:10A5700024214843741A001969468A8B0830FDF774
:10A5800023FE0028687807D0242148430119496830
:10A5900000290DD0154E0CE00C2141438919897A10
:10A5A00089071DD4242148430019FDF702FE17E056
:10A5B0000F4E27506846828B687824214843001943
:10A5C000426068784843001969460830FDF7D8FDB5
:10A5D0006878242148430119382324220998B04778
:10A5E00000200BB0F0BD0000C02600208DB301009C
:10A5F000ADB2010010B5FFF737FF10BD10B5FFF782
:10A600008BFF10BD10B5FFF79FFF10BD70B506465C
:10A61000104C0125B540E068FEF7A4F900280CD1E4
:10A620006169294207D1304600F0B8FB0028206953
:10A6300004D0284303E0A943616170BDA8432061B1
:10A640006069002228436061A168E068FEF748F96C
:10A6500070BD0000B420002070B51B4C20790007AD
:10A660002ED41A481422017851430D182E6900F097
:10A6700039FD0146E8882A89761E80188019FDF781
:10A6800055FD21690025002909D06169814206D163
:10A69000E560606801210843606000200AE000F086
:10A6A00089F8002802D00220E56003E02069002834
:10A6B00003D0032001F06AF870BDFEF7E5FF70BD1E
:10A6C00001F058F870BD0000902000203C270020C9
:10A6D000F8B51E4C2078002837D02069002807D014
:10A6E0000026E068002805D00025002E04D013E0E5
:10A6F0000126F6E70125F8E7684651DF052806D070
:10A70000002806D000221146FEF732F804E00126A8
:10A7100002E0216900988847002D12D160886946BF
:10A720000880A06861DF052806D0002806D0002236
:10A730001146FEF71DF804E0012502E0E168A0687B
:10A740008847002ED8D0002DCFD0F8BDF0200020B3
:10A75000418805480288914204D34088814201D84B
:10A7600001207047002070475C2000201048018CB9
:10A77000C9B2012917D1818C090714D1018D0906AD
:10A780000A0F03D1828D1206120F0ED0090F012974
:10A7900003D1828D1206120F07D0032903D1808DB9
:10A7A0000006000F01D00020704701207047000014
:10A7B000C00F00F070B50E481422017851430C18F8
:10A7C000256900F08FFC0146E08822896D1E801803
:10A7D0004019FDF7ABFC07494A69824206D3824221
:10A7E00002D10869002801D0002070BD012070BD91
:10A7F0003C27002090200020800701D000207047D7
:10A800000120704710B50448017AC90702D00078CA
:10A81000FEF762FD10BD000008200020F8B52348B7
:10A8200001690091457833E02048E900C0680E18BE
:10A8300034782AE0182060437168641C0818B178E5
:10A84000E4B2A14200D100240178022902D00329F8
:10A850001BD113E0154A40682421926841438F18A8
:10A86000397D002911D000F0EBFF002038750CE095
:10A8700024277843C0180275006A03E00B490022C0
:10A880008B680869471CF3D108617078A042D1D168
:10A8900028466D1EEDB20028C6D104480169009813
:10A8A000814201D00120F8BD0020F8BDCC2000205D
:10A8B000F8B50446384800270169009146785CE005
:10A8C0003548F100C2688D1851E0601C07D0324A4B
:10A8D00024209268604321468018046A24E0287886
:10A8E000182141436A68401CC0B252182870A978E8
:10A8F000884200D12F70284B516824209B68484320
:10A90000C0181378012B34D1037D002B31D193680B
:10A910008360D368C360136903615269C2611E4AD0
:10A920005279002A00D087601B4B82685B6996468B
:10A930009C46D31A1A02194B120A9A4202D2C368D1
:10A94000D21808E0724663469A1A1202C368120AC5
:10A95000934202D99A1A426000E047608760012260
:10A96000C7600275921E0262084600F037FF601C45
:10A97000ABD1287869788842A7D13046761EF6B2E6
:10A9800000289DD1044801690098814201D001202E
:10A99000F8BD0020F8BD0000CC200020FFFF7F00A4
:10A9A000002496B0504B0522092120460094FDF763
:10A9B0003DFF002803D000221146FDF7D9FE4B4A87
:10A9C0004B490320FEF738FC002803D00022114633
:10A9D000FDF7CEFE69460020FEF70AFB002803D0F3
:10A9E00000221146FDF7C4FE68460078022871D0A7
:10A9F000002168460171FEF7A3FA68460079FFF767
:10AA0000F1F8012001461031684601730F2239A187
:10AA100003A87CDF002803D000221146FDF7A8FE22
:10AA200000945021684601940180A0214180FF21BB
:10AA300084809131C1807ADF002803D00022114642
:10AA4000FDF796FE302101A8FDF7B3FB0221684611
:10AA50000171012585710621C17185822948069001
:10AA600024210DA8FDF7A5FB10A80570FF202D30AF
:10AA70001190B4201290244B0DAA0021009401A83B
:10AA8000FDF7CAFF002803D000221146FDF770FE33
:10AA90001C216846FDF78DFB0520C00301900F20A7
:10AAA000000402900094032168460173C481047479
:10AAB00016480590164806906846FEF7A9F9002842
:10AAC00003D000221146FDF753FE0320FEF7B0F835
:10AAD00003E0FFE701218CE748DF0028FCD00022DB
:10AAE0001146FDF745FEF7E704210020999101008A
:10AAF000CD0C00004E6F726469635F54656D706CBD
:10AB0000617465000420002049AE01006DAE0100B3
:10AB1000B598010010B5044808224168914341608E
:10AB2000007800F0F7FC10BD9020002070B50546BD
:10AB300000790E46801C1446C0B21178821C8A1817
:10AB40001F2A01D90C2070BD0A46491C2170401CE7
:10AB5000B0542078FF22411C217032542078811992
:10AB6000288800F0E5FE21784018C0B22070AA883D
:10AB7000002A09D0A968002908D08019FDF700FB38
:10AB80002078297940182070002070BD072070BD02
:10AB9000F8B514780746A01C15460E461F2803D8A2
:10ABA0007878801C1F2801D90C20F8BD1D20001BBF
:10ABB00080B26946864608803019801C7DDF0028F7
:10ABC000F3D13878022805D168460088704501D84D
:10ABD000092107E078780821002801D0704501D9C3
:10ABE00068460088421C3255641CE2B2B154297890
:10ABF000801C081828700020F8BD00207047002035
:10AC000070470020704700008207D30EFF229A4051
:10AC10008907090E10B5994000280BDA03071B0FAE
:10AC2000083B9C080C4BA400E318DC6994430C43DC
:10AC3000DC6107E08408094BA400E418236893430F
:10AC40000B432360C106C90E0120884004490860F7
:10AC50000449086010BD000000ED00E000E400E0E1
:10AC600080E200E000E100E0F3B581B00F4601981A
:10AC700000F07AF9012400281E4E019817D0FEF743
:10AC800079FC8019403000788009032802D001281F
:10AC900006D007E01848006901998C40204201D194
:10ACA000022100E00321019800F0B4F8FEBD00F09D
:10ACB00067F90028FAD00198FEF75CFC0546810090
:10ACC000C81D0E4AF93089180A6980B222430A6108
:10ACD0000B49401800210160002FE7D00198FEF7D2
:10ACE00049FC800030580028E0D00648AC40446061
:10ACF000FEBD0000F0260020000500500065004069
:10AD00000060004000630040F8B5204F0D46044647
:10AD10003819242141560026C8171346401C01D07B
:10AD2000082630E0EA7819462046FEF7FFFB411C72
:10AD300028D0174BAA78A100C918002A03D00A68A6
:10AD400002239A4301E06A7892000A60E9780029B8
:10AD500010D082000F482978101802690E4B1A4053
:10AD60000261E206D20C8907890B0A4301690A4392
:10AD7000026108E0381840302A78017892011143C6
:10AD8000017000E004263046F8BD0000F0260020E7
:10AD90000007005000650040FFE0FCFF034909691F
:10ADA000C140C807C00F00D0012070470005005007
:10ADB00070B5124D687A002801D0082070BD0F4987
:10ADC00000204039421E0B182033401CC0B21A71BB
:10ADD0002028F8D300242046FEF79AFB641CE4B236
:10ADE000092CF8D301210620FFF70EFF01200449AA
:10ADF000C007486001206872002070BD3027002025
:10AE0000006300400248407A002800D001207047CB
:10AE100030270020820006481018026803231B0414
:10AE20009A430260026809040A4302607047000006
:10AE300000070050034940180068012800D0002096
:10AE4000704700000060004010B500280BD00328B8
:10AE500008D10220FEF7E2F9002803D000221146B3
:10AE6000FDF786FC10BD00F03BFB10BD10B500786F
:10AE7000002809D105483B21408876DF002803D00F
:10AE800000221146FDF774FC10BD000000200020D8
:10AE900070B5022401221B4D1B4E1C490300FDF717
:10AEA0000BFB05040C2619200B004878012818D04C
:10AEB000022801D10320487070BD4878002802D0D4
:10AEC0000328F9D104E00420286032604A7070BD84
:10AED0004C7070BD4878012806D0022804D00328A1
:10AEE000F7D1FDF717FB70BDFDF702FB70BD487889
:10AEF0000128FBD14878022800D0B2608878E86148
:10AF0000E6E70000002500400020004084200020EB
:10AF10000021425C002A01D001207047491C06290B
:10AF2000F7D300207047000070B505461C200D497E
:10AF300068434418204611300621FDF73AF92046AF
:10AF40001021FDF736F9FF2121740020A176C043BE
:10AF50002083284600F0F2FC024A0020A9001C3A97
:10AF6000505070BDBC2500200449081824214156CA
:10AF7000042901DB0120704700207047F0260020E3
:10AF80000449081824214156042901D201207047A0
:10AF900000207047F026002007490979490701D4AD
:10AFA00008207047002804D0044949780160002037
:10AFB00070470E2070470000902000203C270020A2
:10AFC00070B5134B1B795B0701D4082070BD0028B6
:10AFD00017D0002A15D00368022B10D20C240D4D77
:10AFE0005C432E59002E0AD04668601904894589B1
:10AFF00040686143654371182818884203D80720C8
:10B0000070BD0E2070BD13600020516070BD000047
:10B010009020002008280020FEB5044626480E4651
:10B020000079400701D40820FEBD002C25D02068FF
:10B03000022836D20C21214D48432958002930D00E
:10B04000401941890289406851430918606881426A
:10B0500027D9FFF7D1FB002811D060680190216843
:10B060000C2251434F1979680091401A39890D46D5
:10B07000FDF75CF8002914D103E00E20FEBD10207E
:10B08000FEBD29463046FDF751F8002909D1002EB2
:10B0900007D0788900994543019849198019884259
:10B0A00001D90720FEBD002002460090334621460C
:10B0B0000320FEF727FBFEBD90200020082800207B
:10B0C00010B507484469601C06D000F00BF8014633
:10B0D0002046FDF72BF810BD01200007406910BD88
:10B0E0000010001001200007006980B270470000C6
:10B0F00070B5002413482546047044702846FEF7B6
:10B10000F1FA6D1C0A2DF9D30F4D6C80FFF7D8FFB3
:10B11000C61EFFF7E7FF46430A4A0020AE60CC3266
:10B120006C610C214143545089180C81401C4C81A6
:10B130000228F6D32C70AC610420EC61686000201A
:10B1400070BD00003C27002090200020FFB528485B
:10B1500081B000791F4616460C46400702D40820ED
:10B1600005B0F0BD002C1DD0019800281AD0206831
:10B17000022815D20C211F4D4843295800290FD011
:10B1800041194A89088949684243511862689142C5
:10B1900006D9002E04D0B04202D3F119814203D95E
:10B1A0000720DDE70E20DBE70198FFF725FB0028ED
:10B1B0001BD03846FFF720FB002816D06068FFF749
:10B1C0001BFB002811D060683246C1190198FCF7BA
:10B1D000D7FF009620680C2148432D5800220221F9
:10B1E0002046019BA8470020BAE71020B8E70000DE
:10B1F0009020002008280020F8B52A4D0446287920
:10B200000E46400701D40820F8BD002C20D0002EA7
:10B210001ED0206800281BD0FFF764FF0146A088DD
:10B22000814213D3102811D3E08800280ED0FFF7F5
:10B2300047FF471EFFF756FF4743E288A088A968EB
:10B2400042435218974201D3800703D00720F8BD2C
:10B250000E20F8BD6888022821D003C60C22124BAC
:10B260005043C218516021681950A0881081E088AD
:10B270005081FFF737FF0146A088E2885043401E07
:10B28000FCF76AFF441CFFF72DFF0146A8686143E5
:10B290000818A8606888401C68800020F8BD042059
:10B2A000F8BD00009020002008280020F8B50446D2
:10B2B00021481E46007915460F46400701D4082054
:10B2C000F8BD002F1CD0002C1AD02168022915D2FD
:10B2D0000C20414319484258002A0FD008184289CF
:10B2E000018940684A4310186268904206D9002DCF
:10B2F00004D0A94202D3A819884203D90720F8BD77
:10B300000E20F8BD3846FFF777FA002811D03046F6
:10B31000FFF772FA00280CD06068FFF76DFA00287A
:10B3200007D02B463A46214601200096FEF7EAF95F
:10B33000F8BD1020F8BD0000902000200828002053
:10B3400010B5114902460878002811D004280FD002
:10B35000022A16D0032A0BD10A79120711D48A695E
:10B36000521C8A61032A08D0022802D000F0D2F8C9
:10B3700010BD487800F00AFA10BD0D20FDF720FA44
:10B3800010BDFFF721F810BD90200020F8B504464D
:10B3900021481E46007915460F46400701D4082073
:10B3A000F8BD002F1CD0002C1AD02168022915D21C
:10B3B0000C20414319484258002A0FD008184289EE
:10B3C000018940684A4310186268904206D9002DEE
:10B3D00004D0A94202D3A819884203D90720F8BD96
:10B3E0000E20F8BD3846FFF707FA002811D0304686
:10B3F000FFF702FA00280CD06068FFF7FDF900287B
:10B4000007D02B463A46214604200096FEF77AF9EB
:10B41000F8BD1020F8BD0000902000200828002072
:10B4200070B501240B49600408600B494010886026
:10B43000094940398860094D6C602F20FCF74AFEAD
:10B44000AC60074D00242F206C61FCF743FE2C718B
:10B4500070BD000080E100E0401301400010014099
:10B46000CC200020F7B582B002981446806A0F46BF
:10B47000002833D0029800252030009028E0029860
:10B48000816A0C2068430E18217830794A1C22709A
:10B49000C01C785420781622411C21703A54207820
:10B4A000C119308800F044FA21784018C0B22070E9
:10B4B000B288002A09D0B16800290FD0C019FCF762
:10B4C0005FFE20783179401820706D1C0098EDB235
:10B4D000007BA842D3D8002005B0F0BD0720FBE7D1
:10B4E00010B50020FDF79AFE002803D00022114677
:10B4F000FDF73EF9FDF7E2FD002803D000221146DA
:10B50000FDF736F93CDF002803D000221146FDF795
:10B510002FF910BD10B50F490028087009D0012877
:10B5200011D0022812D0032802D14869FEF78CFFFF
:10B5300010BD00208861C861074840780028F7D016
:10B54000FEF7B4F810BD00F0D9F810BD00F038F8DF
:10B5500010BD0000902000203C27002010B50846B8
:10B560001146C046C04610BD002803D00249C8603D
:10B57000002070470E207047F020002070B5002991
:10B5800001D08C0701D0072070BD064C0125A160B9
:10B5900062800549636010DF0028F5D12570162010
:10B5A0002EDF70BDF02000205DB50100002803D023
:10B5B00002490861002070470E207047F0200020EB
:10B5C000F8B5164C142260684008400060601448CA
:10B5D000017851430E183769FFF784FD014638465C
:10B5E000FCF7A4FD05466061FFF77CFD0146F0888D
:10B5F0007F1EC019FCF79AFD02228542606801D1C6
:10B60000104300E090436060E1681040084303D0BD
:10B61000002000F0BBF8F8BD0220FAE790200020DF
:10B620003C27002010B502484069FEF70DFF10BD11
:10B630009020002010B5FFF743FD441EFFF752FD98
:10B640004443FFF74FFD04494A69521E5043CA68FC
:10B650002146FEF7FEFE10BD90200020F8B51048F0
:10B660001422017851430C182569FFF73BFD014670
:10B67000E088228980184019FCF758FD0F46FFF733
:10B680001FFD461EFFF72EFD4643E0882289F11973
:10B690008018044A40191269FEF7DBFEF8BD00006D
:10B6A0003C2700209020002070B5FFF71BFD0546C9
:10B6B000FFF706FD441EFFF715FD60432946FCF722
:10B6C00035FDFEF7C1FE70BD70B5FFF70BFD8608B6
:10B6D000FFF708FD0749496948430446FFF7F0FCB6
:10B6E000451EFFF7FFFC684332462146FEF7B1FED8
:10B6F00070BD0000902000200020704770B51448F5
:10B700001422017851430C18241DFFF7EBFC6188CB
:10B71000104E884211D2FFF7E5FC61880D1AFFF741
:10B72000E1FC8208A188E0684018216940194919A4
:10B73000FEF78FFEFFF7D6FC07E0A288E0688018CE
:10B740008A082169FEF785FE6088F06170BD0000FF
:10B750003C2700209020002010B505480079000704
:10B7600003D4012000F012F810BD00F003F810BD62
:10B770009020002010B504480822416891434160A0
:10B78000407800F003F810BD902000200249487076
:10B7900002498000085800479020002068BB010043
:10B7A00010B50446FFF7CCFD2046FDF701FA10BDA9
:10B7B00010B505480079000702D4FDF765FF10BDFC
:10B7C000FFF7D8FF10BD00009020002001200249A3
:10B7D000000508607047000000E200E0F0B5174F78
:10B7E0002421BC6841430D1939694A1C09D024221F
:10B7F0004A4316196B687268934204D8D21A726071
:10B8000029623861F0BD0A4602E00A46396A9B1B8C
:10B810004E1C0BD024264E4337197E689E42F4D32B
:10B8200024264E4336197768FF1A77606B602962C9
:10B8300024214A4311190862F0BD0000CC200020E9
:10B8400070B5194C2269A5681346114606E081427D
:10B8500007D00A46242671434919096A4E1CF6D1BD
:10B8600070BD002EFCD08A420CD1242043435819CD
:10B87000006A2061401C05D10C4B01209860002318
:10B8800063616071242041434819242341685A436D
:10B89000006A52191062421CE2D02422504340191F
:10B8A00042685118416070BDCC200020001001405A
:10B8B000F8B51D4C2569681C35D01C480026406829
:10B8C0006169401A07023F0A19E024204543A06835
:10B8D0002A185068B84214D8A3693F1A8619156A05
:10B8E000002B09D0D16990699847002807D0002221
:10B8F0001146FCF73DFF02E09169D0698847681C5A
:10B90000E3D1A178E078814206D1401CC0B2E0705A
:10B91000022801D10020E07003490006800D1C318F
:10B920000E50FFF753FFF8BDCC200020001501405A
:10B930000870000A48700220704700000121814011
:10B94000024842688A434260704700006C20002031
:10B9500038B51549154A488890420FD04A78144C9A
:10B96000521CD2B24A70237B934208D3083175DF50
:10B97000002803D0A169002900D0884738BD0025E0
:10B980004D70217C002907D03B2176DF002803D0B1
:10B99000A169002900D0884761690029EED0684676
:10B9A0000570884738BD000054200020FFFF0000CC
:10B9B0008425002012494868C005C00D19D01038F0
:10B9C00040B2002807DA0207120F083A92089200E4
:10B9D0005118C96904E081080A4A89008918096870
:10B9E0008007C00EC1400806800F012803D003283D
:10B9F00003D00220704700207047012070470000EC
:10BA000000ED00E000E400E042788378521C9342AD
:10BA100000D100220378934201D1002070470A60D0
:10BA2000416840781822504308187047F8B5154609
:10BA3000069C1E4607460222009400F00AF80028E1
:10BA400006D13346102229463846009400F001F80A
:10BA5000F8BDFFB583B0074600200C9C86462678CB
:10BA600005463AE07868A90041180A88684682804D
:10BA70004988C1800022694601A865DF002810D1ED
:10BA8000684601780598814226D17046002801D089
:10BA9000002200E002222078891841181F2902D9CB
:10BAA0000C2007B0F0BD7146002908D1401CC0B27F
:10BAB000411C069B049A21701A5401208646217865
:10BAC00006980A18694601A865DF0028E9D1694689
:10BAD00020780978401820706D1C3888A842C1DC95
:10BAE0007046002804D020780699801B401E885597
:10BAF0000020D6E70179002902D1007B002800D080
:10BB00000120704711000000120000001300000027
:10BB10001400000011000300D19001001200030086
:10BB2000D190010013000300D19001001400030024
:10BB3000D1900100FFFFFFFF03AC010049A5010008
:10BB400065A4010005A60100FFAB010019A50100D5
:10BB500061A40100FDA50100FBAB010069A4010087
:10BB60005DA40100F5A50100A9B60100C9B6010058
:10BB700025B601005DB6010035B6010059B70100D8
:10BB8000CD99010079990100B1B7010059A60100D2
:10BB900003000000B4BB01000020002004010000ED
:10BBA000D2840100B8BC0100042100201C0F000059
:10BBB000E28401000000FFFF0A18010000000000FD
:10BBC0000000000000000000000000000000000075
:10BBD0000000000000000000000000000000000065
:10BBE000000000000024F40000000000000000003D
:10BBF000FFFF000000000000000000000000000047
:10BC00000000000000000000000000000000000034
:10BC10000000000000000000000000000000000024
:10BC20000000000000000000000000000000000014
:10BC3000000000000000000001000000FFFF000005
:10BC400000000000000000000000000000000000F4
:10BC500000000000000000000000000000000000E4
:10BC600000000000000000000000000000000000D4
:10BC700000000000000000000000000000000000C4
:10BC800000000000000000000000000000000000B4
:10BC900000000000000000000000000000000000A4
:10BCA0000000000000000000000000000000000094
:08BCB00000000000000000008C
:04000005000180C1B5
:00000001FF
