:020000040001F9
:1080000070280020D5800100EF800100F180010080
:108010000000000000000000000000000000000060
:10802000000000000000000000000000F3800100DC
:108030000000000000000000F5800100F780010052
:10804000F9800100F9800100F9800100F980010048
:10805000F980010000000000F9800100F9800100B2
:10806000F9800100F9800100F9800100F980010028
:10807000F9800100F9800100F9800100F980010018
:10808000F9800100F9800100F9800100F980010008
:10809000F9800100F9800100F9800100F9800100F8
:1080A000F9800100F98001000000000000000000DC
:1080B00000000000000000000000000000000000C0
:1080C0000348854600F054F8004800474585010004
:1080D000702800200321094802680A43026008480A
:1080E00002680A4302600748804707480047FEE7E6
:1080F000FEE7FEE7FEE7FEE7FEE70000240500409E
:108100005405004095810100C180010003460B43E6
:108110009B0703D009E008C9121F08C0042AFAD23D
:1081200003E00B780370401C491C521EF9D27047C3
:10813000D2B201E00270401C491EFBD270470022FF
:10814000F6E710B513460A4604461946FFF7F0FF56
:10815000204610BD30B504460020034600E05B1CFD
:10816000934203D2E05CCD5C401BF8D030BD0000F0
:10817000064C0125064E05E0E36807CC2B430C3C7A
:1081800098471034B442F7D3FFF79EFFF4870100FD
:108190001488010010B500F0B1F9002805D00E498F
:1081A0000C484860C8130D4988610D48018CC9B25C
:1081B00001290ED1818C09070BD1018D0906090F08
:1081C000042906D1808D0006000F02D10549012047
:1081D000886010BDDFFF07C000050040006C004054
:1081E000C00F00F00006004002E008C8121F08C1DE
:1081F000002AFAD170477047002001E001C1121F28
:10820000002AFBD17047000010B51248017842786F
:108210000907090F022910D8252A0ED8002904D0F1
:1082200001290CD05523002111E00B49801CFFF7D8
:1082300091FF002801D1012010BD002010BD0F23A7
:10824000F1E74418A4789C42F7D1491CC9B2914285
:10825000F7D3F0E744200020CC870100F8B516469C
:10826000424CD2B2A272A3630125E163657200277A
:10827000E7812778002F08D0002808D0032809D0EC
:10828000012F0FD0E5810220F8BD0520F8BD00F0D8
:10829000D5F868E0012FF5D0A0890121C903084372
:1082A000E081F4E7272902D9E5810120F8BD002704
:1082B000A781012802D0022809D054E027212C48A8
:1082C000FFF73DFF012000F007FA04202CE0252AEB
:1082D00002D9E5810320F8BD1F073F0F24485B1C2E
:1082E0000770244F427021D0012B05D0022B09D0FA
:1082F000032B09D0E58130E032461F49801CFFF78F
:1083000005FF06E00F2200E055223146801CFFF7F2
:108310000FFF002000F0E0F9A1691848FF3141315A
:10832000016147614560022020701CE00846002E74
:1083300006D0012E04D0022E0CD0032E13D10EE055
:10834000002000F0C9F90E49032008600D490D60B6
:108350003D60E9E700F060F803E00420F8BD00F0BC
:1083600039F80028F9D00020F8BD000004200020D2
:108370004420002000100040CC87010000F501409F
:108380004015004000120040034900234A7A4B7216
:10839000C9890160104670470420002010B500F024
:1083A000E5F9002803D100F039F9002801D00420B4
:1083B00010BD064800214172012101700448016985
:1083C000102211430161002010BD00000420002094
:1083D00000ED00E00C490A78012A05D8002805D0F4
:1083E000012807D0022809D000207047074888617B
:1083F000082006E006488861092002E005488861F7
:108400000A204870012070470420002000800040AE
:108410000090004000A00040074942B20B78012BB9
:1084200004D828322D2A01D2820701D000207047BB
:1084300048610120704700000420002010B5064963
:1084400000200860054901248C600861486100F043
:108450006FF90348047010BD4015004000F501405D
:1084600004200020F8B51E48016910221143016163
:108470001C4F01251C4C0026F868002817D0FE6010
:108480001A48022101602078042810D1184845605C
:1084900018480068012806D1FFF7B6FE002802D070
:1084A000A089401CA08127211348FFF748FEA0693E
:1084B000FF300130016C002901D00664DCE7406C1C
:1084C0000028D9D0A069FF30013046646078C0062A
:1084D000C00E8540054805602069401C2061F8BD3C
:1084E00000ED00E0001100400420002080E200E0E8
:1084F0000010004000140040442000201048018C6F
:10850000C9B2012917D1818C090714D1018D09063F
:108510000A0F03D1828D1206120F0ED0090F012906
:1085200003D1828D1206120F07D0032903D1808D4B
:108530000006000F01D000207047012070470000A6
:10854000C00F00F0F8B500262E4903203746354607
:1085500008602C483146083006602B480922C2606A
:108560000B224261294A4262294CA660E66166629A
:108570000422026027484160274901208860086082
:10858000FFF70CFF002801D0701EF8BDFFF76AFF4F
:10859000A1680029FAD00021A1601B498969002F38
:1085A000C9B206D032461532904204D90D020646B1
:1085B000ECE70127FAE70D43A80B8446A804810ED7
:1085C0002806AB070027820E9B0F032B00D11B1F31
:1085D0006046FFF743FE6846FFF7D6FE0028D5D079
:1085E000009A1004010E0848C161E1690129FCD11B
:1085F0000021E161D2B2C261E0690128FCD1E161F0
:10860000C4E70000240700500025004000A04E00F1
:1086100000210040002300400020004010B52A48FF
:10862000C06A00070CD428484030C26A27494A6211
:10863000026B8A62426BCA62826B0A63C06B4863D8
:10864000234CFC2260690146914308D140B20428C2
:1086500005DC2821C84202DB207A032801D9042046
:1086600010BD00F065F81B486169C160217A0161A5
:10867000416A090A09024162426AA16A0B0E1A4361
:1086800042620902C161012101630021C162617975
:10869000E2790902114341632179E2780904120267
:1086A0001143A27811434161A18C228C4906120624
:1086B0001143A28B12041143A279120211432531F6
:1086C0008161002010BD00008000001000170040F4
:1086D000042000200015004070B50F4900230B60F6
:1086E0000E4A0D49D46A40398C63146BCC63D46B49
:1086F0006400A41C8C600A4C4C600A4C23600A4E37
:1087000003253560002804D0E36008490120486053
:1087100070BD5069C86070BD401500400420002045
:1087200044200020001100400012004000100040D2
:108730000949032088600949002008600849086148
:10874000084A012313610B69002BFCD008615060BB
:10875000106005498881704700F501400012004013
:1087600000110040001000400420002070B51548A2
:10877000002101600123820513600268002AFCD0F9
:10878000114DA8694360C36005221202841861601C
:10879000C21DF932116451649164D164012203262F
:1087A0001204360286197260D2111350042222611B
:1087B0006A6B2264FF220532626403600020296133
:1087C00070BD00000001004004200020FFC1FBE854
:1087D0004C90728BE7B3518963AB232302841872E8
:1087E000AA612F3B51A8E53749FBC9CA0C18532C85
:1087F000FD0000001488010000200020440000005B
:10880000E881010058880100442000202C08000065
:10881000F88101000024F4000008080100010003B1
:108820000300000000000000000000000400000041
:108830000080004003000000000000000000000075
:10884000294176715B060000555555007102000004
:08885000000000000000000020
:04000005000180C1B5
:00000001FF
