:020000040001F9
:10800000D82B0020C52702000F99010043AD0100C5
:108010000000000000000000000000000000000060
:1080200000000000000000000000000017AE01008A
:1080300000000000000000001BB30100C7E20100C7
:10804000A3280200EF2802009F0B0200F128020083
:10805000F328020000000000F1230200F5280200CE
:10806000F7280200F9280200FB280200FD28020080
:10807000FF2802000129020003290200052902004D
:10808000072902002FF30100092902000B29020031
:1080900055F3010061280200A11B02000D29020016
:1080A0000F2902001129020000000000000000005A
:1080B00000000000000000000000000000000000C0
:1080C000E022520080180268914203D34368D2181C
:1080D000914202D380680028F5D170474A48016870
:1080E00000290ED1802149028160090941600021E7
:1080F000C943C160016104214161444A116044499E
:10810000016001207047F3B58DB002A8282101F06D
:10811000C9FB3D480068002801D1FFF7DFFF00BF21
:1081200000BF0E980C300090C068002847D0012096
:108130000099096828310A000E9BE02464001B198D
:108140001BE0E708FF000197D219A707BF0F012F17
:1081500002D1019FC919401C0727BC432D19B54204
:108160000AD35F68F719BD4206D2009CE468A542B5
:1081700002D06C68072CE4D19B68002B0ED01E68DF
:1081800034000834640701D1002405E008243500D8
:108190000835641B6407640F3519E0E70292039009
:1081A0000E98D8235B00C01803689A1A069240689C
:1081B0000790581A09900A91009800680B9000BF28
:1081C00000BF0D9802A9282201F082FB0FB0F0BD7C
:1081D00030B407230C0008341C4201D1002304E012
:1081E00008240D000835641B2340C918D21A816188
:1081F000C260012313434B60282389184B60024956
:108200000969C16130BC7047983D00209439002055
:108210006859883CF0B587B0040007200D00083588
:10822000054205D008250E000836AD1B054049194A
:10823000029111000831014205D0082115000835CE
:10824000491B0840121817000298C01803900546F1
:108250000298381AC01A01900326334302984360EB
:10826000BD4201D301F04EFB3879C00701D401F0C3
:1082700049FB0198102801D201F044FBA069874214
:1082800008D1E06801994018E060A561012101432F
:1082900069606AE16069874209D1A0680199401864
:1082A000A060656101210143696028505DE1786843
:1082B0000640012E00D0B9E0072188430590C00890
:1082C00020283CD2B9680091FE680490B74201D1E1
:1082D00001F018FB0098874201D101F013FB786888
:1082E000072188430499C900884201D001F00AFBA4
:1082F0000498C0002018009902002832914207D04B
:108300002269914200D289E0C968B94200D085E073
:1083100000998E4206D120680121049A9140884339
:1083200020607DE02830864205D02069864275D3E2
:10833000B068B84272D1CE600098B06070E0B869A1
:108340000090FE68BE420CD0B8682169884225D3EF
:10835000C168B94222D1B168B9421FD1C660B060CC
:108360001EE0380014300668002E07D138001030A7
:108370000668002E14D001E00800066831001431B0
:108380000A68002AF8D1310010310A68002AF3D1B6
:108390002169884202D30021016001E001F0B2FAB4
:1083A000009800283CD0F8698000201898214900E6
:1083B000401801688F4209D10660002E14D1606810
:1083C0000121FA6991408843606029E000982169A1
:1083D000884207D30069B842009801D1066103E0E2
:1083E000466101E001F08EFA002E19D02069864224
:1083F00014D30099B1613969002906D0814202D3B2
:1084000031618E6101E001F07DFA7869002807D0C2
:108410002169884202D37061866101E001F072FA3D
:1084200005983F1801980599401801907868012136
:108430008843786001980143696001982850019849
:10844000C008202822D20090C000271828373E00FC
:108450000198102801D201F055FA20680099020015
:10846000CA40D10705D40121009A914001432160FF
:1084700007E0B8682169884201D3060001E001F0F5
:1084800041FABD60F560AE60EF606EE00198000AF1
:1084900001D1002225E080214902884201D31F2218
:1084A0001FE0FF21C9434118090C082211408840F0
:1084B000304A8218120C04231A4090402E4BC318E5
:1084C0001B0C022633400E26711A891AC91A9840CD
:1084D000C00B08184100019AC01DC240D007C00F50
:1084E0000A1890002018982149004118EA610020DC
:1084F0006861286163681E00D640F60705D4012034
:108500009040184360600D601BE009681F2A019BC2
:1085100005D019265208B21A934000E011004A68AB
:108520000726B243019EB24210D0DA0F92008E1895
:1085300010365B003268002AF0D12069864212D3DF
:108540003560A961ED600398A8600EE08A68236930
:10855000994208D39A4206D3D560039B8B60AA60E8
:10856000E960A86101E001F0CDF90298083007B098
:10857000F0BD000000F0FFFF00C0FFFFF2B586B0C5
:1085800004008F480068002801D1FFF7A7FD8C4840
:108590008168069840182F30491E88430699814209
:1085A00000D3DCE1D821490061188968002909D08D
:1085B000D8225200A2581018824200D3CFE1814243
:1085C00000D2CCE101F0A4F9002800D1C7E100906D
:1085D00007680021C943884200D1C0E1D82040008B
:1085E0002058C019D821490060506118496881425B
:1085F00000D20100D820400020184160A069002866
:1086000039D12069002802D00099814201D2009816
:1086100020610098D821490061180861D8204000E5
:10862000201847610026D82040002018C661644801
:10863000006860620020C043206220002830C060D3
:1086400001468160083141610161B61C1030202E65
:10865000F5D3C448844203D1283F3A00009926E06C
:10866000201F006807218843211808390098C01985
:10867000421A283A1BE0E0204000201800E0806801
:10868000002818D0009902684368D2189142F6D1A8
:10869000017B09070FD4A169026891420BD3D2185C
:1086A000914208D2D9194160E068C219A16920003D
:1086B000FFF78EFD3FE100982169884200D22061DA
:1086C000E020400020180099C91900E080680028C7
:1086D00010D002688A42F9D1017B09070AD40099B7
:1086E00001604168C9194160069B00992000FFF7AD
:1086F00091FD35E1A0690390054629002000FFF7B0
:10870000DFFC0168406808180590273800264107FB
:1087100001D1002003E00821081A4007400F059905
:1087200008182F3829001031884201D2019500E045
:10873000019001981830029004963800283800996A
:108740000831490701D1002105E00821009A0832CB
:10875000891A4907490F401A009A5118A161E0602F
:10876000012202434A602822081842601448006926
:10877000E06101980830400701D001F0C3F81B20E8
:108780000199486001980830E021490061181022E1
:1087900001F09EF80098D821490061180861D8209E
:1087A000400020184761D82040002018C661019879
:1087B0000830D821490061188861059805E000BF9C
:1087C000983D00200299091D02910721029A5160EB
:1087D0000499491C0491029908318142F2D304980A
:1087E000022801DA01F08EF80198A84200D1A2E037
:1087F000411B426801239A43426001220A436A6096
:108800000160C808202821D20090C000271828370E
:108810003E00102901D201F075F82068009902008D
:10882000CA40D10705D40121009A9140014321603B
:1088300007E0B8682169884201D3060001E001F031
:1088400061F8BD60F560AE60EF6074E0080A01D1C8
:10885000002228E01A04904201D31F2223E0FF22C5
:10886000D2438218120C08231A40009290403E4ACC
:108870008218120C04231A4090403C4BC3181B0C66
:1088800002273B4001930E23009FDB1B9A1A019B9A
:10889000D21A9840C00B10184200C01D0B00C340F4
:1088A000D807C00F12189000201898235B00C0183A
:1088B0000090EA616E612E6160680300D340DB07BF
:1088C00007D4012191400143616000980560009840
:1088D0001DE0009800681F2A01D10A0006E0192354
:1088E00052089B1A0A009A4000E0380043680727A4
:1088F000BB438B4210D0D30F9B00C31810335200E0
:108900001F68002FF1D121698B4212D31D60A8612D
:10891000ED600398A8600EE081682269904208D358
:10892000914206D3CD60039A8260A960E860AE618F
:1089300001E000F0E7FFE068069981420FD2401A9B
:10894000E060A169069A8A18A2610123034353607B
:108950000698032202434A600800083000E0002025
:1089600007B0F0BDD837002000F0FFFF00C0FFFFC8
:10897000F2B584B004000020009004984542000A3B
:1089800025D080214902884201D31F201FE0FF210A
:10899000C9434118090C082211408840B34A821883
:1089A000120C04231A409040114BC3181B0C0226D2
:1089B00033400E26711A891AC91A9840C00B08183C
:1089C0004100049AC01DC240D007C00F08188100A2
:1089D0006118982252008B58002B28D01F28049A27
:1089E00003D019214608891B8A40002103E000BFFB
:1089F00000C0FFFF52005E680727BE43049FF61BBE
:108A0000AE4202D2009335000CD05E69D70FBF0092
:108A1000DB191B69002E02D09E4200D03100002BD2
:108A2000E8D10B00002B3FD1009900293ED1012154
:108A30000122824050004342034362681A4000D141
:108A400078E150421040401E020B10231A40D040E3
:108A5000430908263340D840860804273E40029642
:108A6000F040460802273E400196F040460831405B
:108A7000D218029BD218019BD2185218C840101865
:108A8000800020189821490043580DE003005868E1
:108A9000072188430499401AA84201D20500009397
:108AA00018690028F2D15B69002BF0D100980028EA
:108AB00000D13FE1A0680499401A854200D339E112
:108AC000009E2069864200D232E168180290009828
:108AD0004068072188430299884201D000F012FFC4
:108AE000009804994718BE4200D321E180690190A3
:108AF0000098C66886420DD080682169884225D3D7
:108B0000C168009A914221D1B16891421ED1C660DC
:108B1000B0601DE014300668002E07D100981030B8
:108B20000668002E14D001E00800066831001431F8
:108B30000A68002AF8D1310010310A68002AF3D1FE
:108B40002169884202D30021016001E000F0DAFED1
:108B50000198002843D00098C0698000201898210F
:108B6000490040180099026891420AD10660002E1F
:108B700016D160680121009AD269914088436060F3
:108B80002DE001982169884208D300690099884244
:108B9000019801D1066103E0466101E000F0B2FEF8
:108BA000002E1CD02069864217D30198B06100982E
:108BB0000069002807D02169884202D330618661AC
:108BC00001E000F09FFE00984069002807D021696D
:108BD000884202D37061866101E000F093FE0320B9
:108BE0000121102D0AD2029A1043009A5060009879
:108BF000029A801842681143416096E0049A10433B
:108C0000009A50600120284378607D51E8082028B0
:108C100019D2C200A6182836350022681300C340B6
:108C20000B4003D181401143216007E0B068216906
:108C3000884201D3050001E000F064FEB760EF60F8
:108C4000BD60FE6071E0280A01D100222AE00A041A
:108C5000904201D31F2225E0FF22D2438218120C3A
:108C600008231A4001929040004A01E000F0FFFF03
:108C70008218120C04231A409040304BC3181B0C6E
:108C80000226334002930E23019E9B1B9A1A029BDD
:108C9000D21A9840C00B10184200C01D2B00C340D0
:108CA0000B40D2189000201898235B00C018FA617E
:108CB00000237B613B6163681E00D6400E4004D1F7
:108CC00091401943616007601CE000681F2A01D1D0
:108CD000290006E0192152088A1A2900914000E073
:108CE0001000426807239A43AA420FD0CA0F92008D
:108CF0008318103349001A68002AF1D121698B4288
:108D000011D31F60B861FF60BF600EE08168226907
:108D1000904208D3914206D3CF608760B960F86073
:108D20000020B86101E000F0EDFD0098083002E09D
:108D300000F0E8FD002005B0F0BD000000C0FFFF1E
:108D4000F2B586B00400616848420840401E010B3D
:108D500010221140C840420908231A40D04083081D
:108D600004252B40D840450802263540E8408607B8
:108D7000F60F8918C91849198919F0400818800098
:108D80002018982149004058070041680722914364
:108D9000069A8D1A09E00800416807229143069A55
:108DA000891AA94201D20D00070001690029F2D1F8
:108DB00040690028F0D12069874200D2D3E0A8188A
:108DC00001907868072188430199884201D000F01A
:108DD00099FD069838180490874200D3C3E0B8691B
:108DE0000090FE68BE420CD0B8682169884225D345
:108DF000C168B94222D1B168B9421FD1C660B06022
:108E00001EE0380014300668002E07D138001030FC
:108E10000668002E14D001E0080006683100143105
:108E20000A68002AF8D1310010310A68002AF3D10B
:108E30002169884202D30021016001E000F062FD57
:108E4000009800283DD0F86980002018982149003A
:108E5000401801688F4209D10660002E14D1606865
:108E60000121FA699140884360602AE000982169F5
:108E7000884207D30069B842009801D1066103E037
:108E8000466101E000F03EFD002E1AD020698642C6
:108E900015D30098B0613869002807D0216988424D
:108EA00002D33061866101E000F02CFD7869002872
:108EB00007D02169884202D37061866101E000F029
:108EC00021FD0320102D09D20199084378600198F3
:108ED0003818416801220A43426041E0069908437C
:108EE0007860012028430499486004984551A0689F
:108EF0000090C608202E01D300F004FD0098002841
:108F00002BD0606903900196F00020182830029061
:108F100006460098102801D200F0F4FC2068019960
:108F20000200CA40D10705D40121019A91400143B2
:108F3000216008E0029880682169884201D3060018
:108F400001E000F0DFFC0398029988600398F0606C
:108F50000398866002980399C860A56004986061D0
:108F60003800083002E000F0CDFC002007B0F0BD72
:108F7000F0B587B0040000BF00BFBA4DF52C00D398
:108F800025E10B2C01D2102402E00B34072084438E
:108F9000E008009028680099C840032738424DD067
:108FA00001260122824388180090C000281828302A
:108FB000029084680098C00003906068072188438D
:108FC0000399884201D000F09DFCA06801900298AE
:108FD000844201D100F096FC0198844201D100F056
:108FE00091FC6068072188430399884201D000F012
:108FF00089FC02980199884206D12968009A0120CB
:109000009040814329600FE008462969884209D3CE
:10901000C068A04206D1019802998860029801991F
:10902000C86001E000F06EFC039807436760039896
:10903000201841680E434660260007E1A968A14256
:1090400000D3D7E0002800D1B7E001260099012223
:109050008A405100009A90404A420A4302405142DD
:109060001140491E080B10221040C1404A09082334
:109070001A400092D1408A0804231A400192D1403C
:109080004A0802231A400292D1404A083240009B0B
:10909000C018019BC018029BC0188018D14040180E
:1090A0000390C0002818283000908068049003982E
:1090B000C0000290049840680721884302998842C2
:1090C00001D000F01FFC049880680190049800997A
:1090D000884201D100F016FC04980199884201D120
:1090E00000F010FC049840680721884302998842E8
:1090F00001D000F007FC00980199884206D1296848
:10910000039A012090408143296010E008462969B4
:1091100088420AD3C0680499884206D10198009910
:10912000886000980199C86001E000F0EBFB0298AC
:10913000001B03902743049847600498001905908A
:109140000398304305994860039805990850A8682A
:109150000090C408202C01D300F0D4FB0098002814
:1091600025D0686902900194E0002F1828373C0050
:109170000098102801D200F0C5FB28680199020070
:10918000CA40324003D18E4006432E6007E0B868E3
:109190002969884201D3040001E000F0B3FB029882
:1091A000B8600298E060029884600298C7600398F3
:1091B000A86005986861049E48E06868002836D079
:1091C00021002800FFF7BCFD060013D045E03F203A
:1091D000C043844202D30024E4430BE00B34072055
:1091E00084436868002805D021002800FFF7C0FBF1
:1091F000060032D1A968A14219D30A1B6869012669
:109200000327102A08D301196961AA6016434E602A
:109210008A502743476008E00022AA606A610F4332
:10922000476041184A6816434E6006000EE0E86841
:1092300084420DD2001BE860A9690A19AA610123C2
:10924000034353600320204348600E00083604E0C7
:1092500021002800FFF792F9060000BF00BF300090
:1092600007B0F0BDD8370020002800D17047F0B516
:1092700085B00838050000BF00BF474C2069854213
:1092800000D2D2E26B68032103221A40012A00D1E6
:10929000CBE2DE08F600AA19029201273B4241D137
:1092A0002A680B4000D1C2E2B6185342ED1885423D
:1092B00000D2BAE263699D4200D102E1D1082029BF
:1092C00000D380E0A8680190E868009003910098BE
:1092D000854201D100F016FB0198854201D100F0D2
:1092E00011FB6868072188430399C900884201D0AF
:1092F00000F008FB0398C0002018019902002832F2
:10930000914205D0226991425AD3C968A94257D1E6
:109310000099019A914243D12168039A012090401B
:10932000814321600298854200D37EE24068384242
:1093300000D17AE2810700D5C5E10299A269914284
:1093400000D0CEE0E0688119E160A5610F436F6055
:109350006069854202D100206061A060E0698842B6
:1093600000D364E20D480068002801D1FEF7B6FE84
:10937000A169002900D15AE2E068292802D320001F
:10938000FEF79EFEE069E168884200D34FE20020CC
:10939000C043E0614BE200BFD8370020983D002079
:1093A0002830814206D008462169884208D3806867
:1093B000A84205D10098D060019800998860B1E773
:1093C00000F0A0FAAEE7A9690091EA68AA420DD0C0
:1093D000A9680192814228D3C868A84225D1906823
:1093E000A84222D1CA600198816020E0290014318E
:1093F0000A680192002A09D1290010310A680192F5
:10940000002A14D002E011000A680192019A143275
:109410001368002BF7D1019A10321368002BF2D198
:10942000814202D30020086001E000F06BFA00984E
:10943000002800D176E7E8698000201898214900CB
:10944000401801688D420AD101990160002915D1A7
:109450006168EA69012090408143616062E7009899
:109460002169884208D30069A8420198009901D176
:10947000086103E0486101E000F044FA0198002827
:1094800000D14FE720690199814299D30099019A4F
:1094900091612969002908D0814204D301980161B2
:1094A0000198886101E000F02DFA6869002800D178
:1094B00038E72169884283D3019948610199816124
:1094C00030E7029840680140032900D02AE7A660EF
:1094D00002984068B8430299486037436F60AE51C4
:1094E000A5E16269914207D1A0688019A060656119
:1094F00007436F6028509AE1072188433618C00857
:1095000020284BD20299896800910299C968039179
:10951000019002980399884201D100F0F3F9029872
:109520000099884201D100F0EDF9029840680721C6
:1095300088430199C900884201D000F0E3F90198FD
:10954000C0002018009902002832914208D02269F8
:10955000914200D2ACE0C968029A914200D0A7E0E3
:109560000399009A914206D12168019A0120904006
:10957000814321609EE02830814209D0084621695C
:10958000884200D294E080680299884200D08FE03F
:109590000398D0600098039988608BE002988069F6
:1095A00001900298C0680299884212D00299896895
:1095B0000090206981422CD3C868029A904228D139
:1095C00000988068904224D10098C860009881601B
:1095D00021E00298143001680091002909D1029815
:1095E000103001680091002915D002E008000168E0
:1095F0000091009914310A68002AF7D100991031BE
:109600000A68002AF2D12169884202D30021016050
:1096100001E000F077F9019800284BD00298C0696A
:109620008000201898214900401802990268914250
:109630000BD100990160002917D161680298C269B5
:10964000012090408143616034E0019821698842A3
:1096500009D30069029988420098019901D10861F3
:1096600003E0486101E000F04DF90098002821D0A6
:109670002069009981421BD30199009A9161029956
:109680000969002908D0814204D30098016100983B
:10969000886101E000F036F902984069002809D09D
:1096A0002169884204D3009948610099816101E0F1
:1096B00000F028F9012030436860AE5160698542AE
:1096C00008D1A660B3E0B843029948600120304356
:1096D0006860AE51F008202825D20090C000201804
:1096E000283001900290102E01D200F00BF9206872
:1096F00000990200CA403A4003D18F4007432760D7
:1097000008E0019880682169884201D3029001E055
:1097100000F0F8F8019885600298C5600298A8608A
:109720000198E86083E0300A01D1002227E0390483
:10973000884201D31F2222E0FF21C9434118090CAE
:1097400008221140009188403B494118090C04222D
:1097500011400191884039494118090C02221140F9
:109760000E22009BD21A019BD21A521A8840C00BBB
:1097700010184100C01D3200C2403A408A189000C3
:1097800020189821490040180090EA610020686183
:10979000286161680B00D3403B4007D197400F43DD
:1097A0006760009805600098A8611EE0009909684C
:1097B0001F2A01D1320006E0192352089B1A3200F9
:1097C0009A4000E039004B680727BB43B3420FD0F3
:1097D000D30F9B00CB18103352001F68002FF1D11C
:1097E0002069834210D31D60A961ED60AD600DE07A
:1097F0008A682369994207D39A4205D3D5608D6060
:10980000AA60E960A86101E000F07CF8206A401ECF
:1098100020620CD1E4204000205800E0806800283D
:10982000FCD10020C043206201E000F06BF800BFD3
:1098300000BF05B0F0BD000000F0FFFF00C0FFFF5B
:1098400080B50249FEF75FFC01BD0000D83700205B
:10985000094205D083070BD00270401C491EF9D184
:10986000704700001206130A1A43130C1A4300BF74
:10987000130030B414001500103902D310393CC065
:10988000FCD2490700D30CC000D504C0890002D324
:109890000280801C002900D5027030BC7047000097
:1098A0000022D5E70022E3E7124207D08B0706D05B
:1098B0000B78491C0370401C521EF7D87047830771
:1098C00006D00B78491C0370401C521EF9D170471A
:1098D00070B4103A03D378C9103A78C0FBD253075A
:1098E00001D318C918C001D508C908C0D20704D3CC
:1098F0000B880380891C801C002A01D50B7803701B
:1099000070BC704780B5012000F018F801BDFEE77B
:1099100007490868002801D0002070470548072241
:109920009043086004499143091A0160704700BFE1
:109930003C3E0020DF2B0020D837002020210903E7
:1099400026311820ABBEF9E7F1B5A4B00E00140023
:109950001D004A487844FF30253003C822AA03C2BC
:10996000049600200D9001E000982418002069461C
:10997000C88022AB0022D243210001A8801C01F044
:109980003CF90090012805DA2078411E8941C9433D
:10999000C90F00916846C0882528009F00D17F1E0E
:1099A000012F0EDB260031780498249A904704900A
:1099B000002800D107E10D98401C0D90761C7F1EF9
:1099C000F1D16846C088252807D10020079008906B
:1099D00009900A900B900C9008E06846C088002817
:1099E000C2D10D98F1E0010001200843641C2178E8
:1099F0002029F8D023290ED02B2904D02D2907D0D7
:109A000030290BD00DE001000220084380B2EDE7C1
:109A100001000420F9E701000820F6E7010010200A
:109A2000F3E72A290FD1296829600A68091D2960EE
:109A30000F92002A05D551420F91010004200843DE
:109A400080B2641C12E000210F910AE00F9A7F4B54
:109A50009A4205D093009A185200511830390F914C
:109A6000641C21780A00303A0A2AEFD321782E2983
:109A700006D00021C9430E9121E000BF748D000083
:109A8000641C21782A2907D1296829600A68091DE0
:109A900029600E92641C12E000210E910AE00E9AD9
:109AA0006A4B9A4205D093009A18520051183039E7
:109AB0000E91641C21780A00303A0A2AEFD302A9D9
:109AC000088726783100044878440C3001F0A3F868
:109AD000002803D0641C02E0208D0000002602A8AC
:109AE0003A214654405C682804D12178682901D184
:109AF000622005E06C2807D120786C2804D1712001
:109B000002A93A228854641C12A806902678641C84
:109B1000300025382AD01C3800D1E0E0001F022890
:109B200000D8DCE0133800D1FFE0093800D1D6E0DE
:109B3000801E00D168E1401E00D140E1401E022895
:109B400000D8CCE0001F00D139E1401F00D197E0E0
:109B5000401E00D1E9E0401E39D0C01E0BD0801E4F
:109B600000D1E2E0C01E00D1DFE070E1252012A9A3
:109B70000870012075E102A83A21405C6C28286831
:109B8000286016D00668001D286005960E9F002FDD
:109B900003D5300001F049F809E03A000021300017
:109BA00001F04BF8002801D0801B00E0380008903D
:109BB00058E10268001D286002A9249800F032FADA
:109BC000002800D44EE10020C04325B0F0BD286835
:109BD00028600268001D28600020C043002110405A
:109BE00002AA03C212A80590069B3C2602A803C83D
:109BF000002904D1002802D10E9A002A14D0761E22
:109C000000960207120F3032D2B23A2A00DB273216
:109C10009A5500090A071043090901D1002803D009
:109C2000059A9F19BA42EAD33C20801B08909919E3
:109C300005910E9988420DDA081A0A9002A8008F41
:109C40000349014002A801870CE100BFFFFFFF7F2D
:109C5000EFFF0000002900D404E102A93822895C4A
:109C600014220A40102A00D0FCE00F99079A891AA2
:109C70000A9A891A0E1A012E00DAF3E00A96F1E028
:109C800002A83A21405C622819D0682806D06A28C8
:109C90000CD06C281BD0712808D018E028682860E8
:109CA0000168001D28600D980880DBE028682860A6
:109CB0000268001D28600D98C11703C2D2E0286811
:109CC00028600168001D28600D980870CAE02868A7
:109CD00028600168001D28600D980860C2E02A68AD
:109CE000D21D072082432A6003CA2A6002AA03C247
:109CF000002902D507982D210AE002A8008F8107CC
:109D000002D507982B2103E0C00705D5079820212D
:109D100012AA1154401C079012A8079940180590E8
:109D2000310002A800F0A8FB9CE002A83A21405CA8
:109D30006C280BD0712801D06A2807D12A68D21D5F
:109D4000072082432A6003CA2A6005E02968296047
:109D50000868091D2960002102AA03C202A83A214D
:109D6000405C682803D102A803C880B20BE06228D7
:109D700003D102A803C8C0B205E0742801D07A2834
:109D800004D102A803C8002102AA03C202A83821F4
:109D9000405C00072FD502A803C8002901D1002884
:109DA00029D020203043782825D10798302112AAC5
:109DB0001154401C411C079112A90E541BE02900AC
:109DC00002A83A22805C00F0F8F802AA03C202A8B6
:109DD000002902DA07982D2109E0008F810702D5BA
:109DE00007982B2103E0C00705D50798202112AA68
:109DF0001154401C079012A8079940180590310093
:109E000002A800F0A1FA2DE002A83A21405C6C28DB
:109E100009D001200790286828600168001D28608B
:109E200012A801701EE0286828600168001D2860E3
:109E300068460180002069464880C0430E906A460B
:109E400002A9249800F0EEF800280BD5BBE62520E7
:109E500012A9087001200790300003D012A84670A4
:109E6000022007900F980799401A0A99401A0899FA
:109E7000401A0B99401A0999401A0C99401A0090FF
:109E800002A83821405C400711D42020694608719F
:109E9000009801280BDB009E012301AA02A9249847
:109EA00000F093FE002800D08DE6761EF4D1079FC7
:109EB00012AE002F0DD031780498249A9047049068
:109EC000002800D17FE60D98401C0D90761C7F1E67
:109ED000F1D13020694608710A9E012E0ADB012368
:109EE00001AA02A9249800F070FE002800D06AE6BA
:109EF000761EF4D1059E089F002F0DD0317804986E
:109F0000249A90470490002800D15CE60D98401CEC
:109F10000D90761C7F1EF1D13020694608710B9E92
:109F2000012E0ADB012301AA02A9249800F04DFEAC
:109F3000002800D047E6761EF4D105980899461807
:109F4000099F002F0DD031780498249A90470490EF
:109F5000002800D137E60D98401C0D90761C7F1E1E
:109F6000F1D13020694608710C9E012E0ADB0123D5
:109F700001AA02A9249800F028FE002800D022E6B9
:109F8000761EF4D102A83821405C400700D4EDE4ED
:109F90002020694608710098012800DAE6E4009E56
:109FA000012301AA02A9249800F00FFE002800D086
:109FB00009E6761E00D1D9E4F2E70A00622822D031
:109FC000682819D06A2808D06C2823D0712804D0BA
:109FD00074281FD07A2808D01CE01368DB1D0720E6
:109FE0008343136003CB13607047116811600868E6
:109FF000091D116000217047116811600868091D72
:10A00000116000B20BE0116811600868091D116051
:10A0100040B204E0116811600868091D1160C117A1
:10A0200070470000F4B59AB007000C00206B0028C0
:10A0300000D50E48039000F00CFE616B08180690E6
:10A0400009487844223003C807AA03C23820205C9C
:10A05000400702D4069841280AD209A8029040205D
:10A0600006900020059012E098870000FFFFFF7F18
:10A07000FEF77EFF02900028F3D10020C04361E18B
:10A080001A98801C1A9003980199401A039003981B
:10A09000012800DAD0E007AA1A98018800A8401C1D
:10A0A00000F0DCFD0190002800D5E2E01A9800885D
:10A0B000002804D10198401E019000D5D9E00398F2
:10A0C0000199884200DAB7E060690699019A82181E
:10A0D000914200D39FE0002161634142206A081A47
:10A0E000A169401A616A401AE169401AA16A401ADE
:10A0F00004903820205C400711D420206946087065
:10A10000049801280BDB049D01236A4621003800D6
:10A1100000F05BFD002800D0ABE06D1EF4D1666955
:10A12000029D002E0CD02978A068B847A0600028B6
:10A1300000D19EE0E06A401CE0626D1C761EF2D108
:10A14000302069460870256A012D0ADB01236A4622
:10A150002100380000F039FD002800D089E06D1E94
:10A16000F4D1E568A669002E0BD02978A068B8471D
:10A17000A06000287DD0E06A401CE0626D1C761E65
:10A18000F3D1302069460870656A012D09DB01238F
:10A190006A462100380000F018FD002869D16D1EC4
:10A1A000F5D1E068A1694518E669002E0BD0297841
:10A1B000A068B847A06000285BD0E06A401CE0625D
:10A1C0006D1C761EF3D1302069460870A56A012DFA
:10A1D00009DB01236A462100380000F0F6FC002864
:10A1E00047D16D1EF5D13820205C400710D52020C6
:10A1F00069460870049801280ADB049D01236A4619
:10A200002100380000F0E1FC002832D16D1EF5D1AC
:10A21000002005906061019A00A9491C02986369B9
:10A22000C018FFF741FB60690199401860611A98F6
:10A230000088002800D023E7059800287BD1606BB8
:10A240006169401A216A401AA169401A616A401A7C
:10A25000E169401AA16A461A3820205C400711D4EF
:10A26000012E0FDB35002021A068B847A060002830
:10A2700003D10020C04305905DE0E06A401CE0622D
:10A280006D1EF0D16369029A2100380000F09DFC38
:10A290000028EED1256A012D0ADB3021A068B847DD
:10A2A000A0600028E5D0E06A401CE0626D1EF4D199
:10A2B000A369E2682100380000F087FC0028D8D1AB
:10A2C000656A012D0ADB3021A068B847A06000282C
:10A2D000CFD0E06A401CE0626D1EF4D1E369E06813
:10A2E000A16942182100380000F06FFC0028C0D19D
:10A2F000A56A012D0ADB3021A068B847A0600028BC
:10A30000B7D0E06A401CE0626D1EF4D13820205CBA
:10A3100040070DD5012E0BDB35002021A068B84782
:10A32000A0600028A5D0E06A401CE0626D1EF4D158
:10A33000002060616063029809A9884201D0FEF79D
:10A3400093FF05981BB0F0BDF3B583B00069009092
:10A350006846027C6F2A01D1082406E020211143BF
:10A36000782901D00A2400E010243C25039803C872
:10A3700006000F00642A01D0692A07D1002905DAF6
:10A3800000200021801BB94106000F00002F10D1D2
:10A39000002E0ED10398006B00280AD1082C3AD168
:10A3A00003983821405C000735D53B2530200099C3
:10A3B00030E06D1E0195300039002200E31700F0F7
:10A3C00059FC3032D2B23A2A03DB6846007C51385D
:10A3D000121800984255300039002200E31700F0AF
:10A3E00049FC06000F0001D1002E05D00398C0687B
:10A3F000009949198842DCD3082C0CD103983821E4
:10A40000405C000707D50098405D302803D06D1EE2
:10A410003020009948553C20401B039988610099E1
:10A420004919039AD1600399096B884209DA081A1D
:10A43000039908620398008F0E4901400398018731
:10A4400015E0002913D503993822895C14220A40AB
:10A45000102A0CD10399496B039A5269891A039AFD
:10A46000126A891A0D1A012D01DB0398056205B0E5
:10A47000F0BD0000EFFF0000F3B591B006AA03C8DD
:10A4800002AB03C312A80078202101430091612987
:10A490000BD01198006B002801D5062003E004D1F1
:10A4A000672902D101201199086311984068410081
:10A4B000490DA64B994225D1000310D1119800688F
:10A4C00000280CD103201199886112A80078613806
:10A4D0001A283AD31F4878447A3000900BE00320C2
:10A4E0001199886112A8007861381A2829D31A486E
:10A4F000784464300090032200991198C068FFF7F7
:10A50000D3F9E9E1012919DB914B03409148184344
:10A51000119B586090480D1A0026F6430098612858
:10A5200027D11198C06830210170811C119BD9601E
:10A5300012A90978612915D1782114E00026002597
:10A54000ECE7064878441430D4E7054878441030E6
:10A55000C3E700BFC0820000B4820000AC820000EC
:10A56000B08200005821417011984069801C1199F7
:10A570004861002E03D1002468468680A3E100983C
:10A58000612800D09EE01198046B002C01D5212495
:10A5900000E0641C24B2601C00901198C0C802A89E
:10A5A00003C80022002300F09AFB02D2802000069C
:10A5B000474002A8C0C0281F6946888000260E7642
:10A5C00006A8471C0098012835DB02A803C8002212
:10A5D00080235B0300F09CFB2DD81C2102A800F017
:10A5E000B1FB02A803C800F0EDFB05000098C01FF6
:10A5F000009001280ADB280000F00EFC02000B008E
:10A6000002A803C800F07FFC02AA03C2F81D0721BC
:10A6100004E0401E2A07120F02702D11012D01DBEC
:10A62000491EF6D5491E02D4401E0670FAE7C71D22
:10A6300000980128C9DA06A8401C391A06A8421C4D
:10A64000A14200DA0C0024B2200032D4884205DA9C
:10A6500006A909184978082900DB0F2606A9091858
:10A6600001E0641E491E401E0B78B342F9D00F2E44
:10A6700004D106A909184B785B1C4B70002806D53D
:10A6800006AA641C019800B2001D6946888024B2A5
:10A69000601E0ED411180B783033DBB23A2B03DB7B
:10A6A00012AD2D783A3D5B190B70401E491E0028F3
:10A6B000F1D51198006B002800D404E1601E1199B7
:10A6C000086300E102A803C80022002300F007FB92
:10A6D00006D202A803C880221206514002AA03C271
:10A6E0002DB27E4868437E4900F09AFC6946888016
:10A6F0000720019909B2421A00207A49012A20DB79
:10A70000049202AA30CA00260F000498C00707D599
:10A7100032003B002000290000F0DCFC04000D00AA
:10A720000498401004903000390032003B0000F0E3
:10A73000D1FC06000F0004980028E6D102A830C022
:10A7400029E054420026684F19E000BFFF070000CF
:10A75000FFFF0F800000E03FFE030000E00707D589
:10A7600004A803C832003B0000F0B4FC06000F0050
:10A77000641004A803C804AA0CCA00F0ABFC04AA25
:10A7800003C2002CEAD102A803C832003B0000F04B
:10A7900063FD02AA03C20098662803D1019800B2A3
:10A7A0000A3000E006201199096B0818049014285B
:10A7B00001DB1320049030206946087606A8441C6B
:10A7C000049801283BDB02A803C800F00DFB06003B
:10A7D0000834042530000A2100F025FC0F00300069
:10A7E0000A2100F020FC06003037601E07703000A0
:10A7F0000A2100F018FC0F0030000A2100F013FCC1
:10A800000600A41E303727706D1EE3D1083404986B
:10A81000083804900128D3DB02A803C800F0E4FA4A
:10A8200000F004FB02000B0002A803C800F06BFB61
:10A8300000222E4B00F04EFC02AA03C2C3E706A87A
:10A84000401C201A06A94A1C6B4605E0401E0199CF
:10A8500009B2491E9980521C11783029F6D000990E
:10A86000662903D1019909B2491C04E0652901D187
:10A87000012100E00021119B1B6B5C1824B2A04257
:10A8800000DA040024B221001DD4814204DA505CB5
:10A89000352801DB392000E03020531800E0641E29
:10A8A0005B1E491E1D788542F9D0392802D1505CC3
:10A8B000401C5054002906D5521E641C019800B259
:10A8C000401C69468880019800B2009023B212A80B
:10A8D0000178119800F00CF813B0F0BD97750000E6
:10A8E000A0860100000024400000F03F84D797417B
:10A8F000F3B587B015001C0000F029FD0090406AF8
:10A900000078694608710798076B012C01DA012469
:10A91000ADA508A80178202008430E9E662801D125
:10A92000761C17E0672800D09EE00321C9438E42C1
:10A9300000DA9DE0BE4200DB9AE0761C07983821E1
:10A94000405C000702D4BC4200DA270036B2BF1BCD
:10A9500000D50027079880690799C96809180091F0
:10A9600036B2012E2EDA401C3021009A1170012FD0
:10A9700004DA07993822895C090705D569460979FF
:10A98000079AD2681154401C079988617042874227
:10A9900000DA7E4236B2704207994862BF19A74278
:10A9A00000DA3C0024B20798C4612200290007980D
:10A9B000C068079B9B69C018FEF776FF381B079994
:10A9C0008862E2E0B44220DA220029000098FEF713
:10A9D0006BFF079989690919079A9161301B079ADA
:10A9E0005062012F04DA07983822805C000709D5ED
:10A9F00068460079079AD26850540798C069401C8D
:10AA00000799C86107988762BFE032002900009863
:10AA1000FEF74AFF079880698019A41B012F04DA0A
:10AA200007993822895C090705D569460979079A8B
:10AA3000D2681154401C0799886124B2A74200DAF9
:10AA40003C0024B22200A9190798C068079B9B69A3
:10AA5000C018FEF729FF07988069001907998861D7
:10AA6000381B0799486290E0612914D1702015E0E5
:10AA7000BC4205DA07993822895C090700D427000F
:10AA80007F1E00D5002708A80078672801D165201F
:10AA900004E0452002E0412902D1502008A90870B5
:10AAA00007988069411C079A91612978079AD268B2
:10AAB0001154681C0090012F04DA07983821405C7B
:10AAC000000720D507988169481C079A90616A465B
:10AAD0001279079BDB685A54012F14DB641E24B2E1
:10AAE000A74200DA3C0024B222000099079BDB68F1
:10AAF0001818FEF7D9FE0798806900190799886130
:10AB0000381B079948620798C068079989694118F6
:10AB100008A800780870300003D42B2048708D1CE2
:10AB200003E02D224A708D1C4642002404AF08E049
:10AB30000A2202A800F026FC03983870029E641CCA
:10AB40007F1C31B20129F3DA022C08DA08A8007858
:10AB500020210143652902D1302028706D1C002C72
:10AB600009D1302028706D1C07E0641E04A8005D28
:10AB7000303028706D1C012CF7DA0798C0680799EF
:10AB800089694018281A0799C86107983821405CDC
:10AB900014210140102914D1079840690799896947
:10ABA00040180799496A40180799C96940180799D8
:10ABB000896A40180799496B884202DA081A07998E
:10ABC000086209B0F0BD00003000F1B50E001400BD
:10ABD0000027002B0FD01D002178B068009A904705
:10ABE000B060002806D0F06A401CF062641C6D1E44
:10ABF00001D0F1E7FF433800F2BDF8B504000F00C3
:10AC000015001E0000F0CEFB33002A0039002000A2
:10AC100000F0DCFBF2BDC9B200E0401C02788A42C1
:10AC200002D0002AF9D100207047010000E0491C41
:10AC30000A78002AFBD1081A7047C9B201E0401C0B
:10AC4000521E002A03D003788B42F8D170470020AF
:10AC5000704780B500F0A6FB012002BD70B504006E
:10AC60000D00160000F09EFB32002900200000F0CD
:10AC7000A3FB70BD124224D0994228D970B500259B
:10AC80001B4202D00C00002109E0002401264918D3
:10AC90006441944200D3A41A7641F8D331000126CE
:10ACA00001E0764109D2001864416D41A41A9D412A
:10ACB000F7D2A4185D41B619F5D3300022002B005D
:10ACC00070BD1B42D8D108B5C046C04608BD01D1F1
:10ACD0009042D3D202000B0000210020704730B414
:10ACE000012464054D00EC420BD85D00EC4208D80D
:10ACF0000C001C4364000443144304D2994200D165
:10AD0000904230BC7047FCD08B42FAD18242F8E7C7
:10AD100030B4012464054D00EC420BD85D00EC42D8
:10AD200008D80C001C4364000443144304D28B4233
:10AD300000D1824230BC7047FCD09942FAD1904297
:10AD4000F8E7FEE710B4020050684000400D194BD0
:10AD5000984207D15068000302D11068002811D032
:10AD6000022025E0002823D001290DDB1B1A99427F
:10AD70000AD35068002802D500200F4901E00020C6
:10AD80000E4903C2012013E043428B4209DA5368A3
:10AD90000B4C1C4008180005204350600020C043A5
:10ADA00006E05068802109060840506000201060CD
:10ADB00010BC7047FF0700000000F0FF0000F07FAC
:10ADC000FFFF0F80F4464A1805D200F00FF801D5B6
:10ADD00080174008604700F009F80121C907884240
:10ADE00000D90800404260474A1812D2400DC902FB
:10ADF00008430121C9070843520D40210901521A95
:10AE0000521C06D452421F3201D4D0407047C017A2
:10AE1000704700207047FEE7010009D5F446404224
:10AE200000F006F80122D20711436047010000BF7D
:10AE300042221201D21E004207D002D4521E001834
:10AE4000FCD5C10A40051205891870478B4200D114
:10AE5000824205D98446100062468C46190063463A
:10AE6000DF184C18640D7F0D3AD0661C760537D07C
:10AE7000E61B352E34DCDB022B43DB0A0C0DC9024A
:10AE80002943C912202E0DDB1700203E06D01F00DB
:10AE9000F741F3405F400026012A7741C018714115
:10AEA0000DD217E01700F741F2405740F3415A40E6
:10AEB000B340F3405A400026801859410AD3A21CDF
:10AEC00052050FD0C207012F724117004008CB076F
:10AED00018434908641C24054208AF417041614190
:10AEE000F0BC7047641C21050020F9E76B4010E0BE
:10AEF0006B40ABE7F742F3D1E943F1E72442EFD1EE
:10AF000000200021ECE7F0B40125ED070F005F40C1
:10AF1000EED40C00871A9C4105D2C01BA141D21966
:10AF2000634169406B40AE0ADF184C18F442E1D22D
:10AF3000640D7F0DE2D0E61B362ED1DCDB022B4305
:10AF4000DB0AA4460C0DC9022943C90A012E28DCDC
:10AF500004D1D6075208DF073A435B08EF0A76426E
:10AF60009041994114D039423BD1B61940414941F1
:10AF7000761C394204D1761C001849413942FAD076
:10AF8000B9436746B74208D9A41B24052143A7E764
:10AF90000042EAD13642E8D1A2E7E40AE107002004
:10AFA0009EE7202E0BDD203E1F00F340F7415F405F
:10AFB000012A002257417E42984191410BE017003F
:10AFC000F741F2405740F3415A40B340F3405A40F2
:10AFD0007E42904199410A0303D2641EB619404152
:10AFE00049410027641E24054208AE417841614171
:10AFF000F0BC7047F446002804D4494200F013F82E
:10B00000404260474042002905D45FD000F00BF871
:10B01000404249426047494200F005F849426047D2
:10B0200003460B43E6D40022030A8B420BD20309EA
:10B030008B4219D243088B422ED2411A00D20146CC
:10B04000524110467047FF2209023FD012068B4240
:10B0500005D3121209028B4201D31212090203090D
:10B060008B4219D300E0090AC3098B4201D3CB01FB
:10B07000C01A524183098B4201D38B01C01A52413D
:10B0800043098B4201D34B01C01A524103098B4241
:10B0900001D30B01C01A5241C3088B4201D3CB002C
:10B0A000C01A524183088B4201D38B00C01A52410F
:10B0B00043088B4201D34B00C01A5241884200D34F
:10B0C000401A5241CFD201461046704708B5C046DB
:10B0D000C04608BDF0B50E005E400125ED072E40CC
:10B0E000B446AE0ADF184C18F44208D2F7420ED22A
:10B0F000640D01D07F0D12D100206146F0BD05D155
:10B10000F74201D87F0D05D10020C143F0BDFBD12E
:10B11000640DF9D00020C143490549088FE0E419C6
:10B12000C902DB0229432B43DB0A460DC00231432F
:10B130008E4630B487B295B27D432E0CADB2140C5E
:10B140007C43A419260C240425439CB27C43A419F7
:10B15000190C7943270CC919A4B20F043C43090CFC
:10B16000000C97B247432E0CBE193543ADB2170CF5
:10B170004743360CBF19A6B2BF193E043543240C11
:10B180003E0C36199FB24743BF19BCB23E0C891919
:10B190001F0C47437F183E043443390C704680B27D
:10B1A00097B247432E0CBE193543ADB2170C474337
:10B1B000360CBF19A6B2BF193E043543240C3E0C11
:10B1C00036199FB24743BF19BCB23E0C89191F0CF8
:10B1D00047437F183E043443390C77463F0C90B206
:10B1E00078432E0C80190604ADB22E43050CA0B294
:10B1F0002D18120C7A435019020C80B2240CA4189A
:10B200009AB27A43121914042043120C89181B0CA9
:10B210007B43C91830BCEF0A394203D1B61940410B
:10B220004941641E6F12BF0DE41B0BDBFF19BC42CA
:10B2300011DA240500274208AE4178416141664693
:10B240003143F0BD641C05D1401C6141CF0201D3E4
:10B250004908F4E750E75DE7F0B40E005E400125D1
:10B26000ED072E40B446AE0ADF184C18F4423BD22C
:10B27000F74241D2640D43D07F0D38D0E41BC902A0
:10B28000DB0229432B43CF0ADB0A0600B61A9F4193
:10B2900004D2641EB6197F41B6185F416812800D52
:10B2A00024180018844222DAE80C0021B6197F41E4
:10B2B000B61A9F4102D2B6185F413F1C4041494136
:10B2C000F4D3241C21DD2405B6197F41B61A9F4111
:10B2D00005D33743C60737430026012F704161412C
:10B2E00066463143F0BC7047FCD1F74205D20020DE
:10B2F000C14349054908F3E704D00020C143F1E701
:10B300007F0DFAD000206146ECE72442FAD1401CC0
:10B3100061410F03F6D30020E2E7FEE780B5124853
:10B32000C046C04611A1016041608160C1600161F9
:10B33000416181610EA242628162C1620163416327
:10B340000CA282630DA2C2630164416401BD10B509
:10B350000548C046C04604002068002801D1FFF718
:10B36000DDFF200010BD000050260020000000007E
:10B370002E00000066616C736500000074727565D4
:10B38000000000007CB504000E001500300029000C
:10B39000FFF746FE00904543701B0190684603C8C6
:10B3A00003C473BD80B50348C046C046806902BD72
:10B3B00000000000E4250020002804D10EA003C8EE
:10B3C00003C200207047017001207047002904D19A
:10B3D0000BA003C803C300207047002A02D101203C
:10B3E000C0437047002801D00A7802800978481EBF
:10B3F0008041C043C00F7047000000000000000003
:10B400000000000000000000F0B581B0B64D2878C3
:10B410008100081880002818061DB44CE06A0090CE
:10B4200033690022317830000830B6687700BE19E1
:10B43000B600A6197668B047287800F04AFA68780E
:10B44000401E68702A78521C0021D2B20A2A00D10C
:10B4500000222A7000222B789E00F3189B00EB1824
:10B460001B1D00E0012222702278002A04D0012A4C
:10B4700010D100F011F80DE06162A162020609D05E
:10B480005A88E2621A78521EECD0921E012A01D824
:10B4900000F0A8FC01B0F0BDF0B581B0924B187877
:10B4A0008100081880001818041DC44D2A68E0683F
:10B4B000A18840182169668892B2B2422CD22A68CB
:10B4C00092B2B41A2A681204920C0919001929DFE1
:10B4D00002001ED0112805D1844E306B0821014393
:10B4E000316316E018788100081880001818041DD0
:10B4F0007E4EF06A00902369217820000830A4680D
:10B5000067003C19A40034196468A047042000F0C7
:10B510002CF8286880B224E0B20829DF01001FD08F
:10B52000112805D1714E306B08210143316317E0BA
:10B5300019788A005118890059180D1D6B4EF16A4F
:10B5400000912B690200297828000830AD686F004F
:10B550007D19AD0075196D68A847042000F005F845
:10B5600060886249886201B0F0BDF0B583B0002602
:10B570005D4D5E4C16E029788A00511889006918E3
:10B580000F1DE16A00913B690200397838000830EC
:10B590008446B8684700381880002018476860461D
:10B5A000B847042020702078002848D002280ED008
:10B5B00042D3032809D1206A28DF010005D01128D1
:10B5C000D9D1206B08210143216303B0F0BD266B64
:10B5D00001208643266328788100081880002818F7
:10B5E000051DE8680190754F396889B2FFF71BFDAA
:10B5F00020620090019869884018401E396889B21D
:10B60000FFF711FD0099814203D1022030432063EE
:10B6100002E0022086432663A069002807D10220A9
:10B62000216B014003D1607000F0A0F8CDE700204D
:10B63000607000F01CF8C8E7FFF72EFFC5E76662F0
:10B64000A66268780028C0D0287881000818800099
:10B650002818001D4188E1620078401E05D0801E38
:10B660000128B2D800F0BEFBAFE701209AE770B521
:10B6700082B0AF480068514C0021C943884204D0D1
:10B68000216889B2FFF7CFFC00E06068226821687A
:10B69000401E92B2504389B2FFF7C5FC28DF02007A
:10B6A0001FD0112805D1114D286B082101432963B2
:10B6B00017E00D4801788B00591889004018041DC7
:10B6C0000A4DE86A00902369217820000830A468B8
:10B6D00066003419A4002C196468A0470420FFF701
:10B6E00044FF02B070BD0000B03900201C3C0020B7
:10B6F00070B582B0314C256826688D4800680021FD
:10B70000C943884204D0216889B2FFF78CFC00E06D
:10B7100060682368AF4C2D04AA0C216AB6B271434D
:10B72000401E9BB2584329DF02001DD0112804D1CE
:10B73000206B08210143216316E0B74801788B0094
:10B74000591889004018051DE06A00902B69297876
:10B7500028000830AD686E007519AD006419646882
:10B76000A0470420FFF701FF02B070BD70B582B0A2
:10B77000984C206A28DF01001ED0112804D1206BCC
:10B7800008210143216317E0A3490A7893009A181E
:10B79000920089180D1DE16A00912B690200297839
:10B7A00028000830AD686E007519AD006419646832
:10B7B000A0470420FFF7D9FE02B070BD10000010B2
:10B7C000F0B581B0944D28788100081880002818C1
:10B7D000001DC268574C21684388D218808816180B
:10B7E000300089B2FFF71FFC0F00514800680021AC
:10B7F000C943884204D0216889B2FFF714FC00E0F5
:10B8000060682168C04CE269401E89B24843C11992
:10B81000300029DF02001CD0112804D1206B082140
:10B820000143216315E0287881000818800028185A
:10B83000051DE06A00902B69297828000830AD6862
:10B840006E007519AD0064196468A0470420FFF705
:10B850008CFE01B0F0BD70B582B035480068354C43
:10B860000021C943884204D0216889B2FFF7DBFB7D
:10B8700000E0606821682368A34CA269401E89B279
:10B8800048430100206A401E9BB2584329DF020052
:10B890001DD0112804D1206B08210143216316E03B
:10B8A0005D4801788B00591889004018051DE06A31
:10B8B00000902B69297828000830AD686E00751952
:10B8C000AD0064196468A0470420FFF74EFE02B083
:10B8D00070BD5149820010188000081800210171C4
:10B8E000C1800122C260016141610181704700B5E0
:10B8F000494801788A00511889004018001D0D49F7
:10B900000968C2684388D21880881018401E89B21E
:10B91000FFF789FB7C490A6A824205D306D1C869D0
:10B92000401E8041C00F00BD012000BD002000BDB1
:10B930001410001010000010F0B581B0254C276BDA
:10B9400038073CD4344801788A00511889004518DA
:10B95000281DC1684288891880880818401E6B49D4
:10B96000096889B2FFF75FFBE669002E0BD0216AF8
:10B97000814208D10020A061012139432163607018
:10B98000FFF775FE23E0FFF7B2FF002806D0002086
:10B99000A06102206070FFF7E9FE18E0002E04D0DD
:10B9A00003206070FFF70CFF11E02879042802D013
:10B9B000FFF72AFD0BE00120FFF7D7FD07E0082085
:10B9C000874327635248617889004058804701B017
:10B9D000F0BD00001C3C002000B581B04A48016B5E
:10B9E0000A070FD40C4801788A00511889004018C2
:10B9F0000079042802D0FFF707FD0BE00120FFF7D4
:10BA0000B4FD07E00822914301634149407880007A
:10BA10000858804701B000BDB039002030B581B072
:10BA2000394C256B280735D4206A401C2062A06958
:10BA3000002804D004206070FFF70DFF32E0FFF70C
:10BA400056FF002804D002206070FFF78FFE29E027
:10BA5000E06900280ED00120054206D1284320636A
:10BA600000206070FFF703FE1CE003206070FFF70A
:10BA7000A7FE17E0AD4801788A00511889004018E8
:10BA80000079042802D0FFF7BFFC0BE00120FFF78C
:10BA90006CFD07E00820854325631D486178890017
:10BAA0004058804701B030BD00B581B01648016BE9
:10BAB0000A0709D40222114202D001230B43036377
:10BAC0004270FFF753FE07E00822914301631049DB
:10BAD000407880000858804701B000BD00B581B0B3
:10BAE0000948016B0A0704D401214170FFF700FEE9
:10BAF00007E0082291430163054940788000085817
:10BB0000804701B000BD00001C3C00201000001068
:10BB1000D0BD0100F0B583B0AA4C2078012806D032
:10BB200000D200E103281AD000D2F7E0FBE0302178
:10BB3000615C09070ED47D4D2878810008188000CB
:10BB40002818001D4188A26A891A4180090400D082
:10BB5000C8E018E0216B08229143216317E03021EF
:10BB6000615C0907F6D4206A401C2062FFF7BFFE23
:10BB700000280FD16D4D2878810008188000281802
:10BB80000079042802D0FFF73FFCCCE00120FFF74A
:10BB9000ECFCC8E00320654D00261EE0206A28DF8B
:10BBA000010000D1BFE0112800D17EE029788A0091
:10BBB0005118890069180F1DE16A00913B69020064
:10BBC0003978380008308446B86847003818800053
:10BBD000201847686046B847042020702078002865
:10BBE00000D182E0022803D07CD30328D6D09AE08B
:10BBF000266B012086432663287881000818800080
:10BC00002818071DF86801906F49096889B2FFF785
:10BC10000AFA20620090019879884018401E6A490B
:10BC2000096889B2FFF7FFF90099814203D1022028
:10BC30003043206302E0022086432663A069002887
:10BC400014D10220216B014010D16070206A28DFDE
:10BC5000020068D0112828D02878810008188000B8
:10BC60002818051DE06A00902B692DE00020607007
:10BC7000564800680021C943884205D052490968E6
:10BC800089B2FFF7D0F901E04F4840684E49096892
:10BC9000401E89B248434C49096889B2FFF7C3F98D
:10BCA00028DF01003FD0112804D1206B0821014377
:10BCB000216338E029788A005118890069180D1D20
:10BCC000E16A00912B690200297828000830AD68EC
:10BCD0006E007519AD0064196468A0470420FFF771
:10BCE00044FC20E0FFF7D8FB1DE06662A66268789E
:10BCF000002818D028788100081880002818001D16
:10BD00004188E1620078401E03D0801E012802D9DC
:10BD100009E0012061E700F065F804E004A0617823
:10BD200089004058804703B0F0BD0000B0390020C2
:10BD3000DDBA0100A9BA01001DBA0100D9B901009C
:10BD400039B9010070B582B001001E4C20780200A4
:10BD500035D0042833D002292FD003292FD1302108
:10BD6000615C090729D4616A491C616203290BD00F
:10BD7000022802D0FFF7F9FB21E000BF14A0617890
:10BD80008900405880471AE0C34801788A0051185A
:10BD900089004018051DE06A00902B690D22297862
:10BDA00028000830AD686E007519AD00641964682C
:10BDB000A0470420FFF7D9FB01E0FFF7ABFE02B07C
:10BDC00070BD00001C3C002010000010141000107A
:10BDD0006FB60100F1B601006DB70100C1B70100F7
:10BDE00057B80100F0B585B0AC4CAB4D2878810058
:10BDF000081880002818061DF0680090B7687800C1
:10BE0000C0198000201881896A465181C189118139
:10BE100080680390BF480168009889B2FFF703F972
:10BE2000481E8041C00F03996A4652896B461B89A0
:10BE30005A4389180191B2887188009B5B189E183B
:10BE40000023E361002809D0B248006880B2814233
:10BE500007D00198864201D1100002D0022F00D0F5
:10BE600080E0AC480168009889B2FFF7DCF82062F6
:10BE7000032013E028788100081880002818061D88
:10BE8000E06A00903369317830000830B668770096
:10BE9000BE19B600A6197668B04704202070207835
:10BEA000002848D002280ED042D3032809D1206AA6
:10BEB00028DF020005D01128DCD1206B08210143C6
:10BEC000216305B0F0BD266B0120864326632878E8
:10BED0008100081880002818071DF86800908D4917
:10BEE000096889B2FFF79FF8050000987988401823
:10BEF000401E8849096889B2FFF795F8854203D149
:10BF000002203043206302E002208643266325623C
:10BF1000A069002807D10226206B304003D166704B
:10BF2000FFF724FCCDE700206070FFF7A0FBC8E717
:10BF3000FFF7B2FAC5E76062A06268780028C0D057
:10BF400028788100081880002818001D4188E162C7
:10BF50000078401E04D0801E012800D846E7B0E7D4
:10BF600001209BE76B4801680098801889B2FFF7B1
:10BF70005AF88808A06167480168300089B2FFF765
:10BF800052F8002923D00198864220D00746614804
:10BF90000168B6B2BFB2380089B2FFF741F800902D
:10BFA00030005C49096889B2FFF73AF8009981428C
:10BFB00001D1B81B09E057480768BFB230005549A6
:10BFC000096889B2FFF72CF8781A8008E061022628
:10BFD00002201EE0206A28DF010000D171E711284D
:10BFE00000D16AE729788A005118890069180F1D65
:10BFF000E16A00913B6902003978380008308446D4
:10C00000B868470038188000201847686046B8476D
:10C01000042020702078002829D0022803D087D35C
:10C020000328D7D04DE7276B012087432763287863
:10C030008100081880002818001D0190C068009039
:10C040003449096889B2FEF7EEFF050000980199AE
:10C0500049884018401E2F49096889B2FEF7E3FF5E
:10C06000854201D13E4351E7B74327634FE7606202
:10C07000A0626878002800D123E72878810008189A
:10C0800080002818001D4188E1620078401E00D021
:10C0900061E70120BDE70000B03900201C3C002012
:10C0A00070B500249B48048001000C310522080073
:10C0B000083804708B1F1C80012008604C608C6065
:10C0C0000D1F2C800C73CC8148618C61CC610C827B
:10C0D0002831521EEBD1904D2C82904800680D4EB5
:10C0E0000021C943884204D0316889B2FEF79BFF22
:10C0F00000E070683168801E89B2484368612C6234
:10C100006C60AC81EC812C706C62AC6204202863A2
:10C11000002070BD10000010F0B582B004000F00C8
:10C120007D4D3020285C400701D4082061E0002CC0
:10C1300005D0002F03D020680190002801D10E20E7
:10C1400057E077480068A1886A46118069460988E7
:10C1500080B2884223D3102921DBE68830001ED02C
:10C160006E4800680021C943884206D06C490968BE
:10C1700089B2FEF758FF010001E06948416868484C
:10C1800002686869491E92B251436A461288564352
:10C190008219914203D369460988890701D0072093
:10C1A00027E02E8A012E01D1042022E03E60786033
:10C1B00072009119890069188860019A4A606A467C
:10C1C00012888A81E288CA8155490968544A1768E9
:10C1D0000090A088E2885043401E89B2FEF720FFFD
:10C1E000411CBFB27943009840186861761C2E82CA
:10C1F000002002B0F0BD10B4474B30241C5D640732
:10C2000001D408201BE0002801D0002A01D10E2013
:10C2100015E00468002C0CD15C68002C09D09C89C6
:10C220004068614340189968DB895C43091988427A
:10C2300001D3072003E0002111605060002010BCF2
:10C240007047F1B582B00420334C256B054001D115
:10C2500008202CE0002902D0029D002D01D10E20E3
:10C2600025E02D68002D14D16568002D11D0A58919
:10C27000029E76680096B446A768E6896E43BE19AA
:10C28000B44506D2160004D0954202D3D618B54262
:10C2900001DA07200BE0032529420AD12B4208D1FD
:10C2A00066462E4205D11B4D6E780A2E03D103B08F
:10C2B000F0BD1020FBE7287880190A2800D30A383F
:10C2C0008600301880002E180120307171610298AC
:10C2D00003C837000C3703C7F28033816878401CED
:10C2E00068702078002813D1287881000818800011
:10C2F0002818001D4188E1620078401E05D0801E8C
:10C30000012805D8FFF76EFD02E00120FFF72DF9A7
:10C310000020CCE7B03900201C3C00201410001095
:10C3200010000010F0B581B004000D00604E302008
:10C33000305C400701D408203AE0002D01D0002CE9
:10C3400001D10E2034E02868002814D1706800283C
:10C3500011D06868B1688C46F789B1894F4361464E
:10C36000C919884207D2110005D0B189914202D380
:10C37000D718B94201DA07201AE003273C4216D148
:10C380003B4214D1384212D11700C1182000FDF7EA
:10C390008BFA009723000022022128002C686500F8
:10C3A0002C19A40034196468A047002000E0102074
:10C3B00001B0F0BDF1B582B00C003D4D3020285CDD
:10C3C000400701D4082061E00298002801D10E2026
:10C3D0005CE00068002821D1686800281ED0A868A9
:10C3E000E989AA8951434718029949680091B942DD
:10C3F00014D20326314213D1081AA989FEF713FE7D
:10C4000000290BD12000A989FEF70AFE002905D1D9
:10C41000200003D000980019874203D2072035E09E
:10C42000102033E0234A50780A282ED011780818BB
:10C430000A2800D30A3881000818800013181E71DA
:10C4400000265E61029803C81F000C3703C7DC801A
:10C450001E815078401C50702878002813D1107825
:10C460008100081880001018001D4188E9620078DA
:10C47000401E05D0801E012805D8FFF7B3FC02E05E
:10C480000120FFF772F8002000E0042003B0F0BDA7
:10C4900009490978490701D408207047002801D1CB
:10C4A0000E20704703494978016000207047000062
:10C4B0001C3C0020B03900204C3C002070B5060028
:10C4C0000D000C20FCF754FD04001CD00C21FDF7DE
:10C4D000E7F925812846FCF74BFD6060002808D06D
:10C4E00022893100FDF7E0F92100534800F024FFD4
:10C4F00070BD00F095FF0100F522504800F0B4FF38
:10C500002000FCF7B1FE70BDF6B581B00600002535
:10C5100009E02100300000F02DFF6068FCF7A4FE68
:10C520002000FCF7A1FE3468002C24D06846008966
:10C53000854220DA278968460089401BB84203DA21
:10C5400068460089471BBFB23A00616801984019EC
:10C55000FDF7AAF9ED19ADB220898742D9DA390081
:10C560006068FDF79DF92089C21B2281606892B244
:10C57000C119FDF799F9280003B0F0BDF0B583B0FB
:10C580002F4D6C68002C54D02E4EB07D002831D039
:10C5900022896168300001F05DF807001CD000F0CE
:10C5A0003FFF0100FF22343227A000F05DFF00F0C2
:10C5B00037FF029661680191218900913B009A2220
:10C5C0005200010027A000F04FFF00F029FFFF22DA
:10C5D0003632010034A020E000F022FF9C225200FD
:10C5E000010000BF37A000F03FFF2189606800F024
:10C5F0001FFF14E000F014FFFF223E32010000BFD5
:10C6000036A000F031FF2189606800F011FF00F0D2
:10C6100007FFFF224032010036A000F025FF210075
:10C62000281D00F0A7FE6068FCF71EFE2000FCF746
:10C630001BFE03B0F0BD0000D43D00204CCF010034
:10C64000D83D0020A02000205B25645D5B253035AF
:10C65000645D202A2A2A206572726F72202A2A2A93
:10C660000D0A00005B25645D5B253035645D20624A
:10C670006C652073656E64206572726F722E636FD5
:10C680006465203D2025642C206C656E67746820ED
:10C690003D2025642061646472203D20307825703F
:10C6A00020307825700D0A005B25645D5B253035F0
:10C6B000645D202A2A2A2A2A2A2A2A2A2A2A2A2A77
:10C6C0000D0A00005B25645D5B253035645D2062EA
:10C6D0006C652073656E64206F6B2E005B25645D56
:10C6E0005B253035645D2061636B20646174613A61
:10C6F000000000005B25645D5B253035645D2070C3
:10C70000656572206465766963652068617320647D
:10C71000697361626C6564206E6F746966696361D8
:10C7200074696F6E206F7220646973636F6E6E65DB
:10C73000637465642E0D0A00F0B585B0564C207800
:10C74000002802D0012815D0A5E1606800280FD18B
:10C7500064206081FCF70CFC6060002800D19CE143
:10C7600000F05EFEB62252000100CD4800F07CFED3
:10C77000012020706068002800D18CE12189628945
:10C78000521A92B2411820001030FFF7BDFE060089
:10C79000208900D1FEE0801920810025A58100F0CC
:10C7A0003FFE218900913300BD2252000100BD48A7
:10C7B00000F05AFE3100606800F03AFE218960689E
:10C7C00000F010FA694608826846008A002877D08F
:10C7D00000F026FE69460B8AC02252000100B248D2
:10C7E00000F042FE6068002800D156E16089694689
:10C7F000098A411A89B2080064310E1A6421FEF7D1
:10C8000012FC642148433718BFB200F009FE638967
:10C8100003976946098A591A029101956946098A5E
:10C8200000918A220100A14800F01EFE6846008A9D
:10C830002189884232D200F0F3FD9F2201009C48FA
:10C8400000F012FE3800FCF793FB060026D000F043
:10C85000E7FD23896946098A591A01916946098ABF
:10C860000091A422010000BFB8A000F0FDFD2589C1
:10C870006846008A2A1A60686946098A41183000A9
:10C88000FDF712F86846008A281A20816068FCF7D4
:10C89000EBFC6781666000E1C43D002000F0C0FD54
:10C8A000B4220100834800F0DFFD6068FCF7DCFC87
:10C8B0006420FCF75DFB6060642060812581ECE012
:10C8C0002089618988425CD300F0AAFDFF2286326C
:10C8D000010000BF78A000F0C7FD6068002850D0BC
:10C8E0006189643189B2080064310E1A6421FEF74F
:10C8F0009AFB642148433718BFB200F091FD638969
:10C900000397190064310291019600958A22010073
:10C9100098A000F0A9FD00F083FD9F22010000BF58
:10C92000A2A000F0A1FD3800FCF722FB060016D003
:10C9300000F076FD238901930095A422010000BF39
:10C9400082A000F091FD6568228929003000FCF783
:10C95000ABFF2800FCF788FC6781666011E000F0FF
:10C960005FFDB422010000BF97A000F07DFD60686C
:10C97000FCF77AFC6420FCF7FBFA606064206081BD
:10C98000258100F04DFDC4225200010054A000F0AA
:10C990006BFD82E0002800D17FE0A0893230A081C9
:10C9A00000F03EFDA389C8225200010054A000F00F
:10C9B0005BFDA089642870DB00F032FDC9225200C3
:10C9C000010000BF57A000F04FFD19E000F028FD66
:10C9D0002389591B01910095A42201005BA000F05E
:10C9E00043FD2089421B606841193800FCF75CFF59
:10C9F0002089401B20816068FCF736FC66816760F7
:10CA00002189080049D0606800F0ECF8050000D1E9
:10CA1000022560680028F3D06089411B89B20800B4
:10CA200064310E1A6421FEF7FEFA64214843361879
:10CA3000B6B200F0F5FC010063890396581B029022
:10CA40000020019000958A224AA000F00DFD2800E8
:10CA500002D021898D420BD200F0E2FC9F2201001E
:10CA600052A000F001FD3000FCF782FA0700ADD1C2
:10CA700000F0D6FCB422010053A000F0F5FC606881
:10CA8000FCF7F2FB6420FCF773FA606064206081BD
:10CA90000020208101E00020207005B0F0BD0000E2
:10CAA000DC260200002702002827020074CB0100C8
:10CAB000ACCB0100C8CB01005B25645D5B25303544
:10CAC000645D20627566662069732066756C6C2CE7
:10CAD00020617070656E64696E672E2E2E0D0A00DF
:10CAE0005B25645D5B253035645D207061636B2080
:10CAF0006E6F7420636F6D706C6574650D0A000055
:10CB00005B25645D5B253035645D20646174612064
:10CB1000627265616B20666F72202564206D730DF3
:10CB20000A0000005B25645D5B253035645D206490
:10CB300061746120627265616B2074696D65207437
:10CB40006F6F206C6F6E670D0A0000005B25645DDF
:10CB50005B253035645D20726563765F6C656E20A1
:10CB60003D202564202D202564203D2025640D0ACC
:10CB7000000000005B25645D5B253035645D206E40
:10CB800065775F6D616C6C6F635F6C656E203D20D7
:10CB90002564202D202564202B202564203D202580
:10CBA00064202D3E2025640D0A0000005B25645D95
:10CBB0005B253035645D20726573697A6520627526
:10CBC000666665720D0A00005B25645D5B25303585
:10CBD000645D206162616E646F6E20627566666579
:10CBE000720D0A00F3B581B00024054600280DD16E
:10CBF00096E0641C00F014FC0100EE22520000BF1D
:10CC00004CA000F031FC0198A4B2051968460089D7
:10CC1000061B052E79D3287869780906090C084384
:10CC2000C8498842E5D100F0FBFBA978EA781206F2
:10CC3000120C114300912300FF22C632010000BFF5
:10CC400043A000F011FCA878E9780906090C084314
:10CC5000BD49884266DAA878E9780906090C0843D4
:10CC600086424ADBA878E9780906090C08430828B7
:10CC700043D3A878E9780906090C08432818401E10
:10CC80000678A878E9780906090C0843421E2900AD
:10CC90000020002A16D093079B0F05D00F78C019EB
:10CCA000C0B2491C5B1EF9D192080BD00B78C0189A
:10CCB0004B78C0188B78C018CB78C018C0B2091D4B
:10CCC000521EF3D133274740BE4209D1280000F05D
:10CCD0000BFAA878E9780906090C0843241892E7AA
:10CCE00000F09EFB00973300FF22D032010000BF0E
:10CCF00023A000F0B9FB641C85E700F091FBFF2244
:10CD0000D43201002CA000F0AFFB00F089FB23001F
:10CD1000FF22E232010000BF2FA000F0A5FB20009F
:10CD200003B0F0BD641C00F07BFBEC22520001005C
:10CD300031A066E75B25645D5B253035645D206866
:10CD4000656164206572726F722E2E2E0D0A0000CE
:10CD50005B25645D5B253035645D2068656164201A
:10CD6000666F756E64204025642C206672616D6567
:10CD70005F6C656E6774683A20253034580D0A0080
:10CD80005B25645D5B253035645D2063686B73757E
:10CD90006D206572722C207061636B3A20307825AB
:10CDA0003032582C206C6F63616C3A20307825301B
:10CDB00032580D0A000000005B25645D5B253035AC
:10CDC000645D207061636B20696E636F6D706C656C
:10CDD00074650D0A000000005B25645D5B2530353D
:10CDE000645D207061727365645F6C656E67746802
:10CDF000203A2025640D0A005B25645D5B253035F3
:10CE0000645D206672616D65206C656E6774682074
:10CE10006572720D0A000000F0B583B00027002093
:10CE2000A7498C6800E02468002C6ED0010003D074
:10CE300061688979C909F6D1A0893238A08100B228
:10CE4000012800DB7BE061688878CA781206120C42
:10CE50001043C0B201900CE02A890099FCF724FD30
:10CE60002900984800F068FABF19FFB20098FCF753
:10CE7000FBF9019887424ADAC01B142803DA0198AB
:10CE8000C61BF6B200E014263000FCF771F80090E3
:10CE9000002827D032006068C1190098FCF704FD13
:10CEA0000C20FCF765F8050014D00C21FCF7F8FC09
:10CEB00030002881FCF75CF868600028CCD100F0D5
:10CEC000AFFA0100F52200BF20A000F0CDFA280043
:10CED000FCF7CAF900F0A4FA7B4A010023A000F095
:10CEE000C3FA12E000F09CFA85229200010000BF14
:10CEF0001EA000F0B9FA2100C14800F03BFA6068BA
:10CF0000FCF7B2F92000FCF7AFF903B0F0BD61689F
:10CF10008879C009EFD0A07B401EA07340B20128E1
:10CF200002DB6420A081F0E7A2681000E3D008795A
:10CF30004B791B061B0C1843C0B29047DBE701205E
:10CF400071E7000055AA0000891300005B25645DAD
:10CF50005B253035645D206E6F6465206D616C6C9F
:10CF60006F63206572726F722E0D0A005B25645D1F
:10CF70005B253035645D206D616C6C6F632065727C
:10CF8000726F722E0D0A0000F7B582B01F003A4290
:10CF900000D092E0380002D0002900D18DE00C9D35
:10CFA00001215140394300D000250B9E300008304C
:10CFB000FBF7DEFF040077D0B2482070AA20607033
:10CFC00030000830A070000AE070380004D00398E8
:10CFD00000882071000A03E03948007820710020A1
:10CFE00060716846007ABF210140B80108434006DD
:10CFF000400E6946097CC9010143A17132000A99BA
:10D00000E01DFCF751FCA178E0780006000C01431C
:10D0100068460180A078E1780906090C0843421EA1
:10D0200020000021002A16D093079B0F05D0067818
:10D030008919C9B2401C5B1EF9D192080BD0037844
:10D04000C9184378C9188378C918C378C918C9B2F0
:10D05000001D521EF3D133204840694609886118EB
:10D06000491E08701020FBF783FF060019D010211D
:10D07000FCF716FC7460B5600520B0730020B08129
:10D080000F4C31002000083000F056F9002F06D177
:10D0900020780399002900D00880401C20700120CE
:10D0A0000CE02000FCF7E0F800F0BAF99F229200B3
:10D0B000010000BF05A000F0D7F9002005B0F0BDC9
:10D0C000D83D0020DC3D00200D0200005B25645DA2
:10D0D0005B253035645D206F7574206F66206D654B
:10D0E0006D6F72790D0A0000F0B581B0070000D1B4
:10D0F00084E0B879644E8109C90752D5B4683F20ED
:10D1000000E02468002C79D00E2161560529F8DA58
:10D1100061688A79D309F4D00240BB7903409A420E
:10D12000EFD10A794B791B061B0C1A4339797B79AD
:10D130001B061B0C19438A42E3D1B97908403569B3
:10D1400000E02D68002D14D0297A814211D02D687D
:10D15000002D0ED0297A81420BD02D68002D08D0E9
:10D16000297A814205D02D68002D02D0297A81428A
:10D17000E7D100F055F93B7979790906090C0B43A1
:10D18000424A010052A000F06FF92100300008303F
:10D1900000F0F0F86068FCF767F82000FCF764F82E
:10D1A0001BE08006800EF56800E02D68002D14D08D
:10D1B000297A814211D02D68002D0ED0297A814222
:10D1C0000BD02D68002D08D0297A814205D02D681A
:10D1D000002D02D0297A8142E7D1002D0ED0686857
:10D1E00000280BD000F01CF90100AF22920000BF14
:10D1F00040A000F039F938006968884701B0F0BDF7
:10D20000E03D002070B504000E0001D1002070BD8B
:10D210001D4DE86800E00068002814D0017AA142A2
:10D2200011D0006800280ED0017AA1420BD000680E
:10D23000002808D0017AA14205D00068002802D059
:10D24000017AA142E7D1002802D10C20FBF790FE21
:10D25000002815D00021002200230EC00C384660A3
:10D260000472010028000C3000F066F800F0D8F8D5
:10D2700001002300B522920025A000F0F5F801205E
:10D2800070BD000055AA0000D83D0020AD0200008E
:10D29000002800D0C01D7047010007D08878CA78E8
:10D2A0001206120C1043083880B2704700207047F5
:10D2B000010005D008794A791206120C1043704714
:10D2C00000207047002802D080798006800E7047C9
:10D2D0005B25645D5B253035645D20726563762077
:10D2E00061636B206F66206672616D652025750D28
:10D2F0000A0000005B25645D5B253035645D2063BA
:10D30000616C6C6261636B20666F756E640D0A0000
:10D310005B25645D5B253035645D20726567206345
:10D320006D643A3078253032782063616C6C6261CC
:10D33000636B0D0A0000000000291AD00268002A61
:10D3400001D1016013E0106800280FD01268106846
:10D3500000280BD002001068002807D002001068D7
:10D36000002803D0020010680028EFD111600020CF
:10D3700008607047002924D00268002A21D0914219
:10D3800005D10A68026009E0884205D002001068F1
:10D39000002816D0884204D1086810600020086078
:10D3A00070470200106800280BD08842F4D00200B9
:10D3B0001068002805D08842EED0020010680028CE
:10D3C000E2D1704770B5050028680026002826D0F5
:10D3D00001680C002A68002A1DD0904202D1296001
:10D3E00018E01A001368002B15D0834211D01A00E0
:10D3F0001368002B0FD083420BD01A001368002B48
:10D4000009D0834205D01A001368002B03D0834251
:10D41000E7D111600660FBF727FF2000D8D170BD6F
:10D4200000B58BB06846FCF70BFA08980BB000BD4E
:10D4300070B500290DD004000D0000BF08A62178AA
:10D44000300000F011F8012000F04BF9641C6D1E53
:10D45000F5D102A000F008F870BD00000D0A000030
:10D4600025303258200000000EB400B582B003A968
:10D4700000916B4602000121034878440A30FCF712
:10D4800063FA029906B008472754000070B590B0BF
:10D490000400032101A8FCF705FA112501A8057075
:10D4A00045708178F9220A4002211143817008A851
:10D4B00000210022002300264EC00EC008A80078DC
:10D4C0001221014308A8017009960B960C9601A839
:10D4D0000D900E9602A82178817072490180032177
:10D4E0006846FCF7DFF96846057045708178E322ED
:10D4F0000A4003211143817003A800210022002368
:10D500000EC006C002A803906846049003A801213B
:10D51000018146811421818123000C3303AA08A9CB
:10D520006088A2DF10B070BD002800D1704710B530
:10D53000002926D00A88102A04D0112A04D0502AA3
:10D5400005D010BD898800E05749818210BDCA8886
:10D55000048AA2420CD1CB8B022B09D12022895CF8
:10D56000CA07D20F511E8941C943C90F817510BD29
:10D5700083889A4205D183691A0002D0CA8B203170
:10D58000984710BD70B594B004000E000FA800BFFE
:10D5900048A11022FCF79CF9002C01D0002E01D1EB
:10D5A0000E2055E04048A0823068A0610025A57596
:10D5B00021000FA863DF00284AD102A821788170DA
:10D5C0003A490180A21C02A90120A0DF00283FD116
:10D5D00031002000FFF75AFF002839D108A80021A8
:10D5E0000022002300264EC00EC008A800780C219F
:10D5F000014308A8017009950B950C950D950E95A2
:10D6000001A8217881702A49018003216846FCF72E
:10D6100049F911206946087048708878E322024071
:10D6200003201043887003A80021002200230EC0AD
:10D6300006C001A803906846049003A80121018157
:10D64000458114218181231D03AA08A96088A2DFD6
:10D6500014B070BD74B585B0002801D10E201FE054
:10D66000828A114B9A4202D0827D002A01D1082081
:10D6700016E06A46928A152A01DB072010E06A4606
:10D68000002300240025002678C26A46838913807F
:10D69000039105A90291012191706946808AA6DF54
:10D6A00006B070BD36120000FFFF0000341200000B
:10D6B00035120000FB349B5F8000008000100000EA
:10D6C00000000000401E00BF00BF00BF00BF00BF41
:10D6D00000BF00BF00BF00BF00BF00BF00BFF1D14F
:10D6E000704711B581B0064C05E00198401E0190CD
:10D6F0002000FFF7E7FF01980028F6D102B010BD27
:10D70000E703000070B500253A4E3468FFF788FE45
:10D710003368262201003848FFF7A6FE14200121B5
:10D720000C4200D06D1C6408401EF9D1280070BD69
:10D73000F1B50C00002600252E484768200002D0D5
:10D740000098002801D1002011E00922391D00981D
:10D750004019FCF7A9F8380000F096FD07000935DC
:10D76000761C641E200601D0002FEED1F0B201B06D
:10D77000F0BD000070B505000E00002D20D01D4842
:10D78000446803E0200000F07FFD0400002C2DD051
:10D790000322691D2000093000F081FD0028F1D12D
:10D7A000287A217B02000A40D2091FD0084040009D
:10D7B000E8D0FFF735FE01002300832283A013E0A9
:10D7C000300015D00B48446803E0200000F05CFDF9
:10D7D0000400002C0AD02079B042F6D1FFF720FED9
:10D7E0002300932201007748FFF73EFE200070BD22
:10D7F000002070BD0C3E002028DA0100F1B582B097
:10D80000002801D10D20DAE06F48446803E02000D1
:10D8100000F03AFD0400002C25D003220298411D9F
:10D820002000093000F03BFD0028F0D10298007A7A
:10D83000217B02000A40D2090BD008404000E6D00C
:10D84000FFF7EEFD01002300832200BF5FA0FFF77A
:10D850000BFEFFF7E5FDAA22010000BF68A0FFF75D
:10D8600003FE0920ABE0002757480568FFF7D8FD05
:10D8700055490B68262201006BA0FFF7F5FD142027
:10D880000126354200D07F1C6D08401EF9D1142FAF
:10D8900007D24D480068E040304012D0641C142C80
:10D8A000F7D3FF24029804700298007815280ADB49
:10D8B000FFF7B6FDB022010069A0FFF7D5FD0720F4
:10D8C0007DE0641CEEE7FFF7ABFD142100910299A7
:10D8D0000B78B322010000BF6BA0FFF7C5FD0D2040
:10D8E000FBF746FB050007D1FFF79AFDB7220100C1
:10D8F00071A0FFF7B9FD09E009220299281DFBF785
:10D90000D3FF0F20FBF734FB040001D10B2056E0BE
:10D9100009220299FBF7C8FF029800F0ABFA210038
:10D92000093100F0D1FC00220D21200000F0D6FCCE
:10D930006073000AA073FFF773FD0700617BA07B93
:10D940000006000C0143684681802000093000F089
:10D950009BFC0300684680880090C322390000BF0A
:10D960005EA0FFF781FD0F212000FFF761FD00237E
:10D9700010222100207800F025FD00280BD0FFF7B1
:10D980004FFDC8220100D948FFF76EFD2000FBF7CC
:10D990006BFC012013E02900D548FFF7CDFC02986D
:10D9A0000078401E8640142808D2074800683100DD
:10D9B0000140012902D0064303480660002003B05D
:10D9C000F0BD0000F4DC01000C3E00205B25645D2E
:10D9D0005B253035645D5B74696D5D206E6F6465D9
:10D9E000202D2D207365656B206E6F64652061644A
:10D9F00064723A307825702E2E2E0D0A0000000039
:10DA00005B25645D5B253035645D5B74696D5D200D
:10DA100050544C5F4552524F525F53414D455F4504
:10DA200056542E0D0A0000005B25645D5B253035E1
:10DA3000645D5B74696D5D206D5F74696D696E67AF
:10DA40005F6576656E745F69645F6C697374203DB1
:10DA5000203078253038782E2E2E0D0A0000000058
:10DA60005B25645D5B253035645D5B74696D5D20AD
:10DA700050544C5F4552524F525F4F55545F4F4682
:10DA80005F4556542E0D0A005B25645D5B253035DD
:10DA9000645D20616C6C6F63617465206964203D16
:10DAA000203078253032782E206D6178203D20306E
:10DAB00078253032780D0A005B25645D5B253035B2
:10DAC000645D5B74696D5D204E52465F4552524FF6
:10DAD000525F4E4F5F4D454D2E0D0A005B25645D34
