:020000040001F9
:108000004828002055870100DB870100E787010031
:108010000000000000000000000000000000000060
:1080200000000000000000000000000001880100C6
:108030000000000000000000038801000588010026
:1080400007880100098801000B8801000D880100E4
:108050000F88010000000000118801001388010052
:108060001588010017880100198801001B8801008C
:108070001D8801001F88010021880100238801005C
:108080002588010027880100298801002B8801002C
:108090002D8801002F8801003188010033880100FC
:1080A0003588010037880100000000000000000052
:1080B00000000000000000000000000000000000C0
:1080C000032083490860002082490860F039086075
:1080D000814A012313610B68002BFCD008605060BB
:1080E00010607E498880704770B57D490022CA6360
:1080F0007C4B4B637C4B8B63784B9C686400A41C6B
:108100004C60C34C0C60794C22600325714E356085
:10811000002804D0E2600120BE49086070BD1869E3
:10812000886070BD10B5002071490860684901245D
:108130000C608860C860FFF7C3FF6848047010BD1A
:1081400070B500246B4804600125A9070D60016823
:108150000029FCD0614E7069011D0D608D6066497B
:1081600041180C60A0225200821814605460946080
:10817000D4602A04C1239B00C250D2098550042236
:10818000CA60A549A822D200815082214900121D4F
:1081900081500560F460A548016809070AD4A44924
:1081A000026C0A60426C4A60826C8A60C26CCA606F
:1081B000006D086130690100FC22914326D140B274
:1081C00028302D2822D2FFF77BFFA24831690160B9
:1081D000032141608169FF2291438161816971229C
:1081E0000A4382619C49016145620462FF21091DC5
:1081F0008162491D8160A549C16074703570A448D1
:10820000016810220A430260002070BD042070BD86
:10821000F8B59F48016810220A4302602F4E70692A
:10822000A021490040180090794F0024012500E06A
:10823000046098480068002835D096480460022001
:1082400095490860307804282DD17248056093481C
:108250000068012823D138780007000F7A780328B6
:108260001DD2262A1BDA002807D100BF94A1B81C12
:1082700000F03AF9002812D10EE0012801D10F20B8
:1082800000E05520002104E07B189B78834206D152
:10829000491CC9B29142F7DBB088401CB08027214D
:1082A000380000F05DF90098006800280098BFD100
:1082B00040680028BDD000984460B078C006C00E69
:1082C000854075480560F068401CF060F2BD000014
:1082D00008F501400012004000100040002000207E
:1082E000041500405B060000555555000011004084
:1082F000401500400001004004050000FBB51100DE
:10830000674C0198A060012565700026E680207802
:10831000030001D10520FEBD009B002B07D0032BDD
:1083200008D1012808D0A088E9030143E180FFF7C4
:10833000F9FE43E0012802D0E5800220FEBDA068DE
:10834000282802D3E5800120FEBDA68030480427FE
:10835000009B012B07D1272100F002F90120FFF734
:10836000C3FE27702AE0022B28D1D2B2262A02DBD4
:10837000E5800320FEBD029B1B071B0F03704270AC
:10838000029A521C032A41D801A39B5C9F4400BF60
:108390003E04303A0A0000BF49A1801C00F0E2F818
:1083A0000020FFF7A1FE3F486169A0225200891812
:1083B000C1603D4901610560022020700020FEBDC2
:1083C0000F22801C00F0A4F8EAE75522F9E7002903
:1083D00011D0022908D00ED30329EFD1019800F063
:1083E0003DF80028EAD104E0019800F023F80028C5
:1083F000E4D10420FEBD0020FFF776FE03202B49C8
:1084000008602B490D6028490D60D6E7E580F0E74C
:108410001C2000200410004071020000204A517806
:1084200000235370D288026008007047AC0000102F
:10843000241700401A490A78022A05DA42B2283283
:108440002D2A01D2820701D0002070470861012047
:10845000704700000C1500400029417610490A7849
:10846000022A11DA002805D1124808228A704861D0
:1084700001207047012802D10F480922F6E702289F
:1084800002D10E480A22F1E70020704725000300C0
:1084900010ED00E00C11004080E200E0001400400C
:1084A0000020002004F5014000100040401500406D
:1084B00000120040008000400090004000A00040FA
:1084C000FFC1FBE84C90728BE7B3518963AB232368
:1084D00002841872AA612F3B51A8E53749FBC9CA2B
:1084E0000C18532CFD00000010B402E0401C491C85
:1084F000521E002A09D00B7804789C42F6D002D292
:108500000020C04302E0012000E0002010BC7047C2
:108510001206130A1A43130C1A4300BF094205D06E
:10852000830705D00270401C491EF9D17047000036
:10853000130030B414001500103902D310393CC0B8
:10854000FCD2490700D30CC000D504C0890002D377
:108550000280801C002900D5027030BC70470000EA
:108560000022E5E7124207D08B0706D00B78491CA2
:108570000370401C521EF7D87047830706D00B7853
:10858000491C0370401C521EF9D1704770B4103A58
:1085900003D378C9103A78C0FBD2530701D318C966
:1085A00018C001D508C908C0D20704D30B880380BE
:1085B000891C801C002A01D50B78037070BC7047A1
:1085C000FEB50025002600242E48032101604461E9
:1085D00004202D49C86009212B4A51612B49516261
:1085E0002B4F3C607C61FC6110602A490C602A487A
:1085F000012181600160FFF7A3FD002805D0002064
:10860000C043FEBD012614000500FFF701FE3968D6
:108610000029FAD0002139601B498969C9B20A02D0
:108620003300EFD02B0015338342ECD3002620001B
:108630000C000443A00B02903F2220121040019036
:10864000A0100240A3079B0F032B01D10023DB43A3
:1086500001990298FFF752FE6846FFF7DFFE0028F7
:10866000D3D000980004000E0749C861786901283A
:10867000FCD17E610098C0B2C86178690128FCD144
:108680007E61C2E7100700500025004000A04E00A8
:1086900008210040042300400020004010B5F022D3
:1086A0000F2018490B78012B1BD14B68034018D1C0
:1086B0008B68134202D1CC6814400CD0F0241C40CB
:1086C000102C02D1CC68144005D01340302B08D1B7
:1086D000CB68134005D10C4B0C4C2360E30B0C4CC6
:1086E00023600B78012B0CD14B68184009D18868A6
:1086F0001040402805D1C868024002D10120054938
:10870000086010BDE00F00F0DFFF07C00405004067
:10871000186C00400806004030B5016841184468F4
:1087200062088A188368E40701D54C461B199142F8
:1087300001D10C3030BD0C7864B2491C0D78491C55
:108740001D705B1C002C02D5641CF9D1EFE7641E80
:10875000F4D5ECE70321064802680A4302600548A5
:1087600002680A430260044880470448004700004A
:1087700024050040540500409D860100F587010056
:1087800010B5074979441831064C7C44163404E08E
:10879000081D0A68891888470100A142F8D110BD58
:1087A000080000001400000071FFFFFF8C000000B3
:1087B00026000000002000200120C046002801D033
:1087C000FFF7DEFF002000BF00BFFFF7F9FE00F05B
:1087D00000F880B500F002F801BDFEE70746384614
:1087E00000F002F8FBE7FEE72021090326311820FC
:1087F000ABBEF9E700BF00BF00BF00BFFFF7DCFF63
:10880000FEE7FEE7FEE7FEE7FEE7FEE7FEE7FEE740
:10881000FEE7FEE7FEE7FEE7FEE7FEE7FEE7FEE730
:10882000FEE7FEE7FEE7FEE7FEE7FEE7FEE7FEE720
:10883000FEE7FEE7FEE7FEE702000008F3000004A3
:0B884000FC00058000400024F4D7007D
:04000005000187F57A
:00000001FF
