:020000040001F9
:1080000080300020F58001000F8101001181010006
:108010000000000000000000000000000000000060
:1080200000000000000000000000000013810100BB
:108030000000000000000000158101001781010010
:10804000198101001981010039860100198101009F
:1080500019810100000000006982010019810100FE
:1080600019810100198101001981010019810100A4
:108070001981010019810100198101001981010094
:108080001981010099850100198101001981010000
:10809000C185010019810100C98501001981010014
:1080A000198101001981010000000000000000009A
:1080B00000000000000000000000000000000000C0
:1080C0000348854600F09CF80048004759B201007B
:1080D00080300020401E00BF00BF00BF00BF00BFB7
:1080E00000BF00BF00BF00BF00BF00BF00BFF1D195
:1080F000704700000321094802680A4302600848EB
:1081000002680A4302600748804707480047FEE7C5
:10811000FEE7FEE7FEE7FEE7FEE70000240500407D
:108120005405004001860100C180010030B50B46B6
:10813000014600202022012409E00D46D5409D4241
:1081400005D31D469540491B2546954040191546C7
:10815000521E002DF1DC30BD03460B439B0703D0BC
:1081600009E008C9121F08C0042AFAD203E00B78FC
:108170000370401C491C521EF9D27047D2B201E074
:108180000270401C491EFBD270470022F6E710B572
:1081900013460A4604461946FFF7F0FF204610BD75
:1081A000F0B51FB40646002082B005464024019178
:1081B00000901BE0019922460F46304600F042F83D
:1081C000049A059B801A994110D3104619462246FD
:1081D00000F028F8361A8F4101972246012000212D
:1081E000009F00F01FF838184D4100902046641E93
:1081F0000028DFDC019B00982946324607B0F0BD1D
:10820000064C0125064E05E0E36807CC2B430C3CE9
:1082100098471034B442F7D3FFF756FF58C901000E
:1082200078C9010010B5202A04DB0146203A9140AC
:10823000002010BD914020239C1A0346E3401943BF
:10824000904010BD10B5202A04DB0846203AD040EB
:10825000002110BD0B46D340D0402024A21A9140EB
:108260000843194610BD0000F0B587B00026002075
:108270000690FF20013005900125002416E00598A6
:1082800003F09CFA00280BD000BF564840682840F5
:10829000002805D0059803F089FA304628430646A1
:1082A0006D000598001D80B20590641C042CE6D377
:1082B000FF207D3003F082FA00280AD0FF207D30B5
:1082C00003F074FA0120C007064300BF4648006966
:1082D00006903007000F00282AD00125002425E051
:1082E0002846304000281FD000BF404851210901D6
:1082F0004018A10040581F2109020840000A0490BC
:1083000000BF3A48512109014018A10040580321FB
:1083100009040840000C0390204602F0ADFA07461D
:1083200003990498B84700BF6D00641C042CD7D390
:10833000F00FC007002852D000244EE02C48005710
:10834000401C002848D02A48005D0490C0210498B1
:1083500088430746384602F0D5FA029002F08CFABC
:1083600003900398002836D0C0210498084080115B
:1083700002900120B840054600BF052000070721F4
:1083800009024018B9004058032109040840000CB4
:10839000019006982840002802D00198022806D0B3
:1083A00006982840002815D10198032812D1029878
:1083B00003280BD10198022801D1032000E00220FC
:1083C00000903846009903F0B7F900BF3846039A89
:1083D0000299904700BF00BF641C062CAED307B0C3
:1083E000F0BD000000630040000500500060004048
:1083F000A0270020C206D20E01219140014A11603F
:108400007047000080E200E0C206D20E01219140D8
:10841000014A11607047000000E100E0C206D20E80
:1084200001219140014A11607047000000E200E024
:1084300010B5002819DA1A4A03071B0F083B9B08DE
:108440009B00D2588307DC0EFF23A3409A438B077F
:108450001B0E8407E40EA3401A43114B0407240F9C
:10846000083CA408A4001A5118E00E4A03231B027A
:10847000D21883089B00D2588307DC0EFF23A34049
:108480009A438B071B0E8407E40EA3401A43054B47
:10849000032424021B198408A4001A5110BD0000F3
:1084A0001CED00E000E100E010B5002819DA1A4ADE
:1084B00003071B0F083B9B089B00D2588307DC0E69
:1084C000FF23A3409A438B071B0E8407E40EA340AF
:1084D0001A43114B0407240F083CA408A4001A51A6
:1084E00018E00E4A03231B02D21883089B00D258BF
:1084F0008307DC0EFF23A3409A438B071B0E8407E0
:10850000E40EA3401A43054B032424021B198408DC
:10851000A4001A5110BD00001CED00E000E100E0D5
:1085200010B5002819DA1A4A03071B0F083B9B08ED
:108530009B00D2588307DC0EFF23A3409A438B078E
:108540001B0E8407E40EA3401A43114B0407240FAB
:10855000083CA408A4001A5118E00E4A03231B0289
:10856000D21883089B00D2588307DC0EFF23A34058
:108570009A438B071B0E8407E40EA3401A43054B56
:10858000032424021B198408A4001A5110BD000002
:108590001CED00E000E100E010B500200749086094
:1085A0000021064841608160C160002003494039D4
:1085B0000860486003F0D8FE10BD00004011014083
:1085C00010B503F081FD10BD70B50C48006800289F
:1085D00010D00A4800688047044600BF2546002D99
:1085E00006D000BF00221146284600F0C3FC00BFA1
:1085F00000BF01E002F064FC70BD0000F420002028
:1086000010B502F0E9FC002805D00748074948608A
:10861000C8130749886102F0C3FC002802D001207A
:108620000449886010BD0000DFFF07C0000500405E
:10863000006C0040000600401CB5234880680028FC
:1086400022D000202049886020488069C1B220489B
:1086500000F0CAFC0446002C08D0012069460870CE
:10866000019468461B49096888470CE0184802F0E5
:108670007FFB012807D1002069460870684615492C
:108680000968884700BF00BF0F48C069002805D0AF
:1086900000200D49C861032003F00EFA0A48406A21
:1086A00000280FD000200849486208488038046834
:1086B000046002206946087001946846054909680B
:1086C000884700BF1CBD000000210040002500407D
:1086D00038270020782000200FB410B503A9044BE0
:1086E000044A029800F026F810BC08BC04B01847F1
:1086F00085AD0100EC20002030B47446641E25785E
:10870000641CAB4204D3635D5B00E31830BC1847C4
:108710001D46F8E702E008C8121F08C1002AFAD176
:1087200070477047002001E001C1121F002AFBD1F1
:1087300070470000FFB591B00F460546002606E0E1
:1087400025280AD0149A139990476D1C761C287816
:108750000028F5D1304615B0F0BD00240094012169
:10876000F34A029400E004436D1C2B780846203B3A
:1087700098401042F7D128782A280ED00221287874
:108780000246303A092A15D8009A0A235A43303A49
:1087900080180C436D1C0090F1E701CF0090002879
:1087A00005DA012040030443009840420090022073
:1087B00004436D1C28782E2815D1042004436878C2
:1087C0006D1C2A280AD101CF6D1C02900BE0029982
:1087D0000A225143303940186D1C02902878014616
:1087E00030390929F3D928786C2810D006DC4C28B8
:1087F0001AD068280ED06A2817D104E0742813D044
:108800007A2812D110E00120400504430CE0012138
:10881000090501E0032109050C436978814203D170
:108820000120000524186D1C6D1C287803906E280B
:108830001ED00CDC632831D004DC00288AD05828F4
:1088400011D1B2E064287BD069280CD178E073287C
:108850002DD004DC6F2870D0702804D1A7E07528D3
:108860006CD078286BD0149A13999047761C62E0EC
:108870006002400F022807D003280AD00428386875
:108880000AD006603F1D56E03868F1170660416067
:10889000F8E738680680F5E70670F3E73878694648
:1088A00008740020487404A80390012003E038688D
:1088B00003900020C0433F1D61070FD5002101E058
:1088C0000199491C029A0191914213DA8142F7DB26
:1088D000019A0399895C0029F2D10BE0002101E0A3
:1088E0000199491C01918142FADB019A0399895C43
:1088F0000029F5D101990098139A401A0090214659
:10890000149B00F03BF901998019461807E0039881
:1089100003990078491C0391149A13999047019880
:10892000401E0190401CF2D12146149B139A0098DE
:1089300000F014F986196D1C09E741E033E034E0DA
:108940000A200021049005916002410F022905D000
:1089500001CFC2179446032905D007E0FF1DFF0889
:10896000FF0003CF06E000B2C2179446042902D1EB
:1089700040B2C1178C4600226146944506DA0A4689
:108980000021404291418C462D2102E0210504D571
:108990002B216A461176012103E0E10701D0202155
:1089A000F7E7019154E00A200BE0102009E01020C5
:1089B000049000210420044308200591029003E064
:1089C00008200021059104906002410F022905D082
:1089D00001CF00229446032906D006E0FF1DFF08C0
:1089E000FF0003CF8C4603E080B2042900D1C0B25F
:1089F0000021019121072BD50399702906D0049AF3
:108A00001021059B4A401A4305D00EE040216A46DA
:108A10001176012108E06146014306D030216A4603
:108A200011760399517602210191049A0821059B40
:108A30004A401A430CD16146014301D1610707D571
:108A400030216A461176012101910299491E029155
:108A50000399582904D037A103910FA90F910DE074
:108A600039A1F9E76146059B049AFFF799FB039B3F
:108A70008C469B5C0F9A521E0F9213706146014305
:108A8000F0D10F9807A9081A20300390600704D589
:108A9000012000048443029801E001200290039920
:108AA000884201DD401A00E0002041180290019840
:108AB00009180098401A0090E00306D42146149B40
:108AC000139A009800F05AF886190020049008E0E4
:108AD00006A9085C149A139990470498401C761CC8
:108AE000049001998842F3DBE0030CD52146149BE6
:108AF000139A009800F042F8861904E0149A302086
:108B000013999047761C0299481E02900029F5DCC3
:108B100008E00F980F990078491C0F91149A139947
:108B20009047761C0399481E03900029F1DCFBE670
:108B30000928010030313233343536373839616233
:108B400063646566000000003031323334353637F7
:108B5000383941424344454600000000F8B5044618
:108B600000251E461746880404D405E03946202017
:108B7000B0476D1C641EF9D52846F8BDFFB5044604
:108B8000002581B01E46C80301D5302700E020270C
:108B9000880404D505E038460399B0476D1C641E6F
:108BA000F9D5284605B0F0BD10B5054802F0E0F84B
:108BB000002802D000F006F801E000F02DF810BD0A
:108BC0004827002008B50F480078022802D001206D
:108BD0000D49886069460D4800F0DCF9002802D094
:108BE00000F01AF808BD80200949886068460078BE
:108BF0000849C86102200349087080200449486080
:108C000000BFEFE77C200020002000404827002024
:108C100000230040002500401CB501200549C86024
:108C200005490870032069460870684603490968C9
:108C300088471CBD002000407C20002078200020B8
:108C400000200549087001200449C86048600020E0
:108C500003490860704700007C200020002000408D
:108C600000250040F8B504460F46154600260020B2
:108C700028702078002809D02A463946204602F07C
:108C80005CFB0646002E01D03046F8BDA0780028D7
:108C900008D02946384600F0BDFB0646002E01D01C
:108CA0003046F2E7E07800280ED002212A78501CE6
:108CB0002870B95401212A78501C2870B954E178E1
:108CC0002A78501C2870B954606800280BD0002006
:108CD000616808562A46394603F00CFC0646002E09
:108CE00001D03046D1E7208900280CDD3B46062222
:108CF000022120460830009503F051FD0646002E63
:108D000001D03046C1E7208A00280CDD3B4607220F
:108D1000032120461030009503F041FD0646002E49
:108D200001D03046B1E7208B00280CDD3B461522F0
:108D3000142120461830009503F031FD0646002E20
:108D400001D03046A1E7206A002809D02A463946DA
:108D5000206A01F053FE0646002E01D0304694E70B
:108D6000606A002809D02A463946606A02F0B0FAE3
:108D70000646002E01D0304687E72C20005D0028F3
:108D800009DD2A463946204603F06CF80646002ED7
:108D900001D0304679E7304677E70146C8780422AB
:108DA0001040002801D1072070470020FCE710B5D3
:108DB00001220221002001F0C7F9044600BF002C67
:108DC00003D0072C01D0204610BD00BF072202218E
:108DD000012001F0B9F9044600BF002C03D0072C94
:108DE00001D02046F0E700BF0A220021084601F02A
:108DF000ABF9044600BF002C03D0072C01D020465D
:108E0000E2E700BF0020DFE730B5A3B0302117A8AC
:108E1000FFF7BBF9022110A8017701218177052115
:108E2000C17730210BA8FFF7B0F90121684681878F
:108E300011491091242102A8FFF7A7F901216846E2
:108E4000017540200690B420079000200B4B02AA29
:108E50000BA9009017A800F03FFB044600BF254671
:108E6000002D06D000BF00221146284600F082F8EF
:108E700000BF00BF23B030BD0220002001B80100B8
:108E8000014600BF064A50680122D2058243044BC6
:108E90009A600122D2050240DA6000BF70470000EC
:108EA0000005005010B5002407E0E100064A1268F2
:108EB000505C012102F0A8FA641C04480078844246
:108EC000F3D3002010BD0000A8200020AC2000201B
:108ED000FEB506460C461746052F01D20720FEBDFB
:108EE00002F0A8FB002806D102F07CFB0546002D0D
:108EF00001D02846F3E71648066016480470164865
:108F000007600020154908601549086015E0E00079
:108F10008019019013480068009001988078694694
:108F2000487001990878104A694602F0D1FA05465E
:108F3000002D01D02846D2E700BF2046611ECCB2EA
:108F40000028E4D1094A0021094800F063F8C6E787
:108F5000A8200020AC200020B0200020B820002055
:108F6000BC2000200CC9010021AE010015AC01009D
:108F7000B420002000BFBFF34F8F04480449C860ED
:108F8000BFF34F8F00BF00BFFEE700000400FA05EB
:108F900000ED00E070B504460D46204601F0EDFE00
:108FA00000280AD0A068A18808402168085C2870C1
:108FB000A068401CA060002070BD0520FCE70346AF
:108FC000002901D10E207047002A03D0501E104006
:108FD000002801D00920F6E71960501E9880002073
:108FE0009860D86000BFEEE770B504460D46204695
:108FF00001F0C3FEA188884209D8E068A188084032
:1090000021680D54E068401CE060002070BD042021
:10901000FCE7000070B503460C46194800680028BC
:1090200001D1082070BD002A01D10720FAE7002BEA
:1090300001D10720F6E700211CE024204843104D11
:109040002D68285C002814D10125242048430C4EAB
:109050003668355424204843094D2D684019447022
:1090600024204843064D2D68401982611960002074
:10907000D8E7491C034800788142DEDB0420D1E7B1
:10908000C4200020C0200020FFB581B00E46174646
:109090001C4620468107890F002901D1012100E0EB
:1090A0000021002902D1072005B0F0BD002C01D11C
:1090B0000720F9E702F016FE26490A9808602648BC
:1090C00006702648046000250CE000212420684337
:1090D000224A1268115424206843204A12688018DA
:1090E00001756D1CB542F0DB242070430419032088
:1090F0001B4908701B480460183400250CE0E90087
:10910000184A126888180021017041708770446005
:10911000182179430C196D1C032DF0DB0020C0438E
:109120001149086000201149087011490870142085
:10913000FFF760F903211420FFF7F2F91420FFF77D
:1091400063F9019802F0A4FD02F09CFD0949086052
:109150000020A9E7E4200020C0200020C420002037
:10916000C8200020CC200020D0200020E0200020BB
:10917000E1200020D4200020FEB504460D4616460E
:1091800016480068002801D10820FEBD1448007868
:10919000844201D2052D01D20720F6E72420604346
:1091A0000E490968085C012801D00820EDE7242059
:1091B00060430A49096840184078012801D12846CF
:1091C00000E00020074603F0C1FA3B462A4621464C
:1091D0000096019003F07EF8D7E70000C42000203D
:1091E000C020002070B504460D480068002801D159
:1091F000082070BD0B480078844201D30720F8E7AF
:109200002420604306490968085C012801D0082031
:10921000EFE703F09BFA0546214603F085F8E8E7FF
:10922000C4200020C020002010B50446214602487A
:10923000FFF7B0FE10BD000038270020FFB583B057
:1092400004460E460020614908706149059808608F
:10925000002E02D1072007B0F0BDB08882B25D4871
:109260003168FFF7ACFE0546002D01D02846F2E735
:10927000B08982B25848B168FFF7A1FE0546002DBB
:1092800001D02846E7E76078032205210907072374
:109290001B02C9188300CA5000BF207800218A0031
:1092A00005231B0707273F02DB198700DA5100BFA0
:1092B00060784A49C86020784861A068486260794F
:1092C000002804D00E2045494031C86203E0002048
:1092D00042494031C8622079022843D102F0AAF9FC
:1092E000002806D102F07EF90546002D01D028465F
:1092F000B1E73B4800680290A07802A902F0A4F907
:109300000546002D01D02846A5E70020C04333497B
:109310000861A078886031484030C06A0121084364
:109320002E494031C8622E48001D00680190E07847
:109330002C4A01A902F0CCF80546002D01D02846A0
:1093400089E7E078012102F05FF8E07802F03AF96D
:10935000002803D0002002F0AFFB02E0012002F061
:10936000ABFB0EE02079012806D1204603F076F908
:1093700001201649087004E003F050F90120134958
:1093800008700C980088002808D1174801780C98BC
:10939000018015480078401C134908700020C04324
:1093A00012498860A120800048600220012181408C
:1093B0000F4A116000BF0699FFF73AF80220012119
:1093C00081400C4A116000BF002044E77C2000204F
:1093D0007820002038270020482700200025004062
:1093E00004C90100A1AE0100742000200023004048
:1093F00080E200E000E100E070B504462146044848
:10940000FFF7F2FD0546022002F056FB284670BD2C
:1094100048270020F8B505460C462078001D1F2877
:1094200001DD0C20F8BD684679DF0646002E01D02C
:109430003046F7E703212278501C2070A9541921E7
:109440002278501C2070A954207841196846008861
:1094500003F024F92178401820700020E2E7F3B5EA
:1094600093B00D460021129111911398002814D049
:109470001398FFF792FC0446002C02D0204615B04A
:10948000F0BD12AA09A91398FFF7ECFB0446002CC3
:1094900001D02046F3E709AE00E00026002D13D0EE
:1094A000284602F0B9FD0446002C01D02046E6E72C
:1094B00011AA01A92846FFF7D5FB0446002C01D0CC
:1094C0002046DCE701AF00E0002710A803793A4608
:1094D000017A304672DFD2E7FFB581B00446154607
:1094E0001E460A9F002C01D0002D02D10E2005B08F
:1094F000F0BD0020494908704948066049480760A6
:10950000242229464848FEF727FE00F087F94748FD
:10951000474908604748886030214748FEF735FED4
:10952000207845490870A0788870E078C870607825
:109530004870084662692169426101610146E2683A
:10954000A068CA6088600846E269A169C261816159
:10955000606A00281BD03948374948623849816021
:10956000606A00883449496A0880606A80883249A4
:10957000496A8880002005E0616A8968095C304A90
:109580001154401C2C49496A89888142F4D8A06A48
:10959000002824D02B492C4881602749886229491A
:1095A0002548806A8160A06A80882349896A88800A
:1095B000A06A00882049896A0880002005E0A16A25
:1095C0008968095C1F4A1154401C1B49896A8988B3
:1095D0008142F4D82C20015D174820300173206AA5
:1095E00000280BD0194814490862206A4088096A8B
:1095F0004880206A00881049096A0880606800284D
:1096000004D013480C494860606848600A480299D1
:10961000FFF725FF0090009869E700004C2000202C
:1096200044200020482000205026002084260020CE
:1096300074260020A426002020260020C426002016
:10964000D0260020FC260020F026002050200020FC
:109650005420002070B504462088102804D011281A
:1096600006D0192876D11AE0A0883C49088072E01B
:1096700000203B490870A0883849098888420DD1EC
:10968000012000F003F90546002D07D03548006899
:10969000002803D028463349096888475BE0A07951
:1096A000002856D130480078012806D0022816D06C
:1096B000032826D004284AD138E02CA0FFF70CF864
:1096C000022000F0E3F80546002D07D02548006889
:1096D000002803D0284623490968884738E02FA08E
:1096E000FEF7FAFF032000F0D1F80546002D07D061
:1096F0001C480068002803D028461A490968884792
:1097000026E00320324908703248FEF7E5FF0320C7
:1097100000F0BCF80546002D07D01248006800286C
:1097200003D028460F490968884711E000202849DE
:10973000087029A0FEF7D0FF37480068002804D041
:109740002348007834490968884701E002E000BFF7
:1097500000BF00E000BF00BF70BD00005620002029
:109760004D200020482000204C2000205B41445622
:109770005D3A2054696D6564206F75742066726F60
:109780006D206469726563746564206164766572D6
:10979000746973696E672E0D0A0000005B414456C0
:1097A0005D3A2054696D6564206F75742066726F30
:1097B0006D20646972656374656420736C6F7720D3
:1097C0006164766572746973696E672E0D0A0000B4
:1097D0004020002010C901005B4144565D3A2054EE
:1097E000696D6564206F75742066726F6D20736C8F
:1097F0006F77206164766572746973696E672C2077
:1098000073746F7070696E672061647665727469D5
:1098100073696E672E0D0A004420002010B50721E1
:109820000148FEF7B2FC10BD3920002010B51348E6
:10983000007801281FD11248007800281BD1114858
:109840000078002805D074DF0446002C01D02046A3
:1098500010BD01200A4908700A48007800F016F887
:109860000446002C07D008480068002803D0204692
:109870000549096888470020EAE7000050260020D3
:109880004D2000204C2000204820002030B587B01B
:109890000546AB48057000200090684602F0DAF9F2
:1098A0000446082C02D10020009004E0002C02D0D5
:1098B000204607B030BD0098002804D00120A149FF
:1098C00008700020F5E7FFF7A9FF9F4840780028BF
:1098D00003D09B480078012807D09B488078002857
:1098E00012D09748007802280ED1984800680028C6
:1098F00007D00120964908700820944909688847D4
:1099000002E00020924908708D48007801280BD1B0
:109910008D484078002804D08E4802F04BF900288A
:1099200002D10220864908708548007802280BD1B0
:1099300085488078002804D0864802F03BF900284A
:1099400002D103207E4908707F48007B002806D1A1
:109950007B480078032802D10420794908707A48AE
:10996000007E002808D176480078042804D1002021
:10997000734908707849087074480068002817D047
:109980006F480078032803D06D48007804280FD171
:109990006D48007800280BD070480078002807D167
:1099A00001206F490870072068490968884702E06C
:1099B00000206B490870182101A8FEF7E6FB002182
:1099C00068460171002002906846017300200490EF
:1099D0005B480078012806D0022814D0032829D03B
:1099E00004287DD15CE05FA0FEF776FE5948401E5A
:1099F00002900121684601710021C182818201200B
:109A00005549087085E057A0FEF766FE5148401E94
:109A100002900121684601714B48008981B2684675
:109A2000C1824948808881B26846818202204A49C1
:109A300008706EE04448808A81B26846C18242481C
:109A4000008A81B268468182504802F02AFF0028CD
:109A50001FD03D48007800281BD0404800780028DF
:109A600017D10220694608734848049004204849E9
:109A7000C87000214648FFF7F2FC0446002C01D0D4
:109A8000204616E705203449087042A0FEF724FE60
:109A900005E00320304908704CA0FEF71DFE38E0B9
:109AA0002948808B81B2684681822748008C81B228
:109AB0006846C182354802F0F4FE002821D02248D1
:109AC000007800281DD025480078002819D10220F0
:109AD000694608732D48049004202D49C87000E0A1
:109AE00016E000212A48FFF7BAFC0446002C01D0FA
:109AF0002046DEE60620184908703EA0FEF7ECFD81
:109B000005E004201449087048A0FEF7E5FD00E0D8
:109B100000BF00BF0A480078002806D001A873DF04
:109B20000446002C01D02046C3E6084800680028FF
:109B300004D0094800780549096888470020B8E63C
:109B40004C200020382000205026002044200020F7
:109B50004F2000203A200020402000204D200020EF
:109B60004E2000205B4144565D3A2053746172746C
:109B7000696E6720646972656374206164766572DA
:109B8000746973656D656E742E0D0A00742600206D
:109B9000202600205B4144565D3A20537461727464
:109BA000696E67206661737420616476657274699A
:109BB00073656D656E742077697468207768697461
:109BC000656C6973742E0D0A000000005B414456F9
:109BD0005D3A205374617274696E672066617374B4
:109BE000206164766572746973656D656E742E0D9F
:109BF0000A0000005B4144565D3A20537461727460
:109C0000696E6720736C6F77206164766572746922
:109C100073656D656E742077697468207768697400
:109C2000656C6973742E0D0A000000005B41445698
:109C30005D3A205374617274696E6720736C6F773C
:109C4000206164766572746973656D656E742E0D3E
:109C50000A00000070B505461C2229461448FEF78C
:109C60007BFA002013490870286800280BD00822CE
:109C700011482968FEF770FA0F487ADF0446002C75
:109C800008D0204670BD0C487BDF0446002C01D074
:109C90002046F7E70020C043084908800020084913
:109CA0000870084A00210848FFF7B4F9EAE7000005
:109CB0001C27002070200020582000206220002057
:109CC00060200020B1C601006C20002010B50446C1
:109CD0002088102806D0112808D012280ED050282D
:109CE00010D107E0204601F047FE0CE0204601F0CD
:109CF000A3FE08E0204601F005FF04E0204601F045
:109D00002FFE00E000BF00BF10BD000010B50446EC
:109D10002046FFF7DBFF2146064800F051F82046B9
:109D200001F08CFD2046FFF795FC204600F0F8F886
:109D300010BD00000C21002070B586B004460E4610
:109D40001D4B0FCB01AD0FC5002C01D0002E02D151
:109D50000E2006B070BD0020C043A0823068A06114
:109D60000020A075214601A863DF0546002D01D023
:109D70002846EEE721786846817510498182A21C49
:109D800005A90120A0DF0546002D01D02846E0E707
:109D90003146204601F0D2FF0546002D01D028466D
:109DA000D7E73146204602F033FB0546002D01D0AF
:109DB0002846CEE70020CCE7F4C8010034120000AA
:109DC00070B505460C46002D01D0002C00D170BDA9
:109DD0002088102804D0112807D050280FD109E07E
:109DE0002146284601F0E6FD0AE02146284601F01A
:109DF00045FE05E02146284601F0B2FE00E000BF26
:109E000000BF00BFE3E7000037B584B004460D464D
:109E1000002C02D10E2007B030BDA08A0F49884225
:109E200002D0A07D002801D10820F4E76846008B0D
:109E3000142801DD0720EEE7002000900190029039
:109E40000390A18968460180039506A8029001212C
:109E500068468170A08A6946A6DFDCE7FFFF000044
:109E60007CB500BF002348221B49092002F0A0F85E
:109E7000054600BF2E46002E06D000BF0022114628
:109E80003046FFF777F800BF00BF00BF002000900A
:109E9000019069460870684660DF044600BF2546A9
:109EA000002D06D000BF002211462846FFF762F8B9
:109EB00000BF00BF094802F06FF8044600BF254606
:109EC000002D06D000BF002211462846FFF752F8A9
:109ED00000BF00BF7CBD0000282100200D9D0100B7
:109EE00070B505460C4600260B480560002C09D0CD
:109EF000204602F099F8064600BF002E01D03046F9
:109F000070BD00BF05480068002802D1FEF74FFF72
:109F100006463046F4E700002C20002030200020C8
:109F200070B505462888102802D0112832D118E0D3
:109F30001A48006800280ED100F010FE044600BF49
:109F4000002C07D016480068002803D0204614498A
:109F50000968884700BF11480068401C0F49086025
:109F600019E00E480068401E0C4908600846006869
:109F700000280ED1FEF71BFF044600BF002C07D0BF
:109F800007480068002803D020460549096888472B
:109F900000BF00E000BF00BF70BD00003020002007
:109FA0002C20002010B5032000F0EEFB044600BF7B
:109FB000002C03D0062C01D0204610BD00BF00208D
:109FC000FBE70000F3B581B006460025002400E061
:109FD000641C042C04D2A00029490858B042F7D1CF
:109FE000042C42D20298002825D0012802D0022851
:109FF0003AD133E06000201822490D5C600020183F
:10A000004018407800280ED01F4800680A225043AC
:10A0100001461E4A1E480068FFF7AEF80746002FAB
:10A0200001D11A480670600020181649401880783F
:10A030001849085518E016480068FFF7D3F8154886
:10A04000005D610061180F4A89188978884204D13F
:10A050006000201811464018857805E0600020183F
:10A0600008494018457800BF00BF002D07D00A48B6
:10A070000068002803D02846074909688847FEBDC4
:10A08000C4C80100142600200C2000202420002039
:10A0900020200020252000201C20002010B5024692
:10A0A000042A0FD2094B1B69D8439300084CE45C87
:10A0B0000123A3400340002B01D0012300E0002333
:10A0C0000B7001E000200870002010BD000500505A
:10A0D000C4C8010070B50546042D09D0072D1BD05A
:10A0E0000A2D02D00D2D2AD128E001F01DFF27E016
:10A0F00013211448008876DF0446082C0BD000BFDB
:10A100002646002E06D000BF002211463046FEF73C
:10A1100031FF00BF00BF13E0FFF788FB0446082CA7
:10A120000BD000BF2646002E06D000BF00221146ED
:10A130003046FEF71FFF00BF00BF01E000E000BF98
:10A1400000BF70BD0020002030B503460020042B66
:10A1500024D2012A07D1012903D11C460D34E4B2CF
:10A1600000E00024224600290FD0012902D0022954
:10A1700011D104E05C001C19094D2A550DE05C006A
:10A180001C19074D6419627007E05C001C19044D2E
:10A190006419A27001E0072000BF00E0072030BD75
:10A1A0001426002070B50446002506480078C00734
:10A1B000C00F002803D0204600F070F8054628465E
:10A1C00070BD000010200020F7B505460E460024A3
:10A1D0002748066027480560274902980860022042
:10A1E0002840002822D0002706E0012211463846E8
:10A1F000FFF7AAFF04467F1C042F01D2002CF4D0E5
:10A20000002C05D1720804211C48FEF761FE0446AB
:10A21000002C02D1FEF746FE0446002C05D1184A58
:10A2200000211848FEF7F6FE044600BFE807C00FFD
:10A2300000280AD000BF0F20400513498860002085
:10A24000C86000BF0F2040058861002C05D10F4A6F
:10A2500000210F48FEF7DEFE0446002C05D10D4A12
:10A2600001210D48FEF7D6FE04462046FEBD000043
:10A270000C200020102000201C200020D4C8010049
:10A28000E5A70100202000200005005045B0010096
:10A2900014200020818E010018200020F8B504460B
:10A2A000002500262300FEF727FA180D18195C9FD9
:10A2B000F7F5F4F3F2F1F0EFEEEDECEBEAE9E8E7B5
:10A2C000E6E5E4E300BF0B204005FB498860002081
:10A2D000C86000BFF94804704FE200BF00BF05200E
:10A2E0008005F54988600020C86000BF08464068C6
:10A2F0000F214905484001214905084000280FD099
:10A3000000BF0846EC4988600020C86000BF022CEE
:10A3100002D1E120C00001E07D20400106460EE0B0
:10A3200000BF01204005E449C8600020886000BFEC
:10A33000022C01D1C82001E0FF2091300646DF4801
:10A34000047064213046FDF7F1FEDD490968484399
:10A35000074600223946DB480068FEF70DFF054638
:10A360000BE200BF05208005D34988600020C8604B
:10A3700000BF084640680F214905484001214905B2
:10A38000084000280FD000BF0846CB498860002055
:10A39000C86000BF032C02D11920400101E07D20DC
:10A3A000400106460EE000BF01204005C249C860DA
:10A3B0000020886000BF032C01D1C82001E0FF20ED
:10A3C00091300646BD48047064213046FDF7AEFE6C
:10A3D000BB4909684843074600223946B948006826
:10A3E000FEF7CAFE0546C8E100BF05208005B24958
:10A3F00088600020C86000BF084640680F214905FA
:10A40000484001214905084000280FD000BF0846F8
:10A41000A94988600020C86000BF042C02D17D20BB
:10A42000400101E07D20400106460FE000BF012011
:10A430004005A149C8600020886000BF042C02D1FB
:10A44000FF20913001E0FF20913006469B480470C8
:10A4500064213046FDF76AFE99490968484307467A
:10A460000022394697480068FEF786FE054684E1DB
:10A4700082E176E174E161E14EE13BE12FE1F4E05C
:10A48000F2E0F0E0EEE0ECE0E2E0C9E0B2E099E01A
:10A4900082E06FE042E0FFE700BF052080058649CB
:10A4A00088600020C86000BF084640680F21490549
:10A4B000484001214905084000280ED000BF084649
:10A4C0007D4988600020C86000BF052C01D1C820EC
:10A4D00001E07D20400106460EE000BF012040055E
:10A4E0007549C8600020886000BF052C01D1C820D4
:10A4F00001E0FF2091300646704804706421304628
:10A50000FDF714FE6E4909684843074600223946A4
:10A510006C480068FEF730FE05462EE100BF0520BE
:10A520008005654988600020C86000BF0846406813
:10A530000F2149054840012149050840002806D05F
:10A5400000BF08465C4988600020C86007E000BF83
:10A55000012040055849C8600020886000BF574866
:10A56000047057480022016856480068FEF704FE50
:10A57000054602E100BF052080054F4988600020A4
:10A58000C86000BF00BF01204005C860002088608F
:10A5900000BF4A480470F0E000BF47494868012105
:10A5A00089058143444A9160012189050140D160B8
:10A5B00000BF43480022016842480068FEF7DCFD06
:10A5C0000546DAE000BF3C4948680121890581431E
:10A5D000394A9160012189050140D16000BF3848A6
:10A5E000006882008118002236480068FEF7C4FD2A
:10A5F0000546C2E000BF3049486801218905814312
:10A600002D4A9160012189050140D16000BF2C488D
:10A61000002201682B480068FEF7AEFD0546ACE05D
:10A6200000BF25494868012189058143224A91607C
:10A63000012189050140D16000BF214800688200E6
:10A64000811800221F480068FEF796FD054694E039
:10A6500000BF0F2040051849C8600020886000BF77
:10A660008BE000BF00BF00BF00BF17480068FEF7C7
:10A67000B9FD05461120061B002E27D0002D25D13F
:10A68000012E10D9C821714308466421FDF74EFD03
:10A690000B49096848430746002239460A480068C2
:10A6A000FEF76AFD054600BF0120C0050249C860EB
:10A6B0000020886012E00000000500500820002003
:10A6C0000C200020142000201820002000BF0120B2
:10A6D000C0052B4988600020C86000BF4DE000BF66
:10A6E0000F204005264988600020C86000BF25482B
:10A6F000047042E000BF07208005214988600020E7
:10A70000C86000BF00BF01204005C860002088600D
:10A7100000BF1C48047030E000BF0D204005184900
:10A7200088600020C86000BF00BF01208005C860AD
:10A730000020886000BF134804701EE000BF0320A3
:10A74000C0050F4988600020C86000BF00BF03201B
:10A750004005C8600020886000BF0A4804700CE013
:10A7600000BF00BF0F2040050549C8600020886079
:10A7700000BF0448047000E000BF00BF2846F8BDD9
:10A78000000500500820002070B50246002021E09E
:10A790008400124D2C59A400114D64192168012424
:10A7A00084401440002C01D0032400E00024234600
:10A7B00003252D040C46AC4321461C0421430524EB
:10A7C000240707252D0264198500044E7559AD0034
:10A7D0006151401C0428DBD3002070BDC4C80100B7
:10A7E0000007005010B5044620780221FFF7EAFB6D
:10A7F00010BD0000F8B50546154A16490320FFF7BD
:10A80000E3FC044600BF2646002E06D000BF00220F
:10A8100011463046FEF7AEFB00BF00BF6946002080
:10A82000FFF75EFB044600BF2646002E06D000BFA1
:10A83000002211463046FEF79DFB00BF00BF684670
:10A840000078022801D1012000E000202870F8BD26
:10A85000D5A00100CD0C00000021C9438200054BAA
:10A860009950042804DB0B46011F024A4832535416
:10A87000704700005827002001468800014A105800
:10A880007047000058270020F7B585B00B46002020
:10A89000C0430490002003900290002A00D000E002
:10A8A00004200390002A01D0042000E00A20029036
:10A8B00003991EE08800124C2058401C002817D134
:10A8C0000846059C0093019246B20D4D28352E5541
:10A8D00085000B4E009B7351019A002A04D166B289
:10A8E000051F074F48377E5500BF48B2049003E06C
:10A8F000491C02988142DDD300BF049808B0F0BD26
:10A900005827002001460148405670478027002004
:10A91000FEB51E480068401C002834D01B48006863
:10A92000242148431A4909684018456801F0AAF9EA
:10A930000190184804682146019801F09FFBC61C4D
:10A9400015480078002801D101F0AEF9AE4201D2DD
:10A95000284600E0304604192402240A20460F4904
:10A96000086000BF01F08EF900900199009801F095
:10A9700085FBC71C2046019901F080FB874201D965
:10A9800001F040FD01E001F0ADF9FEBDD020002056
:10A99000C4200020D4200020E820002040150140E1
:10A9A00001460888062808DB08881922D20190424F
:10A9B00005DD0888104A904201D00720704748887A
:10A9C000062808DB48881922D201904205DD488814
:10A9D000094A904201D00720F0E70888064A9042D1
:10A9E00008D04888904205D008884A88904201DD06
:10A9F0000720E3E70020E1E7FFFF0000F8B5064687
:10AA00000D4614462078801D1F2801D90C20F8BD62
:10AA10003046FFF7C5FF0746002F01D03846F6E75E
:10AA200005212278501C2070A95412212278501C34
:10AA30002070A95422785119308801F02FFE217816
:10AA40004018207022785119708801F027FE217873
:10AA5000401820700020DAE710B5044600BF00223D
:10AA600011462046FEF786FA00BF10BD30B587B00C
:10AA70001C216846FDF789FB002000900520C003DB
:10AA800001900F2000040290032168460173002109
:10AA9000C18101740A4805900A4806906846FFF78C
:10AAA000D9F8044600BF2546002D06D000BF00227D
:10AAB00011462846FEF75EFA00BF00BF07B030BD62
:10AAC00001B9010059AA010038B51F4800F056FA33
:10AAD000002829D11D48007800280AD01C48406968
:10AAE000002820D000200090194841696846884716
:10AAF00019E018480078002802D11548456801E09F
:10AB0000134885680022294613480068FEF734FB85
:10AB10000446002C07D00E488069002803D00C485A
:10AB20008169204688470AE009484069002806D024
:10AB300001200090064841696846884700BF002010
:10AB40000249087038BD00006420002070200020F9
:10AB50001C270020602000206C20002010B501225E
:10AB600000210846FFF7F0FA044600BF002C03D08E
:10AB7000072C01D0204610BD00BF07220221012072
:10AB8000FFF7E2FA044600BF002C03D0072C01D0E7
:10AB90002046F0E700BF042202210020FFF7D4FA8C
:10ABA000044600BF002C03D0072C01D02046E2E76A
:10ABB00000BF0020DFE7000010B514484068C10561
:10ABC000C90D002920D00A46103A50B200280DDAEB
:10ABD0000E4B1C330407240F083CA408A4001B5987
:10ABE0008407E40EE3401B069B0F0BE0084B032495
:10ABF00024021B198408A4001B598407E40EE340B7
:10AC00001B069B0FD8B210BD0420FCE700ED00E04E
:10AC100000E100E0F8B5002535E0E8001C490968CE
:10AC2000441821780120884006461A4800683040C0
:10AC3000002826D017480068B043164908602078DD
:10AC400000F0C0FC074621780120884012490968BD
:10AC50000840227839469140884211D16078012815
:10AC600000D100E000207840012148400090606859
:10AC7000002804D0009BD9B220786268904700BFBA
:10AC800000BF681CC5B2054800788542C5DBF8BD29
:10AC9000A8200020BC200020B8200020AC200020EC
:10ACA000014614480078144A127890421DD0114889
:10ACB0000078401C0F4A107010460078022801D11D
:10ACC000002010700B48007880000C4A1058086073
:10ACD0000B4A086812688018094A1060104600681C
:10ACE0000002000A1060012070470020086000BFC9
:10ACF000FAE70000E0200020E1200020D82000201A
:10AD0000D4200020F0B50346002426E0164E366815
:10AD100024277E43154F3F68F01946689E4203D9A9
:10AD20004668F61A46601DE046689B1B4668341963
:10AD30000026466006750C4E35680B4F066A3E606D
:10AD40000669002E08D00E193602360A866006699A
:10AD5000C66016680662156000BF03480068401CA4
:10AD60000028D3D100BFF0BDD0200020C420002097
:10AD700001468A68C868801A704701468A68C868B0
:10AD8000801A704770B504460D46E0B2FEF734FBFA
:10AD9000204670BD3EB500BF684600780109090134
:10ADA000491C009168460078F021884310300090DB
:10ADB00000BF0F2216A168467CDF044600BF25466F
:10ADC000002D06D000BF002211462846FEF7D2F81B
:10ADD00000BF00BF002001900290102168468180D2
:10ADE0003C21C18000210181FF219131418101A8D5
:10ADF0007ADF044600BF2546002D06D000BF0022A2
:10AE000011462846FEF7B6F800BF00BF3EBD000061
:10AE10006E6F726469635F6C6978696E675F310039
:10AE2000F8B505460F460120A840044618480068BA
:10AE3000FEF7D8F90646002E00D0F8BD1548006888
:10AE4000204000281DD1284600F0BCFB002805D07A
:10AE50001148006820431049086004E00E4800686B
:10AE6000A0430D4908600B48006820430949086069
:10AE700000220A48016806480068FEF77DF9064688
:10AE800004E004480068A0430249086000BFD4E71A
:10AE9000B4200020BC200020B8200020B0200020DA
:10AEA00070B504460D46204600F08CFB002803D008
:10AEB000002000F001FE02E0012000F0FDFD70BD69
:10AEC000F8B529480078002800D1F8BD2748006867
:10AED000002801D1012000E0002005462448006838
:10AEE000002801D1012000E00020064600BF002D0F
:10AEF00014D1684651DF0446052C01D101250CE030
:10AF0000002C06D000BF002211462046FEF732F882
:10AF100003E0164900980968884700BF002E1AD13F
:10AF200014480088009069461348006861DF0446B1
:10AF3000052C01D101260DE0002C06D000BF002217
:10AF400011462046FEF716F804E00B480068084951
:10AF50000968884700BF002D02D0002E00D000E015
:10AF6000C5E700BF00BFB0E7F8200020082100209F
:10AF70000421002000210020FC20002001464888F8
:10AF8000064A1288904206DB4888044A528890425A
:10AF900001DC012070470020FCE700005820002061
:10AFA0000C48008CC0B2012812D10A48808C0007DE
:10AFB000000F00280CD10748806AF0210840402883
:10AFC00006D10448C06A0840002801D1012070471A
:10AFD0000020FCE7C00F00F01948008CC0B2012827
:10AFE0002CD11748808C0007000F002826D1144868
:10AFF000806AF0210840002806D11148C06A084044
:10B00000002801D1012070470D48806AF0210840D6
:10B01000102806D10A48C06A0840002801D1012042
:10B02000F1E70748806AF0210840302806D104483B
:10B03000C06A0840002801D10120E4E70020E2E7CF
:10B04000C00F00F010B5044605480078C007C00FD7
:10B05000002803D003480078FFF720F910BD000056
:10B060001020002008200020FEB52B480068019029
:10B070002A480078009040E00098C00028490968FC
:10B080004418257835E01820684361680F18681C5B
:10B09000C5B2A078A84200D100253878022802D095
:10B0A000032823D10EE02421786848431D4909680C
:10B0B0004618307D002804D0786801F0A5F80020FB
:10B0C000307514E00CE01449096824225143154AF4
:10B0D00012688818002101750F4A016A116000BFCB
:10B0E0000D480068401C0028EDD100E000BF00BF03
:10B0F00000BF6078A842C6D100BF0098411EC9B207
:10B1000000910028B8D1044801680198814201D01B
:10B110000120FEBD0020FCE7D0200020C820002038
:10B12000CC200020C4200020FEB50746434800681C
:10B13000029043480078019071E00198C0004149B5
:10B140000968451863E0781C002807D03E46242093
:10B1500070433D4909684418276A29E02978182373
:10B1600059436A6850182978491C29702978AA78A7
:10B17000914201D100212970466824217143324A4D
:10B1800012688C180178012902D1217D002900D094
:10B190003DE08168A160C168E160016921614169A8
:10B1A000E1612A490978002901D00021A16000BF8E
:10B1B0002749A0680968401A0002000A2549884208
:10B1C00008D22349A068096800F058FFE1684018D8
:10B1D000606011E01E48A168006800F04FFF009019
:10B1E000E1680098814204D9E1680098081A60601B
:10B1F00001E00020606000BF0020A060E06001204E
:10B200002075801E2062304600F090FF00BF781C41
:10B21000002898D128786978884294D100BF019895
:10B22000411EC9B20191002887D1044801680298E3
:10B23000814201D00120FEBD0020FCE7D02000208B
:10B24000C8200020CC200020C4200020E9200020BD
:10B25000D4200020FFFF7F001CB500BF00201B4B47
:10B26000052211460090FDF70FFF054600BF2E4650
:10B27000002E06D000BF002211463046FDF77AFEB0
:10B2800000BF00BF00BF01F095F901A8FFF7B2FAB7
:10B29000FEF7E6FDFFF77EFD00F02AFEFDF7B4FDA8
:10B2A000FFF7E4FB0320FEF7F1FA044600BF254652
:10B2B000002D06D000BF002211462846FDF75AFE99
:10B2C00000BF00BF00BF00F0B5FCFCE784230020F6
:10B2D000F8B505460E4614462879801CC7B220787A
:10B2E000801CC0191F2801DD0C20F8BD781CC1B2DC
:10B2F0002278501C2070B154FF212278501C2070FD
:10B30000B15422789119288801F0C8F921784018A1
:10B310002070A88800280EDDA868002801D1072029
:10B32000E3E7AA8823789819A968FCF715FF207825
:10B330002979401820700020D7E7F7B584B004467B
:10B340000F4606980678B01C1F2803DC6078801C26
:10B350001F2802DD0C2007B0F0BD1F20801B801EBF
:10B3600085B20295B11C781802A97DDF039003987D
:10B37000002801D00398EEE72078022808D168461B
:10B380000089A84204DC09200190684605890BE089
:10B39000082001906078002804D06078A84201DC81
:10B3A000657801E068460589681CC2B23046711CA8
:10B3B000CEB23A543046721CD6B20199395406982E
:10B3C0000178A81C0818C1B2069801700020C2E7D5
:10B3D00070B504460D4629462046FDF765F800BFC6
:10B3E000E106C90E012088400549086000BF00BF82
:10B3F000E106C90E012088400249086000BF70BD07
:10B4000080E200E000E100E0FEB505460E46284679
:10B4100000F0ECFB002820D02846FFF773FA001F4D
:10B4200028490F5CBC11032C0CD100BF26480069D1
:10B430000121A9400840002801D0032000E002209B
:10B44000019005E0012C01D1022000E003200190D1
:10B450002846019900F070F932E0284600F0D2FB4E
:10B4600000282DD02846FFF74DFA0446A000FF30F3
:10B47000013080B2019020461449512212018918EE
:10B480008200895801221143104A51231B01D2180E
:10B490008300D15000BF019800F088F9002E0ED033
:10B4A0002846FFF72FFA0090FFF7E6F90746002F2E
:10B4B00004D00121A140084600F08CF900BF00BF74
:10B4C000FEBD0000A02700200005005000600040E5
:10B4D000F7B582B004460E4600200190204600F0E9
:10B4E00077FB002802D0082001905FE0F278204628
:10B4F0000499FFF7C9F90546681C002853D0B078B5
:10B50000002810D000BFA1002A4A89180968022229
:10B510009143084605210907072212028918A20053
:10B52000885000BF0AE070788100052212070723C7
:10B530001B02D218A300D15000BF00BFF078002832
:10B5400026D037781C48512109014018A9004058DD
:10B550001A4908401849512212018918AA00885036
:10B560001548512109014018A900415820021F2205
:10B57000120210403A0403231B041A4010430143F3
:10B580000D48512212018018AA00815000BF0CE022
:10B59000281F0B49085C31788901084342B2281FF3
:10B5A00007490A5401E00420019000BF019805B04A
:10B5B000F0BD00000007005000600040FFE0FCFF0D
:10B5C000A0270020014600BF05480069C840C00709
:10B5D000C00F002801D0012070470020FCE70000C8
:10B5E0000005005010B51248807B002801D00820CB
:10B5F00010BD002404E0204600F014FB601CC4B21F
:10B60000202CF8DB002404E02046FFF725F9601C1D
:10B61000C4B20A2CF8DB01210620FFF7D9FE012075
:10B62000C00700F0D7F80121014881730020DFE74F
:10B63000982700200348807B002801D00120704714
:10B640000020FCE798270020FEB504460E460020A7
:10B650000190204635490956491C002901D0012195
:10B6600000E00021002902D0082001905BE0B078C2
:10B6700000283AD0012200212046FFF705F90546AF
:10B68000681C00282ED03778727800922848512103
:10B6900009014018A9004058264908402449512270
:10B6A00012018918AA008850214851210901401827
:10B6B000A900415820021F22120210403A0403231D
:10B6C0001B041A401043009A120501231B051A405F
:10B6D000104301431648512212018018AA008150DC
:10B6E00000BF01E00420019006E000BF0121C94332
:10B6F0000E48015500BF00BF0198002813D100BFBC
:10B70000032005210907072212028918A200885088
:10B7100000BF7078012803D1204600F039F802E01C
:10B72000204600F02DF80198FEBD00008027002083
:10B7300000600040FFE0ECFF10B505221207072370
:10B740001B02D2188300D25803231B049A430523FB
:10B750001B07072424021B1984001A510522120713
:10B7600007231B02D2188300D2580B041A43052367
:10B770001B07072424021B1984001A5110BD000066
:10B7800001218140014AD16070470000000500504E
:10B7900001218140014A916070470000000500507E
:10B7A00001460148081870470060004010B5044683
:10B7B0002046FFF7F5FF0021016010BD10B50446DB
:10B7C0002046FFF7EDFF0068012800D110BD0020E2
:10B7D000FCE700000149486070470000006300403A
:10B7E000F8B507460D461646002406E000BF285D62
:10B7F000FDF702FE0028FAD1641CB442F6D3F8BD6E
:10B8000070B50546002D12D0032D13D10220FEF78E
:10B81000C9FC044600BF2646002E06D000BF002209
:10B8200011463046FDF7A6FB00BF00BF03E000F065
:10B830007BFB00E000BF00BF70BD000070B5054697
:10B840002888102806D0112818D013282BD0522869
:10B8500051D13CE00720FEF7A5FC044600BF264678
:10B86000002E06D000BF002211463046FDF782FBB5
:10B8700000BF00BFA888214908803DE00020FEF7F6
:10B8800091FC044600BF2646002E06D000BF0022D1
:10B8900011463046FDF76EFB00BF00BF0020C043DD
:10B8A0001649088028E000231A468521134800889D
:10B8B0007FDF044600BF2646002E06D000BF0022D0
:10B8C00011463046FDF756FB00BF00BF14E00023D1
:10B8D0001A46194609480088A9DF044600BF2646D3
:10B8E000002E06D000BF002211463046FDF742FB75
:10B8F00000BF00BF00E000BF00BF70BD00200020FF
:10B9000070B505462878002813D10AA0FCF7E4FE9C
:10B910003B211248008876DF044600BF2646002EF1
:10B9200006D000BF002211463046FDF723FB00BFC2
:10B9300000BF70BD5B6572726F725D64657669632E
:10B9400065277320636F6E6E65637420706172612A
:10B950006D746572732E2E2E0D0A000000200020DB
:10B9600010B504460822A11D0248FCF7F5FBFFF7BD
:10B97000ABF810BD6420002010B50446A08809492A
:10B9800008800822214616310748FCF7E5FB002015
:10B99000064908700648C089002801D1FFF794F8CD
:10B9A00010BD0000622000206420002060200020E4
:10B9B0001C2700208A8882827047000010B5084842
:10B9C0000078012802D0022807D102E0FDF738F9FB
:10B9D00004E003200249087000E000BF00BF10BD72
:10B9E0007C20002010B510480078002802D00328E1
:10B9F00016D111E004200D49086001200C490860AF
:10BA00000C48FFF7B5F9002802D0FDF7DBF802E09B
:10BA100001200549087004E002200349087000E095
:10BA200000BF00BF10BD00007C20002000250040AA
:10BA3000002000404827002070B505460020C04384
:10BA40000A49088000200A4908700A480068FDF782
:10BA5000C9FB0446002C07D007488069002803D0A2
:10BA6000054881692046884770BD0000622000209B
:10BA7000602000206C2000201C2700200022D243E0
:10BA80008282704710B509480078012807D0022843
:10BA900004D0032806D1FDF7D3F804E000BFFDF77A
:10BAA00083F800E000BF00BF10BD00007C20002034
:10BAB00010B5FDF7C5F810BD10B504462300FCF71E
:10BAC0001BFE0504070D0A101300FFF777FF0CE0BB
:10BAD000FFF788FF09E0FFF7D5FF06E000F008F860
:10BAE00003E0FFF7E5FF00E000BF00BF10BD00006E
:10BAF00010B503480078012801D1FDF763F810BDA7
:10BB00007C20002070B50546AC1D20881249C989EB
:10BB1000884220D1208B02281DD100BF00BFA17E0A
:10BB2000E27E120211430846C107C90F002902D064
:10BB3000FEF7CAFF0FE009480068FDF753FB064611
:10BB4000002E07D004488069002803D0024881698C
:10BB50003046884700BF70BD1C2700206C200020A5
:10BB600070B504460E46B51D2988208A814213D13E
:10BB7000288B022810D100BF00BFA97EEA7E1202E6
:10BB800011430846C107C90F002902D00120A07542
:10BB90000FE00020A0750CE02888A188884208D119
:10BBA000A069002805D02A8B29461A312046A369AE
:10BBB000984770BD0246002105E0505C002801D086
:10BBC00001207047491C0629F7D30020F9E700003F
:10BBD000014605484056C017401C002801D00120EE
:10BBE00070470020FCE70000802700200146044841
:10BBF0004056042801DB012070470020FCE70000CC
:10BC000080270020014606484056002805DB0448EE
:10BC10004056042801DA012070470020FCE70000AC
:10BC2000802700200022D24301490A5470470000B7
:10BC30008027002070B548DF044600BF2546002D50
:10BC400006D000BF002211462846FDF793F900BF39
:10BC500000BF70BD014600BF0848006804221040C4
:10BC6000002801D10820704700BF002901D10E2013
:10BC7000F9E70348407808600020F4E7A42000209A
:10BC8000A8270020014840687047000000150140C7
:10BC900010B504460348846003211120FCF740FCE2
:10BCA00010BD00000015014010B5012000040A4934
:10BCB00048600949403948601120FCF79BFB11207E
:10BCC000FCF7A2FB0120054908602F20FCF702FACF
:10BCD00001200349087010BD4013014000100140CD
:10BCE000E820002010B51120012181400E4A11608A
:10BCF00000BF012000040D4988600C49403988606C
:10BD000001200B4948602F20FCF7E4F90120084985
:10BD100088600020074908602F20FCF7DBF900202D
:10BD20000549087010BD000080E100E040130140AB
:10BD300000100140D4200020E820002030B58FB052
:10BD400004460D460020079000BF6846007F0109A9
:10BD50000901491C68460177007FF02188431030B3
:10BD60006946087700BF00BF6846407F01090901A6
:10BD7000491C68464177407FF0218843103069466E
:10BD8000487700BF6846807F06218843811C68464B
:10BD900081771C2108A8FCF7F8F908A80078102181
:10BDA0008843411808A80170002009900B900C905E
:10BDB00007A80D9000200E902178684681712849CF
:10BDC00081800020009000BF6846007801090901C9
:10BDD000491C684601700078F0218843103069469C
:10BDE000087000BF00BF6846407801090901491C7E
:10BDF000684641704078F0218843103069464870A9
:10BE000000BF6846807806218843811C684681709F
:10BE10008078082188430146684681708078102127
:10BE20008843014668468170807841084900491C72
:10BE300068468170142102A8FCF7A7F901A80290B6
:10BE400068460390012101820021418214218182F0
:10BE5000608823460C3302AA08A9A2DF0FB030BDC8
:10BE600036120000FEB507460E461446B86A002892
:10BE700001D10720FEBD0020019032E0B96A0C22FA
:10BE8000019850430D182879801CC0B2009000988A
:10BE9000401CC1B22278501C2070B1541621227867
:10BEA000501C2070B15422789119288800F0F6FBBC
:10BEB000217840182070A88800280EDDA868002886
:10BEC00001D10720D6E7AA8823789819A968FCF73A
:10BED00043F920782979401820700198401CC0B29D
:10BEE00001902C20C15D01988142C7DC0020C1E790
:10BEF00038B5002000900A48009069460948FDF7CF
:10BF00001BFF044600BF2546002D06D000BF0022BF
:10BF100011462846FDF72EF800BF00BF38BD0000CF
:10BF2000E1B701000C21002070B50020FEF73AF9BE
:10BF3000044600BF2546002D06D000BF0022114652
:10BF40002846FDF717F800BF00BFFEF72BF80446A0
:10BF500000BF2546002D06D000BF0022114628460E
:10BF6000FDF708F800BF00BF3CDF044600BF2546D0
:10BF7000002D06D000BF002211462846FCF7FAFF2C
:10BF800000BF00BF70BD70B506460C461546294679
:10BF90002046C046C04670BD0146002901D10E2092
:10BFA0007047024801600020FAE7000004210020E9
:10BFB000FFB581B00C4616461F46002C02D1072063
:10BFC00005B0F0BD20468107890F002901D101216C
:10BFD00000E00021002901D10720F1E709480460B1
:10BFE00009480680094807600949019810DF05469D
:10BFF000002D01D02846E3E70120064908701620ED
:10C000002EDFDDE7FC20002000210020F4200020AE
:10C0100087BF0100F82000200146C878002801D021
:10C02000072070470020FCE77CB5044601A90020EA
:10C03000FEF734F8054600BF002D01D028467CBD30
:10C0400000BF69460120FEF729F8054600BF002D14
:10C0500001D02846F3E700BF68460078002802D0E8
:10C060000220207008E068460079002802D00B20EA
:10C07000207001E0002020700020E0E70246501A06
:10C080000002000A7047000070B504460D480068C1
:10C09000002812D00B4AE169A06912689047054652
:10C0A00000BF2E46002E06D000BF002211463046AB
:10C0B000FCF760FF00BF00BF02E0A169E0698847AC
:10C0C00070BD0000E4200020FEB50020C0430190B8
:10C0D00010480468104807686846FEF7E1FD054609
:10C0E000FEF7C2FF0646002D05D001AA21460098A2
:10C0F000FEF708FE01260198FFF716F8002800D089
:10C100000126002E02D03846FEF702FC002003492B
:10C110000870FEBDD4200020D0200020E92000209F
:10C1200010B51420FCF77AF910BD0000F0B50246F6
:10C1300024205043324B1B68C11832480068401C11
:10C14000002802D12F48026059E02E484B68006851
:10C15000242460432A4C246800194068834217D87D
:10C160002848006824235843254B1B68C0184068A2
:10C170004B68C31A2348006824246043204C246879
:10C18000001943601F48006808621E48026036E0DC
:10C190004B681C4D2C6828680DE024254543184E3B
:10C1A0003668AD196D685B1B044624254543144E63
:10C1B0003668AD19286A451C002D07D02425454353
:10C1C0000F4E3668AD196D689D42E6D3451C002DB3
:10C1D0000CD0242545430A4E3668AD196D68EE1A19
:10C1E00024254543064F3F68ED196E604B60086299
:10C1F00024256543024E3668AD192A6200BFF0BDA2
:10C20000C4200020D020002070B502462C4C2168AC
:10C21000084609E0904200D109E001462424444345
:10C22000284D2D686419206A441C002CF2D100BFEF
:10C23000441C002C00D170BD814217D1204C2468D1
:10C2400024256C431F4D2D686419246A1C4D2C60F5
:10C250002C462468641C002C08D101241A4DAC60C3
:10C2600000241A4D2C600124194D2C7024244443C1
:10C27000144D2D686419636824244443114D2D68BE
:10C280006419256A24244C430E4E3668A41925628D
:10C2900024244C430B4D2D686419206A441C002C47
:10C2A0000CD024244443074D2D6864196468E518B4
:10C2B00024244443034E3668A419656000BFBAE7DE
:10C2C000D0200020C420002000100140D4200020F5
:10C2D000E9200020FFB581B005460E461746E9006B
:10C2E000104A12688818694600F041FA0446002C8A
:10C2F00002D1042005B0F0BD012020706660FFF778
:10C30000C1FCA060E760049820610A986061E900C0
:10C31000044A12688818009900F03FFAFFF700FFFE
:10C320000020E7E7CC200020F8B504460E46E100E7
:10C330000C4A12688818694600F019FA0546002D63
:10C3400001D10420F8BD022028706E60E100054A8A
:10C3500012688818009900F020FAFFF7E1FE00202B
:10C36000F0E70000CC200020F8B520480068401C11
:10C3700000283AD00027FFF785FC04461C480168D6
:10C380002046FFF77BFE06461848056811E024208A
:10C3900068431849096844186068B04200D90BE046
:10C3A0006068361A6068C719256A2046FFF76CFE78
:10C3B00000BF681C0028EAD100BF0F4800780F4971
:10C3C0000978884209D10D480078401CC0B20B4959
:10C3D0000870022801D10020087008480078800009
:10C3E00007490F50FFF79CFE00BFF8BDD02000208A
:10C3F000D4200020C4200020E0200020E1200020E4
:10C40000D820002010B51120FCF708F810BD00005E
:10C4100030B58FB004460D461C2108A8FBF7B5FEC9
:10C4200008A8007808218843411808A801700078FE
:10C4300004218843011D08A80170002009900B9079
:10C440000C900D900E9021786846817228490181E8
:10C450000020019000BF6846007901090901491CCC
:10C46000684601710079F0218843103069460871EF
:10C4700000BF00BF6846407901090901491C6846B0
:10C4800041714079F021884310306946487100BFFE
:10C490006846807906218843811C684681718079CD
:10C4A00008218843014668468171807910218843BC
:10C4B000014668468171807941084900491C6846F7
:10C4C0008171142103A8FBF760FE02A8039001A864
:10C4D00004900121684681820021C18214210183D8
:10C4E0006088231D03AA08A9A2DF0FB030BD000099
:10C4F0003512000030B503461078C01C1F2801DD3E
:10C500000C2030BD02241578681C10704C550A248C
:10C510001578681C10704C551578681C10704B55B8
:10C520000020EEE770B505462878002804D00128E1
:10C530002ED0022834D123E01B491C4A12788818D7
:10C54000FCF772FE19480078401C1849087008462C
:10C55000027815491648FDF757FC0446082C0BD005
:10C5600000BF2646002E06D000BF002211463046EE
:10C57000FCF700FD00BF00BF00200C49087010E070
:10C5800000BF002211466868FCF7F4FC00BF08E019
:10C5900000BF002211466868FCF7ECFC00BF00E019
:10C5A00000BF00BF70BD00007021002006200020E9
:10C5B0000C21002030B589B0144A07CA06AB07C366
:10C5C00000BF0020059012480190FF20013002902A
:10C5D00010480390FF200130049005A803230E4A61
:10C5E00001A9009006A8FCF729FE044600BF00BF81
:10C5F0002546002D06D000BF002211462846FCF734
:10C60000B9FC00BF00BF09B030BD0000B8C80100D0
:10C61000842100208422002025C5010004200C492B
:10C62000086000200B498860C86109484030C06A32
:10C630004008400006494031C8620020C043044918
:10C640008860086101200449886008607047000024
:10C6500000250040002100400020004004210C4A39
:10C66000116000210B4A9160D16109494031C96ACA
:10C6700001221143064A4032D162C178044A116155
:10C68000817891600121044A916011607047000037
:10C6900000250040002100400020004002460A70B2
:10C6A000FF20000210400012487002207047000076
:10C6B00038B5054620480088204988423BD02048AC
:10C6C0000078401C1E4908701E48007B097888428B
:10C6D0000FDB1D491848008875DF0446002C07D081
:10C6E00018488069002803D0164881692046884789
:10C6F00021E00020124908701248007C00280FD069
:10C700003B210D48008876DF0446002C07D00D48F9
:10C710008069002803D00B4881692046884700BF04
:10C7200008484069002806D000200090054841696B
:10C730006846884700BF38BD62200020FFFF000028
:10C74000602000201C2700205820002010B5FEF794
:10C7500033FA012802D0032804D101E0002403E0C9
:10C76000012401E0022400BF00BF204610BD70B5C7
:10C7700002460B465078411C9078884200D1002137
:10C780001078884201D1002070BD196050781826B9
:10C79000704355682C182046F6E741707047FFB586
:10C7A00081B0074615460A9E009602223846049B31
:10C7B000029900F014F80446002C02D0204605B07F
:10C7C000F0BD0096102229463846049B00F007F879
:10C7D0000446002C01D02046F1E70020EFE7FFB52A
:10C7E00087B006461D46109C0020069020780590D4
:10C7F000002747E0B900706841180A88684602813E
:10C8000049884181002203A902A865DF04900498A9
:10C81000002802D004980BB0F0BD6846017B09984F
:10C8200081422ED10698002801D0002000E002208D
:10C83000019020786946097B4118019808181F2843
:10C8400001DD0C20E7E70698002809D12078401C7C
:10C8500020702278511C08982170A854012006905D
:10C860002078421903A902A865DF049004980028E3
:10C8700001D00498CFE720786946097B40182070E2
:10C8800000BF7F1C3088B842B4DC0698002806D070
:10C8900021780598401C081AC1B205982954002037
:10C8A000B9E701460879002802D1087B002801D0A9
:10C8B000012070470020FCE70B09080A0000000077
:10C8C00000509D0011000000120000001300000045
:10C8D0001400000011000300C59F010012000300B6
:10C8E000C59F010013000300C59F01001400030051
:10C8F000C59F0100FB349B5F80000080001000009A
:10C900000000000000010000030000000300000020
:10C910005B4144565D3A2054696D6564206F7574BF
:10C920002066726F6D206661737420616476657233
:10C93000746973696E672C207374617274696E67B1
:10C9400020736C6F77206164766572746973696EA9
:10C95000672E0D0A0000000078C9010000200020A9
:10C960000C0100001487010084CA01000C21002082
:10C97000740F000024870100FFFF34120100000043
:10C9800000000000000000000000000000000000A7
:10C990000000000000000000000000000000000097
:10C9A0000000000000000000000000000024F4006F
:10C9B0000000000000000000000000000000000077
:10C9C0000000000000000000000000000000FFFF69
:10C9D0000000000000000000000000000000000057
:10C9E0000000000000000000000000000100000046
:10C9F0000000000000000000000000000000000037
:10CA00000000000000000000000000000000000026
:10CA10000000000000000000000000000000000016
:10CA20000000000000000000000000000000000006
:10CA300000000000000000000000000000000000F6
:10CA400000000000000000000000000000000000E6
:10CA500000000000000000000000000000000000D6
:10CA600000000000000000000000000000000000C6
:10CA700000000000000000000000000000000000B6
:04CA800000000000B2
:04000005000180C1B5
:00000001FF
